:020000040800F2
:100000008C04002081090008F1090008F1090008AA
:10001000F1090008F1090008F109000800000000DA
:10002000000000000000000000000000F1090008CE
:10003000F109000800000000F1090008F1090008BA
:10004000F1090008F1090008F1090008F1090008A8
:10005000F1090008F1090008F1090008F109000898
:10006000F1090008F1090008F1090008F109000888
:10007000F1090008F1090008F1090008F109000878
:10008000F1090008F1090008F1090008000000006A
:10009000000000000000000000000000F10900085E
:1000A000F1090008F1090008F1090008F109000848
:1000B000F1090008F1090008F1090008F109000838
:1000C000F1090008F1090008F1090008F109000828
:1000D000F1090008F1090008F1090008F109000818
:1000E000F1090008F1090008F1090008000000000A
:1000F0000000000000000000000000000000000000
:1001000000000000000000000000000000000000EF
:100110000000000000000000812100088123000889
:100120005FF808F180B582B000AF78607A684FF46C
:100130003053C4F201039A420CD14FF400604FF0E7
:10014000010102F075FC4FF400604FF0000102F075
:100150006FFC3BE17B68B3F1804F0CD14FF00100A5
:100160004FF0010102F08EFC4FF001004FF0000152
:1001700002F088FC2AE17A684FF48063C4F200033D
:100180009A420CD14FF002004FF0010102F07AFCCC
:100190004FF002004FF0000102F074FC16E17A68A3
:1001A0004FF40063C4F200039A420CD14FF00400F4
:1001B0004FF0010102F066FC4FF004004FF0000127
:1001C00002F060FC02E17A684FF44063C4F200037D
:1001D0009A420CD14FF008004FF0010102F052FC9E
:1001E0004FF008004FF0000102F04CFCEEE07A689E
:1001F0004FF48053C4F200039A420CD14FF0100028
:100200004FF0010102F03EFC4FF010004FF00001F2
:1002100002F038FCDAE07A684FF4A053C4F200032D
:100220009A420CD14FF020004FF0010102F02AFC5D
:100230004FF020004FF0000102F024FCC6E07A6885
:100240004FF45053C4F201039A420CD14FF40050C2
:100250004FF0010102F0ECFB4FF400504FF00001B1
:1002600002F0E6FBB2E07A684FF49843C4F201036F
:100270009A420CD14FF400204FF0010102F0D8FB5C
:100280004FF400204FF0000102F0D2FB9EE07A68AC
:100290004FF4A043C4F201039A420CD14FF48010F2
:1002A0004FF0010102F0C4FB4FF480104FF0000149
:1002B00002F0BEFB8AE07A684FF4A843C4F201035F
:1002C0009A420CD14FF400104FF0010102F0B0FB44
:1002D0004FF400104FF0000102F0AAFB76E07A68BC
:1002E0004FF4C053C4F200039A420CD14FF04000C7
:1002F0004FF0010102F0C6FB4FF040004FF000014B
:1003000002F0C0FB62E07A684FF4E053C4F20003ED
:100310009A420CD14FF080004FF0010102F0B2FB85
:100320004FF080004FF0000102F0ACFB4EE07A6825
:100330004FF40053C4F200039A420CD14FF4807082
:100340004FF0010102F09EFB4FF480704FF000016E
:1003500002F098FB3AE07A684FF48043C4F201035C
:100360009A420CD14FF480304FF0010102F060FB53
:100370004FF480304FF0000102F05AFB26E07A681B
:100380004FF48843C4F201039A420CD14FF4003079
:100390004FF0010102F04CFB4FF400304FF0000130
:1003A00002F046FB12E07A684FF49043C4F2010376
:1003B0009A420BD14FF480204FF0010102F038FB3C
:1003C0004FF480204FF0000102F032FB07F10807E4
:1003D000BD4680BD80B485B000AF786039604FF015
:1003E0000003FB817B681B88FB817A684FF43053E4
:1003F000C4F201039A421FD07A684FF45053C4F2FA
:1004000001039A4218D07B68B3F1804F14D07A6808
:100410004FF48063C4F200039A420DD07A684FF41F
:100420000063C4F200039A4206D07A684FF4406336
:10043000C4F200039A4208D1FB8923F07003FB81C8
:100440003B685A88FB891343FB817A684FF48053D9
:10045000C4F200039A420FD07A684FF4A053C4F25A
:1004600000039A4208D0FB8923F44073FB813B6868
:10047000DA88FB891343FB817B68FA891A803B6821
:100480009A887B689A853B681A887B681A857A689F
:100490004FF43053C4F201039A421BD07A684FF4F0
:1004A0005053C4F201039A4214D07A684FF4804347
:1004B000C4F201039A420DD07A684FF48843C4F223
:1004C00001039A4206D07A684FF49043C4F20103C4
:1004D0009A4204D13B681B7A1A467B681A867B686D
:1004E0004FF001029A8207F11407BD4680BC7047A5
:1004F00080B485B000AF786039604FF000037B8135
:100500004FF00003FB814FF00003BB817B681B8C25
:100510009BB223F001039AB27B681A847B681B8C20
:10052000FB817B689B88BB817B681B8B7B817B8984
:1005300023F070037B817B8923F003037B813B687D
:100540001A887B8913437B81FB8923F00203FB819B
:100550003B681A89FB891343FB813B685A88FB89F6
:100560001343FB817A684FF43053C4F201039A427B
:100570001BD07A684FF45053C4F201039A4214D04E
:100580007A684FF48043C4F201039A420DD07A682E
:100590004FF48843C4F201039A4206D07A684FF4BC
:1005A0009043C4F201039A4223D1FB8923F008034C
:1005B000FB813B685A89FB891343FB81FB8923F04C
:1005C0000403FB813B689A88FB891343FB81BB8949
:1005D00023F48073BB81BB8923F40073BB813B6828
:1005E0009A89BB891343BB813B68DA89BB89134372
:1005F000BB817B68BA899A807B687A891A833B6859
:10060000DA887B689A867B68FA891A8407F114076E
:10061000BD4680BC704700BF80B485B000AF786035
:1006200039604FF000037B814FF00003FB814FF0F6
:100630000003BB817B681B8C9BB223F010039AB232
:100640007B681A847B681B8CFB817B689B88BB81E1
:100650007B681B8B7B817B8923F4E0437B817B89D7
:1006600023F440737B813B681B884FEA03239AB2D3
:100670007B8913437B81FB8923F02003FB813B684B
:100680001B894FEA03139AB2FB891343FB813B6832
:100690005B884FEA03139AB2FB891343FB817A68A4
:1006A0004FF43053C4F201039A4206D07A684FF4F3
:1006B0005053C4F201039A422FD1FB8923F08003E7
:1006C000FB813B685B894FEA03139AB2FB891343B2
:1006D000FB81FB8923F04003FB813B689B884FEA49
:1006E00003139AB2FB891343FB81BB8923F4806314
:1006F000BB81BB8923F40063BB813B689B894FEAC4
:1007000083039AB2BB891343BB813B68DB894FEA01
:1007100083039AB2BB891343BB817B68BA899A80F1
:100720007B687A891A833B68DA887B681A877B68DA
:10073000FA891A8407F11407BD4680BC704700BFD0
:1007400080B485B000AF786039604FF000037B81E2
:100750004FF00003FB814FF00003BB817B681B8CD3
:100760009BB223F480739AB27B681A847B681B8CDB
:10077000FB817B689B88BB817B689B8B7B817B89B2
:1007800023F070037B817B8923F003037B813B682B
:100790001A887B8913437B81FB8923F40073FB81D7
:1007A0003B681B894FEA03239AB2FB891343FB8101
:1007B0003B685B884FEA03239AB2FB891343FB81B2
:1007C0007A684FF43053C4F201039A4206D07A6833
:1007D0004FF45053C4F201039A422FD1FB8923F402
:1007E0000063FB813B685B894FEA03239AB2FB8974
:1007F0001343FB81FB8923F48063FB813B689B8867
:100800004FEA03239AB2FB891343FB81BB8923F48C
:100810008053BB81BB8923F40053BB813B689B8918
:100820004FEA03139AB2BB891343BB813B68DB8950
:100830004FEA03139AB2BB891343BB817B68BA8921
:100840009A807B687A899A833B68DA887B689A8782
:100850007B68FA891A8407F11407BD4680BC70478B
:1008600080B483B000AF78600B46FB70FB78002B40
:1008700008D07B681B889BB243F001039AB27B6867
:100880001A8007E07B681B889BB223F001039AB2B1
:100890007B681A8007F10C07BD4680BC704700BF1B
:1008A00080B483B000AF78600B46FB70FB78002B00
:1008B0000CD07B68B3F844309BB26FEA43436FEAD5
:1008C00053439AB27B68A3F844200BE07B68B3F8EB
:1008D00044309BB24FEA43434FEA53439AB27B689A
:1008E000A3F8442007F10C07BD4680BC704700BF49
:1008F00080B483B000AF786013460A467A807B707C
:100900007B78002B08D07B689B899AB27B88134345
:100910009AB27B689A810AE07B689B899AB27B884D
:100920006FEA03039BB213409AB27B689A8107F186
:100930000C07BD4680BC704780B483B000AF7860C0
:100940000B467B807B886FEA03039AB27B681A822E
:1009500007F10C07BD4680BC704700BF80B483B070
:1009600000AF78600B467B807B886FEA03039AB206
:100970007B681A8207F10C07BD4680BC704700BF38
:1009800080B582B000AF43F2B013C0F600037B60C5
:1009900040F20003C2F200033B600BE07B681A6880
:1009A0003B681A603B6803F104033B607B6803F11A
:1009B00004037B603A6840F20803C2F200039A42E3
:1009C000ECD3094809494FF000028842B8BF40F80B
:1009D000042BFFF6FAAF00F00FF801F037F907F13A
:1009E0000807BD4680BD0000080000208C000020E4
:1009F00080B400AFFEE700BF80B500AF4FF4805376
:100A0000C4F202034FF48052C4F20202126842F0B0
:100A100001021A604FF48052C4F202024FF4805374
:100A2000C4F2020359684FF00003CFF6FF030B40F6
:100A300053604FF48053C4F202034FF48052C4F267
:100A40000202126822F0847222F480321A604FF49B
:100A50008053C4F202034FF48052C4F202021268BF
:100A600022F480221A604FF48053C4F202034FF440
:100A70008052C4F20202526822F4FE025A604FF41D
:100A80008053C4F202034FF41F029A604FF4805364
:100A9000C4F202034FF00002DA6200F009F84FF4EA
:100AA0006D43CEF200034FF000629A6080BD00BF3C
:100AB00080B500AF00F002F880BD00BF80B483B005
:100AC00000AF4FF000037B604FF000033B604FF43A
:100AD0008053C4F202034FF48052C4F2020212683F
:100AE00042F480321A604FF48053C4F202031B6850
:100AF00003F400333B607B6803F101037B603B68D8
:100B0000002B03D17B68B3F5A06FECD14FF4805379
:100B1000C4F202031B6803F40033002B03D04FF030
:100B200001033B6002E04FF000033B603B68012B98
:100B30006DD14FF48053C4F202034FF48052C4F2DB
:100B4000020252685A604FF48053C4F202034FF419
:100B50008052C4F2020252685A604FF48053C4F2C9
:100B600002034FF48052C4F2020252685A604FF4FA
:100B70008053C4F202034FF48052C4F2020252685E
:100B800022F47C125A604FF48053C4F202034FF4F3
:100B90008052C4F20202526842F498125A604FF432
:100BA0008053C4F202034FF48052C4F2020212686E
:100BB00042F080721A6000BF4FF48053C4F2020307
:100BC0001B6803F00073002BF6D04FF48053C4F27F
:100BD00002034FF48052C4F20202526822F0030270
:100BE0005A604FF48053C4F202034FF48052C4F2AF
:100BF0000202526842F002025A6000BF4FF4805372
:100C0000C4F202035B6803F00C03082BF6D107F172
:100C10000C07BD4680BC704780B489B000AF7860D7
:100C200039604FF00003FB614FF000033B614FF070
:100C30000003BB614FF00003FB604FF000037B61DA
:100C40004FF00003BB603B68DB7803F00F03FB61F0
:100C50003B68DB7803F01003002B04D03B689B78E3
:100C6000FA691343FB613B681B88DBB2002B4ED053
:100C70007B681B687B614FF00003BB6141E0BB698F
:100C80004FF0010202FA03F3FB603B681B881A462F
:100C9000FB6813403B613A69FB689A422DD1BB69FE
:100CA0004FEA8303FB60FB684FF00F0202FA03F385
:100CB000BB60BB686FEA03037A6913407B61FB6822
:100CC000FA6902FA03F37A6913437B613B68DB78C4
:100CD000282B07D1BB694FF0010202FA03F27B68AF
:100CE0005A610AE03B68DB78482B06D1BB694FF0BC
:100CF000010202FA03F27B681A61BB6903F1010386
:100D0000BB61BB69072BBAD97B687A691A603B68FB
:100D10001B88FF2B53D97B685B687B614FF0000316
:100D2000BB6146E0BB6903F108034FF0010202FA20
:100D300003F3FB603B681B881A46FB6813403B616A
:100D40003A69FB689A4230D1BB694FEA8303FB6082
:100D5000FB684FF00F0202FA03F3BB60BB686FEA57
:100D600003037A6913407B61FB68FA6902FA03F3B3
:100D70007A6913437B613B68DB78282B08D1BB6918
:100D800003F108034FF0010202FA03F27B685A6193
:100D90003B68DB78482B08D1BB6903F108034FF0AF
:100DA000010202FA03F27B681A61BB6903F10103D5
:100DB000BB61BB69072BB5D97B687A695A6007F1BB
:100DC0002407BD4680BC704780B483B000AF786014
:100DD00013460A467A807B707B78002B03D07A8892
:100DE0007B681A6102E07A887B685A6107F10C0718
:100DF000BD4680BC704700BF80B487B000AF78604C
:100E00000B46FB704FF000033B614FF00003FB60AB
:100E10004FF000037B614FF00003BB607B68002B49
:100E200006DA4FF00003C4F20103DB697B6105E0E1
:100E30004FF00003C4F201035B687B617B6803F43D
:100E400070234FEA1343BB607B684FEA03434FEACA
:100E500013433B617B6803F44013B3F5401F10D18B
:100E60007B6923F070637B614FF00003C4F20103E0
:100E70004FF00002C4F20102526822F070625A6020
:100E800026E07B6803F48013002B10D0BB684FF082
:100E9000030202FA03F3FB60FB686FEA03037A695B
:100EA00013407B617B6943F070637B6110E07B687A
:100EB0004FEA53534FEA03133A6902FA03F36FEA16
:100EC00003037A6913407B617B6943F070637B6144
:100ED000FB78002B0AD07B684FEA53534FEA031389
:100EE0003A6902FA03F37A6913437B617B68002B4A
:100EF00006DA4FF00003C4F201037A69DA6105E013
:100F00004FF00003C4F201037A695A6007F11C072D
:100F1000BD4680BC704700BF80B584B000AFF860AC
:100F2000B9607A6040F20003C2F200031B68FA68FD
:100F300002FB03F34FF0640202FB03F24AF229437F
:100F4000C5F2F013A3FB02134FEA5343FB60BB68E7
:100F50004FF47A7202FB03F27B68B2FBF3F303F502
:100F60007A72FB6802FB03F3FB60FA6844F6D35322
:100F7000C1F26203A3FB02134FEA9313FB60F8680C
:100F800000F0C0F9F860FB689BB2184607F1100743
:100F9000BD4680BD80B584B000AFF860B9607A60AE
:100FA0003B6040F20003C2F200031B68FA6802FBD8
:100FB00003F34FF0640202FB03F24AF22943C5F245
:100FC000F013A3FB02034FEA5343FB607B684FF42B
:100FD0007A7202FB03F23B68B2FBF3F303F57A7219
:100FE000FB6802FB03F3FB60FA6844F6D353C1F2DB
:100FF0006203A3FB02134FEA9313FB60F86800F04F
:1010000081F9F860FA6841F25973CDF2B713A3FB86
:1010100002034FEA5333DBB203F13003DAB2BB68A9
:101020001A70BB681B781A464DF6F003CFF6FF73B3
:1010300003FB02F31A46FB68D31803F5EA2303F512
:101040004073FB60BB6803F10102F96844F6D353B7
:10105000C1F26203A3FB01034FEA9313DBB203F176
:101060003003DBB21370BB6803F101031B781A462F
:101070004FF61843CFF6FF7303FB02F31A46FB68E3
:10108000D31803F53B4303F18003FB60BB6803F116
:1010900002034FF02E021A70BB6803F10302F968D5
:1010A00048F21F53C5F2EB13A3FB01034FEA53139E
:1010B000DBB203F13003DBB21370BB6803F103034F
:1010C0001B786FF0630202FB03F31A46FB68D31828
:1010D00003F59653FB60BB6803F10402F9684CF614
:1010E000CD43CCF6CC43A3FB01034FEAD303DBB2E1
:1010F00003F13003DBB21370BB6803F105034FF05B
:1011000056021A70BB6803F106034FF000021A7012
:10111000BB68184607F11007BD4680BD80B584B096
:1011200000AF7860396040F20003C2F200031B6830
:101130007A6802FB03F240F20113C0F21003A3FB32
:101140000213D21A4FEA52029B184FEAD323FB60D4
:10115000FB683A68D31AFB603A6840F6D1139A42AA
:1011600014D1FB68B3F5167F10DDFB68A3F516728A
:1011700046F26763C6F2666383FB02134FEAA3017C
:101180004FEAE273CB1AFA68D318FB60FB68184683
:1011900000F0B8F80346FB60FB689BB2184607F105
:1011A0001007BD4680BD00BF80B586B000AFF860B7
:1011B000B9607A6040F20003C2F200031B68FA686B
:1011C00002FB03F240F20113C0F21003A3FB02037F
:1011D000D21A4FEA52029B184FEAD3237B617B69F4
:1011E0007A68D31A7B617A6840F6D1139A4214D197
:1011F0007B69B3F5167F10DD7B69A3F5167246F2A5
:101200006763C6F2666383FB02134FEAA3014FEAEA
:10121000E273CB1A7A69D3187B617B69184600F0B8
:1012200071F803467B617A6944F6D353C1F26203D5
:1012300083FB02034FEAA3114FEAE273CB1ADBB23E
:1012400003F13003DAB2BB681A70BB681B781A4628
:101250004FF61843CFF6FF7303FB02F303F53B434E
:1012600003F180037A69D3187B61BB6803F1010144
:101270007A6948F21F53C5F2EB1383FB02034FEA6E
:1012800063104FEAE273C31ADBB203F13003DBB23F
:101290000B70BB6803F101031B786FF0630202FB64
:1012A00003F303F596537A69D3187B61BB6803F1A6
:1012B00002034FF02E021A70BB6803F103017A6932
:1012C00046F26763C6F2666383FB02034FEAA3003C
:1012D0004FEAE273C31ADBB203F13003DBB20B70E7
:1012E000BB6803F104034FF041021A70BB6803F1BD
:1012F00005034FF000021A70BB68184607F1180783
:10130000BD4680BD80B48BB000AF786042F21073F0
:101310003B627B68FB614FF000037B6227E07A68E9
:101320003B6AB2FBF3F27B6A4FEA830307F12801C1
:10133000CB1843F8202C7B6A4FEA830307F128027D
:10134000D31853F8203C3A6A02FB03F37A68D31AA5
:101350007B603A6A4CF6CD43CCF6CC43A3FB021338
:101360004FEAD3033B627B6A03F101037B627B6A32
:10137000042BD4D9BB69042B03D9FB6903F1010306
:10138000FB61FB69184607F12C07BD4680BC70471E
:1013900080B483B000AF786003E07B6803F1FF3373
:1013A0007B607B68002BF8D107F10C07BD4680BC41
:1013B000704700BF80B582B000AF78604FF44060E6
:1013C000C4F201004FF480714FF00102FFF7FCFC02
:1013D0004FF48053C4F201034FF48052C4F201026F
:1013E000D1684FF60F720A40796801F0F001521887
:1013F000DA604FF44060C4F201004FF400714FF026
:101400000102FFF7E1FC4FF00A00FFF7C1FF4FF4C4
:101410004060C4F201004FF400714FF00002FFF78A
:10142000D3FC4FF48053C4F201034FF48052C4F252
:101430000102D1684FF60F720A4079684FEA011134
:10144000C9B25218DA604FF44060C4F201004FF4A0
:1014500000714FF00102FFF7B7FC4FF00A00FFF7F1
:1014600097FF4FF44060C4F201004FF400714FF059
:101470000002FFF7A9FC4FF44060C4F201004FF4F2
:1014800080714FF00002FFF79FFC4FF49670FFF75A
:101490007FFF07F10807BD4680BD00BF80B582B061
:1014A00000AF78604FF44060C4F201004FF48071E7
:1014B0004FF00002FFF788FC4FF48053C4F20103A1
:1014C0004FF48052C4F20102D1684FF60F720A4005
:1014D000796801F0F0015218DA604FF44060C4F20C
:1014E00001004FF400714FF00102FFF76DFC4FF067
:1014F0000A00FFF74DFF4FF44060C4F201004FF4C3
:1015000000714FF00002FFF75FFC4FF48053C4F20C
:1015100001034FF48052C4F20102D1684FF60F72FA
:101520000A4079684FEA0111C9B25218DA604FF4E3
:101530004060C4F201004FF400714FF00102FFF768
:1015400043FC4FF00A00FFF723FF4FF44060C4F262
:1015500001004FF400714FF00002FFF735FC4FF42B
:101560009670FFF715FF07F10807BD4680BD00BF65
:1015700080B584B000AF02460B46FA71BB71BB79EF
:1015800003F1FF33DBB24FEA8313DAB2FB79D318EE
:10159000DBB203F1FF33FB73FB7B03F180031846DF
:1015A000FFF77CFF07F11007BD4680BD80B500AF97
:1015B00049F2E030C0F20400FFF7EAFE4FF4406069
:1015C000C4F201004FF480714FF00002FFF7FCFB02
:1015D0004FF44060C4F201004FF400714FF001027B
:1015E000FFF7F2FB4FF48053C4F201034FF4805233
:1015F000C4F20102D1684FF60F720A4002F12002D4
:10160000DA604FF44060C4F201004FF400714FF013
:101610000002FFF7D9FB4FF49670FFF7B9FE4FF0C9
:101620002C00FFF73BFF4FF00C00FFF737FF4FF0A8
:101630000600FFF733FF4FF00100FFF72FFF80BDDB
:1016400080B582B000AF0346FB71FB791846FFF707
:10165000B1FE07F10807BD4680BD00BF80B582B06E
:1016600000AF786008E07B681B787A6802F10102BD
:101670007A601846FFF7E4FF7B681B78002BF2D1F5
:1016800007F10807BD4680BD80B500AF4FF00100EF
:1016900001F078FC4FF0010001F054FC01F000F87B
:1016A0004FF0010001F050F84FF0000001F0C0F8D9
:1016B0004FF0000001F0DCF84FF0000001F0F8F806
:1016C0004FF4004001F016F94FF000004FF4801184
:1016D00001F04AF84FF0010001F06AF800BF4FF046
:1016E000390001F0F9F90346002BF8D04FF0020061
:1016F00001F06EF800BF01F08BF80346082BFAD119
:1017000080BD00BF80B588B000AF4FF030004FF013
:10171000010101F063F94FF400604FF0010101F0A5
:1017200033F94FF036033B704FF00103BB704FF0BD
:101730000103FB703B46184601F0A2FC4FF0370353
:101740003B704FF00003BB704FF00103FB703B4652
:10175000184601F095FC4FF43050C4F20100FEF73A
:10176000E1FC40F6B7333B834FF00703BB824FF0F9
:1017700000037B834FF00003FB8207F114034FF457
:101780003050C4F201001946FEF724FE4FF060030A
:10179000BB804FF00103FB804FF000037B814FF0D3
:1017A0000003BB8107F104034FF43050C4F2010081
:1017B0001946FEF79DFE07F104034FF43050C4F2C2
:1017C00001001946FEF728FF07F104034FF43050DB
:1017D000C4F201001946FEF7B3FF4FF43050C4F2D3
:1017E00001004FF00101FFF73BF84FF43050C4F215
:1017F00001004FF00101FFF753F84FF00A033B835C
:1018000040F65F13BB824FF000037B834FF0000371
:10181000FB8207F114034FF48050C4F20000194614
:10182000FEF7D8FD4FF48050C4F200004FF00101E4
:10183000FFF782F84FF48050C4F200004FF001012E
:101840004FF00102FFF754F84FF48050C4F200004B
:101850004FF00101FFF704F84FF002033B8345F618
:10186000BF53BB824FF000037B834FF00003FB822A
:1018700007F114034FF4A050C4F200001946FEF71C
:10188000A9FD4FF4A050C4F200004FF00101FFF792
:1018900053F84FF4A050C4F200004FF001014FF094
:1018A0000102FFF725F84FF4A050C4F200004FF0FA
:1018B0000101FEF7D5FF07F12007BD4680BD00BF3F
:1018C00080B586B000AF4FF41050C4F2010001F0B3
:1018D0004BF94FF400704FF0010101F055F84FF053
:1018E00001037B724FF000033B614FF46023FB6008
:1018F0004FF000037B604FF00C033B754FF001038A
:101900003B7207F104034FF41050C4F20100194672
:1019100001F06EF94FF41050C4F201004FF00A01CB
:101920004FF001024FF0070301F02EFA4FF4105070
:10193000C4F201004FF00B014FF002024FF0070319
:1019400001F022FA4FF41050C4F201004FF00C01E4
:101950004FF003024FF0070301F016FA4FF4105056
:10196000C4F201004FF000014FF004024FF00703F2
:1019700001F00AFA4FF41050C4F201004FF00101D7
:101980004FF005024FF0070301F0FEF94FF410503D
:10199000C4F201004FF002014FF006024FF00703BE
:1019A00001F0F2F94FF41050C4F201004FF00301BE
:1019B0004FF007024FF0070301F0E6F94FF4105023
:1019C000C4F201004FF004014FF008024FF007038A
:1019D00001F0DAF94FF41050C4F201004FF00501A4
:1019E0004FF009024FF0070301F0CEF94FF4105009
:1019F000C4F201004FF006014FF00A024FF0070356
:101A000001F0C2F94FF41050C4F201004FF0070189
:101A10004FF00B024FF0070301F0B6F94FF41050EE
:101A2000C4F201004FF00D014FF00C024FF007031C
:101A300001F0AAF94FF41050C4F201004FF0010177
:101A400001F02EF94FF41050C4F201004FF00101E3
:101A500001F042F94FF41050C4F2010001F058F9BE
:101A60004FF41050C4F2010001F062F94FF410502D
:101A7000C4F201004FF0010101F06AF907F1180703
:101A8000BD4680BD80B58CB000AF4FF001004FF077
:101A9000010100F04FFF4FF00C033B614FF00003DA
:101AA000FB604FF00003FB6240F20803C2F2000348
:101AB000BB604FF480633B624FF08003BB614FF02B
:101AC00020037B6242F24C43C4F201037B604FF47B
:101AD0008073FB614FF000037B614FF40053BB62E6
:101AE00007F104034FF00800C4F20200194601F0A8
:101AF0006BFA4FF00800C4F202004FF0010101F050
:101B0000A3FA07F13007BD4680BD00BF80B582B0A3
:101B100000AF4FF01D004FF0010100F035FF4FF412
:101B20000070C0F230004FF00101FFF765F94FF48B
:101B30004060C0F21A004FF00101FFF75DF94FF469
:101B4000E063BB804FF00303BB714FF01803FB71E0
:101B500007F104034FF40060C4F201001946FFF7D7
:101B60005BF84FF00F03BB804FF00003FB714FF0A9
:101B70000303BB7107F104034FF48050C4F201006A
:101B80001946FFF749F84FF0FF03BB804FF0000301
:101B9000FB714FF00303BB7107F104034FF40060C6
:101BA000C4F201001946FFF737F84FF00303BB7189
:101BB0004FF01003FB714FF44073BB8007F1040337
:101BC0004FF44060C4F201001946FFF725F84FF0CA
:101BD0000303BB714FF01003FB714FF0F003BB80A8
:101BE00007F104034FF48050C4F201001946FFF7D7
:101BF00013F84FF02803BB804FF04803FB7107F147
:101C000004034FF44060C4F201001946FFF704F8E2
:101C10004FF04003BB804FF01003FB7107F104034A
:101C20004FF44060C4F201001946FEF7F5FF4FF48F
:101C30004060C4F201004FF040014FF00102FFF795
:101C4000C3F807F10807BD4680BD00BF80B500AFEF
:101C5000FFF71AFDFFF75AFFFFF7A8FCFFF730FE6A
:101C6000FFF710FFFFF74EFD40F25C03C2F20003E6
:101C700040F637421A6040F27403C2F200034FF09C
:101C800000021A8040F24403C2F2000340F63342DD
:101C90001A6040F27C03C2F200034FF000021A8087
:101CA00040F28403C2F2000340F62E421A6040F272
:101CB0005803C2F200034FF000021A804FF4406351
:101CC000C4F201039B6803F00803002B40F0E2809C
:101CD00040F20403C2F200031B78012B1BD140F237
:101CE0005C03C2F200031B68184640F6D811FFF7E8
:101CF00015FA03461A4640F2E7339A420BD840F2EF
:101D00005C03C2F200031B68A3F10C0240F25C0307
:101D1000C2F200031A6040F20403C2F200031B780F
:101D2000022B1BD140F24403C2F200031B68184689
:101D300040F6D511FFF7F2F903461A4640F2BB23ED
:101D40009A420BD840F24403C2F200031B68A3F18D
:101D50000C0240F24403C2F200031A6040F2040392
:101D6000C2F200031B78032B22D140F28403C2F29B
:101D700000031B68184640F6D111FFF7CFF9034660
:101D80001A4640F2DB539A420BD840F28403C2F267
:101D900000031B68A3F10C0240F28403C2F20003AB
:101DA0001A6040F20403C2F200034FF000021A70FE
:101DB00040F20403C2F200031B78042B5DD14FF004
:101DC0000100FFF76BFB48F2A060C0F20100FFF7D3
:101DD000DFFA4FF44060C4F201004FF040014FF0D1
:101DE0000002FEF7F1FF4FF001004FF00101FFF795
:101DF000BFFB48F2A060C0F20100FFF7C9FA43F24E
:101E00006810C0F60000FFF729FC4FF00A00FFF74A
:101E1000BFFA00BF40F20803C2F20003DB8A184693
:101E200043F6982143F69822FFF776F803461A46C0
:101E300040F69F739A42EDD94FF001004FF0020136
:101E4000FFF796FB4FF00A00FFF7A2FA43F280106B
:101E5000C0F60000FFF702FC4AF22010C0F20700B3
:101E6000FFF796FA4FF00100FFF718FB40F204036A
:101E7000C2F200034FF000021A7040F20403C2F2F3
:101E800000031B7803F10103DAB240F20403C2F24B
:101E900000031A704FF44063C4F201039B6803F01F
:101EA0002003002B40F08E8040F20403C2F20003B6
:101EB0001B78042B00F0868040F25C03C2F2000322
:101EC00040F637421A6040F27403C2F200034FF04A
:101ED00000021A8040F24403C2F2000340F633428B
:101EE0001A6040F27C03C2F200034FF000021A8035
:101EF00040F28403C2F2000340F62E421A6040F220
:101F00005803C2F200034FF000021A8040F20403AB
:101F1000C2F200034FF004021A704FF00100FFF705
:101F2000BDFA48F2A060C0F20100FFF731FA4FF4A9
:101F30004060C4F201004FF040014FF00102FEF793
:101F400043FF4FF001004FF00101FFF711FB48F292
:101F5000A060C0F20100FFF71BFA43F26810C0F660
:101F60000000FFF77BFB4FF00A00FFF711FA00BFFC
:101F700040F20803C2F20003DB8A184643F69821B8
:101F800043F69822FEF7C8FF0346B3F57A7FEFD8F1
:101F90004FF001004FF00201FFF7EAFA4FF00A009C
:101FA000FFF7F6F943F29810C0F60000FFF756FB72
:101FB0004AF22010C0F20700FFF7EAF94FF00100E3
:101FC000FFF76CFA4FF001004FF00101FFF7D0FA74
:101FD00040F27003C2F200031B68184640F2600131
:101FE000C2F2000140F6D812FFF7DEF803461846A9
:101FF000FFF734FB4FF008004FF00101FFF7B8FA8C
:1020000040F24C03C2F200031B68184640F2600124
:10201000C2F2000140F6D512FFF7C6F80346184693
:10202000FFF71CFB4FF00F004FF00101FFF7A0FA84
:1020300040F22C03C2F200031B68184640F2600114
:10204000C2F2000140F6D112FFF7AEF8034618467F
:10205000FFF704FB4FF001004FF00201FFF788FA91
:1020600040F24803C2F200031B68184640F26001C8
:10207000C2F2000143F6662243F6AC23FEF78AFF64
:1020800003461846FFF7EAFA4FF008004FF0020146
:10209000FFF76EFA40F28003C2F200031B68184695
:1020A00040F26001C2F2000143F6A22241F656530B
:1020B000FEF770FF03461846FFF7D0FA4FF00F0007
:1020C0004FF00201FFF754FA40F23803C2F2000366
:1020D0001B68184640F26001C2F2000143F68E22EE
:1020E00040F60663FEF756FF03461846FFF7B6FABA
:1020F0004CF25030FFF74CF9E0E500BF80B483B0FC
:1021000000AF78607B68002B02DA4FF001030CE02F
:102110007B68002B02D14FF0000306E07B68002BA8
:1021200002DD4FF0FF3300E0FFE7184607F10C0730
:10213000BD4680BC704700BF80B400AF4FF4305341
:10214000C4F2010340F27402C2F2000212889A86BD
:102150004FF43053C4F2010340F27C02C2F2000299
:1021600012881A874FF43053C4F2010340F2580228
:10217000C2F2000212889A87BD4680BC704700BF39
:1021800080B500AF4FF48050C4F200004FF0010161
:10219000FEF7E4FB40F25C03C2F200031A6840F66B
:1021A00025439A4247D840F20803C2F200039B88B5
:1021B0001A4640F25C03C2F200031B68D31A1846A9
:1021C000FFF79CFF0346002B30D0012B19D0B3F151
:1021D000FF3F30D140F27403C2F200031A8840F688
:1021E000B7339A4224D040F27403C2F200031B8832
:1021F00003F101039AB240F27403C2F200031A80A1
:1022000016E040F27403C2F200031B88002B11D0C9
:1022100040F27403C2F200031B8803F1FF339AB249
:1022200040F27403C2F200031A8003E000BF02E030
:1022300000BF00E000BF40F24403C2F200031A688E
:1022400040F625439A4247D840F20803C2F2000301
:102250005B881A4640F24403C2F200031B68D31A9B
:102260001846FFF74BFF0346002B30D0012B19D047
:10227000B3F1FF3F30D140F27C03C2F200031A8871
:1022800040F6B7339A4224D040F27C03C2F20003F6
:102290001B8803F101039AB240F27C03C2F20003EF
:1022A0001A8016E040F27C03C2F200031B88002B68
:1022B00011D040F27C03C2F200031B8803F1FF330C
:1022C0009AB240F27C03C2F200031A8003E000BF1E
:1022D00002E000BF00E000BF40F28403C2F200034E
:1022E0001A6840F61B439A4247D840F20803C2F2EC
:1022F00000031B881A4640F28403C2F200031B68E5
:10230000D31A1846FFF7FAFE0346002B30D0012BF4
:1023100019D0B3F1FF3F30D140F25803C2F20003AD
:102320001A8840F6B7339A4224D040F25803C2F2DA
:1023300000031B8803F101039AB240F25803C2F272
:1023400000031A8016E040F25803C2F200031B8813
:10235000002B11D040F25803C2F200031B8803F196
:10236000FF339AB240F25803C2F200031A8003E02E
:1023700000BF02E000BF00E000BFFFF7DDFE80BD50
:1023800080B500AF4FF4A050C4F200004FF001013F
:10239000FEF7E4FA40F20803C2F200031B8A1A4671
:1023A00040F23C03C2F200031B68D21840F23C0327
:1023B000C2F200031A6040F20803C2F20003DB8994
:1023C0001A4640F28803C2F200031B68D21840F29A
:1023D0008803C2F200031A6040F20803C2F200034D
:1023E0009B891A4640F23003C2F200031B68D218E0
:1023F00040F23003C2F200031A6040F20803C2F256
:1024000000035B8A1A4640F25003C2F200031B68C5
:10241000D21840F25003C2F200031A6040F20803DF
:10242000C2F200039B8A1A4640F26C03C2F2000318
:102430001B68D21840F26C03C2F200031A6040F22B
:102440002403C2F200031B6803F1010240F22403DB
:10245000C2F200031A6040F22403C2F200031B68B8
:10246000642B40F0848040F22403C2F200034FF05A
:1024700000021A6040F23C03C2F200031A6848F2FC
:102480001F53C5F2EB13A3FB02134FEA531240F2A2
:102490004803C2F200031A6040F28803C2F200034C
:1024A0001A6848F21F53C5F2EB13A3FB02134FEA5D
:1024B000531240F28003C2F200031A6040F230036C
:1024C000C2F200031A6848F21F53C5F2EB13A3FBD4
:1024D00002134FEA531240F23803C2F200031A60AB
:1024E00040F25003C2F200031A6848F21F53C5F2CB
:1024F000EB13A3FB02134FEA531240F27803C2F22C
:1025000000031A6040F26C03C2F200031A6848F23A
:102510001F53C5F2EB13A3FB02134FEA531240F211
:102520003403C2F200031A6040F23C03C2F200031B
:102530004FF000021A6040F28803C2F200034FF02D
:1025400000021A6040F23003C2F200034FF00002B2
:102550001A6040F25003C2F200034FF000021A600A
:1025600040F26C03C2F200034FF000021A6040F226
:102570000803C2F200039B881A4640F24003C2F2ED
:1025800000031B68D21840F24003C2F200031A6035
:1025900040F20803C2F200035B881A4640F22803A7
:1025A000C2F200031B68D21840F22803C2F20003F3
:1025B0001A6040F20803C2F200031B881A4640F278
:1025C0005403C2F200031B68D21840F25403C2F253
:1025D00000031A6040F22003C2F200031B6803F1FB
:1025E000010240F22003C2F200031A6040F220030D
:1025F000C2F200031B68642B51D140F22003C2F2E7
:1026000000034FF000021A6040F24003C2F20003E0
:102610001A6848F21F53C5F2EB13A3FB02134FEAEB
:10262000531240F27003C2F200031A6040F2280312
:10263000C2F200031A6848F21F53C5F2EB13A3FB62
:1026400002134FEA531240F24C03C2F200031A6025
:1026500040F25403C2F200031A6848F21F53C5F255
:10266000EB13A3FB02134FEA531240F22C03C2F206
:1026700000031A6040F24003C2F200034FF0000270
:102680001A6040F22803C2F200034FF000021A6001
:1026900040F25403C2F200034FF000021A6080BD02
:1026A00080B400AF4FF48053C4F202034FF4805261
:1026B000C4F20202126842F001021A604FF4805222
:1026C000C4F202024FF48053C4F2020359684FF07F
:1026D0000003CFF6FF030B4053604FF48053C4F266
:1026E00002034FF48052C4F20202126822F0847294
:1026F00022F480321A604FF48053C4F202034FF484
:102700008052C4F20202126822F480221A604FF44E
:102710008053C4F202034FF48052C4F202025268A2
:1027200022F4FE025A604FF48053C4F202034FF4C5
:102730001F029A604FF48053C4F202034FF000026C
:10274000DA62BD4680BC704780B483B000AF0346F8
:10275000FB714FF00003C4F24223FA791A6007F1CB
:102760000C07BD4680BC704780B485B000AF786070
:1027700039604FF00003FB604FF48053C4F2020352
:102780005B68FB60FB6823F47413FB607A683B684A
:102790001343FA681343FB604FF48053C4F20203FF
:1027A000FA685A6007F11407BD4680BC704700BF45
:1027B00080B483B000AF0346FB714FF06003C4F2F6
:1027C0004223FA791A6007F10C07BD4680BC7047B6
:1027D00080B485B000AF78604FF00003FB604FF429
:1027E0008053C4F202035B68FB60FB6823F00303C1
:1027F000FB60FA687B681343FB604FF48053C4F2BC
:102800000203FA685A6007F11407BD4680BC70479E
:1028100080B400AF4FF48053C4F202035B68DBB2B4
:1028200003F00C03DBB21846BD4680BC704700BF06
:1028300080B485B000AF78604FF00003FB604FF4C8
:102840008053C4F202035B68FB60FB6823F0F00373
:10285000FB60FA687B681343FB604FF48053C4F25B
:102860000203FA685A6007F11407BD4680BC70473E
:1028700080B485B000AF78604FF00003FB604FF488
:102880008053C4F202035B68FB60FB6823F4E063DF
:10289000FB60FA687B681343FB604FF48053C4F21B
:1028A0000203FA685A6007F11407BD4680BC7047FE
:1028B00080B485B000AF78604FF00003FB604FF448
:1028C0008053C4F202035B68FB60FB6823F460532F
:1028D000FB607B684FEAC303FA681343FB604FF465
:1028E0008053C4F20203FA685A6007F11407BD4628
:1028F00080BC704780B485B000AF78604FF00003B3
:10290000FB604FF48053C4F202035B68FB60FB681A
:1029100023F44043FB60FA687B681343FB604FF489
:102920008053C4F20203FA685A6007F11407BD46E7
:1029300080BC704780B483B000AF78600B46FB70FA
:10294000FB78002B0CD04FF48053C4F202034FF4F9
:102950008052C4F2020251697A680A435A610DE05A
:102960004FF48053C4F202034FF48052C4F20202C7
:1029700051697A686FEA02020A405A6107F10C074E
:10298000BD4680BC704700BF80B483B000AF7860A4
:102990000B46FB70FB78002B0CD04FF48053C4F235
:1029A00002034FF48052C4F2020291697A680A432A
:1029B0009A610DE04FF48053C4F202034FF4805249
:1029C000C4F2020291697A686FEA02020A409A61CF
:1029D00007F10C07BD4680BC704700BF80B483B0D0
:1029E00000AF78600B46FB70FB78002B0CD04FF4E7
:1029F0008053C4F202034FF48052C4F20202D16940
:102A00007A680A43DA610DE04FF48053C4F202039E
:102A10004FF48052C4F20202D1697A686FEA02026E
:102A20000A40DA6107F10C07BD4680BC704700BF61
:102A300080B483B000AF78600B46FB70FB78002B4E
:102A40000CD04FF48053C4F202034FF48052C4F20E
:102A50000202D1687A680A43DA600DE04FF48053CD
:102A6000C4F202034FF48052C4F20202D1687A68C1
:102A70006FEA02020A40DA6007F10C07BD4680BC2B
:102A8000704700BF80B483B000AF78600B46FB7026
:102A9000FB78002B0CD04FF48053C4F202034FF4A8
:102AA0008052C4F2020211697A680A431A610DE089
:102AB0004FF48053C4F202034FF48052C4F2020276
:102AC00011697A686FEA02020A401A6107F10C077D
:102AD000BD4680BC704700BF80B487B000AF0346DE
:102AE000FB714FF00003FB604FF000037B614FF080
:102AF0000003FB74FB794FEA5313DBB2FB60FB6806
:102B0000012B06D14FF48053C4F202031B687B6192
:102B10000FE0FB68022B06D14FF48053C4F202038E
:102B20001B6A7B6105E04FF48053C4F202035B6AC9
:102B30007B61FB7903F01F03FB60FB687A6922FA73
:102B400003F303F00103002B03D04FF00103FB74E8
:102B500002E04FF00003FB74FB7C184607F11C07F2
:102B6000BD4680BC704700BF80B582B000AF7860C2
:102B70007A684FF41053C4F201039A420CD14FF417
:102B800000704FF00101FFF753FF4FF400704FF05A
:102B90000001FFF74DFF26E07A684FF42053C4F29E
:102BA00001039A420CD14FF480604FF00101FFF70E
:102BB0003FFF4FF480604FF00001FFF739FF12E054
:102BC0007A684FF47053C4F201039A420BD14FF468
:102BD00000404FF00101FFF72BFF4FF400404FF092
:102BE0000001FFF725FF07F10807BD4680BD00BFC4
:102BF00080B485B000AF786039604FF00003FB60AF
:102C00004FF00003FB727B685B68FB60FB6823F49A
:102C1000702323F48073FB603B681A683B681B7960
:102C20004FEA03231343FA681343FB607B68FA6897
:102C30005A607B689B68FB60FA684FF2FD73CFF6C1
:102C4000F1731340FB603B68DA683B689B681A438A
:102C50003B685B794FEA43031343FA681343FB6015
:102C60007B68FA689A607B68DB6AFB60FB6823F428
:102C70007003FB603B681B7C03F1FF33DAB2FB7A25
:102C80001343FB72FB7A4FEA0353FA681343FB606A
:102C90007B68FA68DA6207F11407BD4680BC7047AA
:102CA00080B483B000AF78600B46FB70FB78002BDC
:102CB00006D07B689B6843F001027B689A6005E060
:102CC0007B689B6823F001027B689A6007F10C0720
:102CD000BD4680BC704700BF80B483B000AF786051
:102CE0000B46FB70FB78002B06D07B689B6843F497
:102CF00080727B689A6005E07B689B6823F4807231
:102D00007B689A6007F10C07BD4680BC704700BF26
:102D100080B483B000AF78607B689B6843F00802A2
:102D20007B689A6007F10C07BD4680BC704700BF06
:102D300080B483B000AF78607B689B6843F0040286
:102D40007B689A6007F10C07BD4680BC704700BFE6
:102D500080B483B000AF78600B46FB70FB78002B2B
:102D600006D07B689B6843F4A0027B689A6005E00C
:102D70007B689B6823F4A0027B689A6007F10C07CC
:102D8000BD4680BC704700BF80B485B000AF78609E
:102D9000F970BA707B704FF00003FB604FF00003D6
:102DA000BB60FB78092B27D97B68DB68FB60FA786E
:102DB00013464FEA43039B18A3F11E034FF007028B
:102DC00002FA03F3BB60BB686FEA0303FA681340BF
:102DD000FB607978FA7813464FEA43039B18A3F116
:102DE0001E0301FA03F3BB60FA68BB681343FB6080
:102DF0007B68FA68DA6022E07B681B69FB60FA781E
:102E000013464FEA43039B184FF0070202FA03F3FD
:102E1000BB60BB686FEA0303FA681340FB60797814
:102E2000FA7813464FEA43039B1801FA03F3BB6099
:102E3000FA68BB681343FB607B68FA681A61BB7869
:102E4000062B27D87B685B6BFB60BB7803F1FF32F6
:102E500013464FEA83039B184FF01F0202FA03F355
:102E6000BB60BB686FEA0303FA681340FB60F97844
:102E7000BB7803F1FF3213464FEA83039B1801FA34
:102E800003F3BB60FA68BB681343FB607B68FA68B6
:102E90005A6351E0BB780C2B27D87B681B6BFB6017
:102EA000BA7813464FEA83039B18A3F123034FF02C
:102EB0001F0202FA03F3BB60BB686FEA0303FA6800
:102EC0001340FB60F978BA7813464FEA83039B18E6
:102ED000A3F1230301FA03F3BB60FA68BB68134351
:102EE000FB607B68FA681A6326E07B68DB6AFB603C
:102EF000BA7813464FEA83039B18A3F141034FF0BE
:102F00001F0202FA03F3BB60BB686FEA0303FA68AF
:102F10001340FB60F978BA7813464FEA83039B1895
:102F2000A3F1410301FA03F3BB60FA68BB681343E2
:102F3000FB607B68FA68DA6207F11407BD4680BC63
:102F4000704700BF80B485B000AF78604FF00003D9
:102F5000FB604FF40053C4F202031B68FB60FB6884
:102F600003F03803FB60FA687B681343FB604FF49F
:102F70000053C4F20203FA681A6007F11407BD4651
:102F800080BC704780B483B000AF78604FF40053CA
:102F9000C4F202034FF40052C4F20202126822F09B
:102FA00010021A604FF40053C4F202034FF40052AF
:102FB000C4F2020211687A680A431A6007F10C072A
:102FC000BD4680BC704700BF80B485B000AF78605C
:102FD00039604FF00003FB607B681B68FB60FB6897
:102FE00023F4FF4323F07003FB603B689A683B685F
:102FF0001B6A1A433B681B691A433B685B691A43A7
:103000003B689B691A433B68DB691A433B685B6A10
:103010001A433B689B6A1343FA681343FB607B685F
:10302000FA681A603B68DA687B685A603B681A681D
:103030007B689A603B685A687B68DA6007F114071E
:10304000BD4680BC704700BF80B483B000AF7860DD
:103050000B46FB70FB78002B06D07B681B6843F0A7
:1030600001027B681A6006E07B681A684FF6FE73FF
:1030700013407A68136007F10C07BD4680BC7047A7
:1030800080B487B000AF78604FF000037B614FF0F1
:1030900000033B614FF00F03FB607B68DB78002B84
:1030A00047D04FF46D43CEF20003DB686FEA0303B1
:1030B00003F4E0634FEA13237B617B69C3F10403EC
:1030C0003B617B69FA6822FA03F3FB607B685B78FB
:1030D0001A463B6902FA03F37B617B689B781A46C8
:1030E000FB6813407A6913437B617B694FEA0313E2
:1030F0007B614FF46143CEF200037A681278114687
:103100007A69D2B25B1883F800234FF46143CEF2A0
:1031100000037A6812784FEA5212D2B279680978BD
:1031200001F01F014FF0010000FA01F143F82210F5
:1031300014E04FF46143CEF200037A6812784FEA4C
:103140005212D2B27968097801F01F014FF00100E4
:1031500000FA01F102F1200243F8221007F11C07E6
:10316000BD4680BC704700BF57616974696E6720B7
:10317000506F776572476F6F642E2E2E000000002F
:103180004F4B2E2041545831325620737461727463
:1031900065642121000000004F4B2E20415458311E
:1031A00032562073746F7070656421210000000036
:0831B000E40C00000400000023
:0400000508000000EF
:00000001FF
