:020000040800F2
:10000000C404002081090008F1090008F109000872
:10001000F1090008F1090008F109000800000000DA
:10002000000000000000000000000000F1090008CE
:10003000F109000800000000F1090008F1090008BA
:10004000F1090008F1090008F1090008F1090008A8
:10005000F1090008F1090008F1090008F109000898
:10006000F1090008F1090008F1090008F109000888
:10007000F1090008F1090008F1090008F109000878
:10008000F1090008F1090008F1090008000000006A
:10009000000000000000000000000000F10900085E
:1000A000F1090008F1090008F1090008F109000848
:1000B000D9310008F1090008F1090008F109000828
:1000C000F1090008F1090008F1090008F109000828
:1000D000F1090008F1090008F1090008F109000818
:1000E000F1090008F1090008F1090008000000000A
:1000F0000000000000000000000000000000000000
:1001000000000000000000000000000000000000EF
:100110000000000000000000112C0008C12C0008A5
:100120005FF808F180B582B000AF78607A684FF46C
:100130003053C4F201039A420CD14FF400604FF0E7
:10014000010103F0EDFA4FF400604FF0000103F0FD
:10015000E7FA3BE17B68B3F1804F0CD14FF001002F
:100160004FF0010103F006FB4FF001004FF00001DA
:1001700003F000FB2AE17A684FF48063C4F20003C5
:100180009A420CD14FF002004FF0010103F0F2FA55
:100190004FF002004FF0000103F0ECFA16E17A682C
:1001A0004FF40063C4F200039A420CD14FF00400F4
:1001B0004FF0010103F0DEFA4FF004004FF00001B0
:1001C00003F0D8FA02E17A684FF44063C4F2000306
:1001D0009A420CD14FF008004FF0010103F0CAFA27
:1001E0004FF008004FF0000103F0C4FAEEE07A6827
:1001F0004FF48053C4F200039A420CD14FF0100028
:100200004FF0010103F0B6FA4FF010004FF000017B
:1002100003F0B0FADAE07A684FF4A053C4F20003B6
:100220009A420CD14FF020004FF0010103F0A2FAE6
:100230004FF020004FF0000103F09CFAC6E07A680E
:100240004FF45053C4F201039A420CD14FF40050C2
:100250004FF0010103F064FA4FF400504FF0000139
:1002600003F05EFAB2E07A684FF49843C4F20103F7
:100270009A420CD14FF400204FF0010103F050FAE4
:100280004FF400204FF0000103F04AFA9EE07A6834
:100290004FF4A043C4F201039A420CD14FF48010F2
:1002A0004FF0010103F03CFA4FF480104FF00001D1
:1002B00003F036FA8AE07A684FF4A843C4F20103E7
:1002C0009A420CD14FF400104FF0010103F028FACC
:1002D0004FF400104FF0000103F022FA76E07A6844
:1002E0004FF4C053C4F200039A420CD14FF04000C7
:1002F0004FF0010103F03EFA4FF040004FF00001D3
:1003000003F038FA62E07A684FF4E053C4F2000375
:100310009A420CD14FF080004FF0010103F02AFA0D
:100320004FF080004FF0000103F024FA4EE07A68AD
:100330004FF40053C4F200039A420CD14FF4807082
:100340004FF0010103F016FA4FF480704FF00001F6
:1003500003F010FA3AE07A684FF48043C4F20103E4
:100360009A420CD14FF480304FF0010103F0D8F9DC
:100370004FF480304FF0000103F0D2F926E07A68A4
:100380004FF48843C4F201039A420CD14FF4003079
:100390004FF0010103F0C4F94FF400304FF00001B9
:1003A00003F0BEF912E07A684FF49043C4F20103FF
:1003B0009A420BD14FF480204FF0010103F0B0F9C5
:1003C0004FF480204FF0000103F0AAF907F108076D
:1003D000BD4680BD80B485B000AF786039604FF015
:1003E0000003FB817B681B88FB817A684FF43053E4
:1003F000C4F201039A421FD07A684FF45053C4F2FA
:1004000001039A4218D07B68B3F1804F14D07A6808
:100410004FF48063C4F200039A420DD07A684FF41F
:100420000063C4F200039A4206D07A684FF4406336
:10043000C4F200039A4208D1FB8923F07003FB81C8
:100440003B685A88FB891343FB817A684FF48053D9
:10045000C4F200039A420FD07A684FF4A053C4F25A
:1004600000039A4208D0FB8923F44073FB813B6868
:10047000DA88FB891343FB817B68FA891A803B6821
:100480009A887B689A853B681A887B681A857A689F
:100490004FF43053C4F201039A421BD07A684FF4F0
:1004A0005053C4F201039A4214D07A684FF4804347
:1004B000C4F201039A420DD07A684FF48843C4F223
:1004C00001039A4206D07A684FF49043C4F20103C4
:1004D0009A4204D13B681B7A1A467B681A867B686D
:1004E0004FF001029A8207F11407BD4680BC7047A5
:1004F00080B485B000AF786039604FF000037B8135
:100500004FF00003FB814FF00003BB817B681B8C25
:100510009BB223F001039AB27B681A847B681B8C20
:10052000FB817B689B88BB817B681B8B7B817B8984
:1005300023F070037B817B8923F003037B813B687D
:100540001A887B8913437B81FB8923F00203FB819B
:100550003B681A89FB891343FB813B685A88FB89F6
:100560001343FB817A684FF43053C4F201039A427B
:100570001BD07A684FF45053C4F201039A4214D04E
:100580007A684FF48043C4F201039A420DD07A682E
:100590004FF48843C4F201039A4206D07A684FF4BC
:1005A0009043C4F201039A4223D1FB8923F008034C
:1005B000FB813B685A89FB891343FB81FB8923F04C
:1005C0000403FB813B689A88FB891343FB81BB8949
:1005D00023F48073BB81BB8923F40073BB813B6828
:1005E0009A89BB891343BB813B68DA89BB89134372
:1005F000BB817B68BA899A807B687A891A833B6859
:10060000DA887B689A867B68FA891A8407F114076E
:10061000BD4680BC704700BF80B485B000AF786035
:1006200039604FF000037B814FF00003FB814FF0F6
:100630000003BB817B681B8C9BB223F010039AB232
:100640007B681A847B681B8CFB817B689B88BB81E1
:100650007B681B8B7B817B8923F4E0437B817B89D7
:1006600023F440737B813B681B884FEA03239AB2D3
:100670007B8913437B81FB8923F02003FB813B684B
:100680001B894FEA03139AB2FB891343FB813B6832
:100690005B884FEA03139AB2FB891343FB817A68A4
:1006A0004FF43053C4F201039A4206D07A684FF4F3
:1006B0005053C4F201039A422FD1FB8923F08003E7
:1006C000FB813B685B894FEA03139AB2FB891343B2
:1006D000FB81FB8923F04003FB813B689B884FEA49
:1006E00003139AB2FB891343FB81BB8923F4806314
:1006F000BB81BB8923F40063BB813B689B894FEAC4
:1007000083039AB2BB891343BB813B68DB894FEA01
:1007100083039AB2BB891343BB817B68BA899A80F1
:100720007B687A891A833B68DA887B681A877B68DA
:10073000FA891A8407F11407BD4680BC704700BFD0
:1007400080B485B000AF786039604FF000037B81E2
:100750004FF00003FB814FF00003BB817B681B8CD3
:100760009BB223F480739AB27B681A847B681B8CDB
:10077000FB817B689B88BB817B689B8B7B817B89B2
:1007800023F070037B817B8923F003037B813B682B
:100790001A887B8913437B81FB8923F40073FB81D7
:1007A0003B681B894FEA03239AB2FB891343FB8101
:1007B0003B685B884FEA03239AB2FB891343FB81B2
:1007C0007A684FF43053C4F201039A4206D07A6833
:1007D0004FF45053C4F201039A422FD1FB8923F402
:1007E0000063FB813B685B894FEA03239AB2FB8974
:1007F0001343FB81FB8923F48063FB813B689B8867
:100800004FEA03239AB2FB891343FB81BB8923F48C
:100810008053BB81BB8923F40053BB813B689B8918
:100820004FEA03139AB2BB891343BB813B68DB8950
:100830004FEA03139AB2BB891343BB817B68BA8921
:100840009A807B687A899A833B68DA887B689A8782
:100850007B68FA891A8407F11407BD4680BC70478B
:1008600080B483B000AF78600B46FB70FB78002B40
:1008700008D07B681B889BB243F001039AB27B6867
:100880001A8007E07B681B889BB223F001039AB2B1
:100890007B681A8007F10C07BD4680BC704700BF1B
:1008A00080B483B000AF78600B46FB70FB78002B00
:1008B0000CD07B68B3F844309BB26FEA43436FEAD5
:1008C00053439AB27B68A3F844200BE07B68B3F8EB
:1008D00044309BB24FEA43434FEA53439AB27B689A
:1008E000A3F8442007F10C07BD4680BC704700BF49
:1008F00080B483B000AF786013460A467A807B707C
:100900007B78002B08D07B689B899AB27B88134345
:100910009AB27B689A810AE07B689B899AB27B884D
:100920006FEA03039BB213409AB27B689A8107F186
:100930000C07BD4680BC704780B483B000AF7860C0
:100940000B467B807B886FEA03039AB27B681A822E
:1009500007F10C07BD4680BC704700BF80B483B070
:1009600000AF78600B467B807B886FEA03039AB206
:100970007B681A8207F10C07BD4680BC704700BF38
:1009800080B582B000AF44F20C13C0F600037B6068
:1009900040F20003C2F200033B600BE07B681A6880
:1009A0003B681A603B6803F104033B607B6803F11A
:1009B00004037B603A6840F20403C2F200039A42E7
:1009C000ECD3094809494FF000028842B8BF40F80B
:1009D000042BFFF6FAAF00F00FF801F01BFC07F153
:1009E0000807BD4680BD000004000020C8000020AC
:1009F00080B400AFFEE700BF80B500AF4FF4805376
:100A0000C4F202034FF48052C4F20202126842F0B0
:100A100001021A604FF48052C4F202024FF4805374
:100A2000C4F2020359684FF00003CFF6FF030B40F6
:100A300053604FF48053C4F202034FF48052C4F267
:100A40000202126822F0847222F480321A604FF49B
:100A50008053C4F202034FF48052C4F202021268BF
:100A600022F480221A604FF48053C4F202034FF440
:100A70008052C4F20202526822F4FE025A604FF41D
:100A80008053C4F202034FF41F029A604FF4805364
:100A9000C4F202034FF00002DA6200F009F84FF4EA
:100AA0006D43CEF200034FF000629A6080BD00BF3C
:100AB00080B500AF00F002F880BD00BF80B483B005
:100AC00000AF4FF000037B604FF000033B604FF43A
:100AD0008053C4F202034FF48052C4F2020212683F
:100AE00042F480321A604FF48053C4F202031B6850
:100AF00003F400333B607B6803F101037B603B68D8
:100B0000002B03D17B68B3F5A06FECD14FF4805379
:100B1000C4F202031B6803F40033002B03D04FF030
:100B200001033B6002E04FF000033B603B68012B98
:100B30006DD14FF48053C4F202034FF48052C4F2DB
:100B4000020252685A604FF48053C4F202034FF419
:100B50008052C4F2020252685A604FF48053C4F2C9
:100B600002034FF48052C4F2020252685A604FF4FA
:100B70008053C4F202034FF48052C4F2020252685E
:100B800022F47C125A604FF48053C4F202034FF4F3
:100B90008052C4F20202526842F498125A604FF432
:100BA0008053C4F202034FF48052C4F2020212686E
:100BB00042F080721A6000BF4FF48053C4F2020307
:100BC0001B6803F00073002BF6D04FF48053C4F27F
:100BD00002034FF48052C4F20202526822F0030270
:100BE0005A604FF48053C4F202034FF48052C4F2AF
:100BF0000202526842F002025A6000BF4FF4805372
:100C0000C4F202035B6803F00C03082BF6D107F172
:100C10000C07BD4680BC704780B489B000AF7860D7
:100C200039604FF00003FB614FF000033B614FF070
:100C30000003BB614FF00003FB604FF000037B61DA
:100C40004FF00003BB603B68DB7803F00F03FB61F0
:100C50003B68DB7803F01003002B04D03B689B78E3
:100C6000FA691343FB613B681B88DBB2002B4ED053
:100C70007B681B687B614FF00003BB6141E0BB698F
:100C80004FF0010202FA03F3FB603B681B881A462F
:100C9000FB6813403B613A69FB689A422DD1BB69FE
:100CA0004FEA8303FB60FB684FF00F0202FA03F385
:100CB000BB60BB686FEA03037A6913407B61FB6822
:100CC000FA6902FA03F37A6913437B613B68DB78C4
:100CD000282B07D1BB694FF0010202FA03F27B68AF
:100CE0005A610AE03B68DB78482B06D1BB694FF0BC
:100CF000010202FA03F27B681A61BB6903F1010386
:100D0000BB61BB69072BBAD97B687A691A603B68FB
:100D10001B88FF2B53D97B685B687B614FF0000316
:100D2000BB6146E0BB6903F108034FF0010202FA20
:100D300003F3FB603B681B881A46FB6813403B616A
:100D40003A69FB689A4230D1BB694FEA8303FB6082
:100D5000FB684FF00F0202FA03F3BB60BB686FEA57
:100D600003037A6913407B61FB68FA6902FA03F3B3
:100D70007A6913437B613B68DB78282B08D1BB6918
:100D800003F108034FF0010202FA03F27B685A6193
:100D90003B68DB78482B08D1BB6903F108034FF0AF
:100DA000010202FA03F27B681A61BB6903F10103D5
:100DB000BB61BB69072BB5D97B687A695A6007F1BB
:100DC0002407BD4680BC704780B483B000AF786014
:100DD00013460A467A807B707B78002B03D07A8892
:100DE0007B681A6102E07A887B685A6107F10C0718
:100DF000BD4680BC704700BF80B487B000AF78604C
:100E00000B46FB704FF000033B614FF00003FB60AB
:100E10004FF000037B614FF00003BB607B68002B49
:100E200006DA4FF00003C4F20103DB697B6105E0E1
:100E30004FF00003C4F201035B687B617B6803F43D
:100E400070234FEA1343BB607B684FEA03434FEACA
:100E500013433B617B6803F44013B3F5401F10D18B
:100E60007B6923F070637B614FF00003C4F20103E0
:100E70004FF00002C4F20102526822F070625A6020
:100E800026E07B6803F48013002B10D0BB684FF082
:100E9000030202FA03F3FB60FB686FEA03037A695B
:100EA00013407B617B6943F070637B6110E07B687A
:100EB0004FEA53534FEA03133A6902FA03F36FEA16
:100EC00003037A6913407B617B6943F070637B6144
:100ED000FB78002B0AD07B684FEA53534FEA031389
:100EE0003A6902FA03F37A6913437B617B68002B4A
:100EF00006DA4FF00003C4F201037A69DA6105E013
:100F00004FF00003C4F201037A695A6007F11C072D
:100F1000BD4680BC704700BF80B500AF4FF00100F8
:100F200002F0A8FE4FF0010002F084FE02F030FA59
:100F30004FF0010002F080FA4FF0000002F0F0FAEA
:100F40004FF0000002F00CFB4FF0000002F028FB15
:100F50004FF4004002F046FB4FF000004FF48011C8
:100F600002F07AFA4FF0010002F09AFA00BF4FF057
:100F7000390002F029FC0346002BF8D04FF00200A4
:100F800002F09EFA00BF02F0BBFA0346082BFAD12A
:100F900080BD00BF80B588B000AF4FF031004FF08A
:100FA000010102F093FB4FF400604FF0010102F0E9
:100FB00063FB4FF036033B704FF00203BB704FF002
:100FC0000103FB703B46184602F0D2FE4FF0370398
:100FD0003B704FF00103BB704FF00103FB703B46C9
:100FE000184602F0C5FE4FF01C033B704FF00003A3
:100FF000BB704FF00103FB703B46184602F0B8FE91
:101000004FF43050C4F20100FFF78CF840F6B733CC
:101010003B834FF00703BB824FF000037B834FF00D
:101020000003FB8207F114034FF43050C4F20100B7
:101030001946FFF7CFF94FF06003BB804FF0010373
:10104000FB804FF000037B814FF00003BB8107F171
:1010500004034FF43050C4F201001946FFF748FA78
:1010600007F104034FF43050C4F201001946FFF7B2
:10107000D3FA07F104034FF43050C4F201001946CB
:10108000FFF75EFB4FF43050C4F201004FF0010156
:10109000FFF7E6FB4FF43050C4F201004FF00101BE
:1010A000FFF7FEFB4FF00A033B8340F65F13BB8262
:1010B0004FF000037B834FF00003FB8207F1140322
:1010C0004FF48050C4F200001946FFF783F94FF443
:1010D0008050C4F200004FF00101FFF72DFC4FF4E7
:1010E0008050C4F200004FF001014FF00102FFF701
:1010F000FFFB4FF48050C4F200004FF00101FFF7F6
:10110000AFFB4FF002033B8345F6BF53BB824FF06A
:1011100000037B834FF00003FB8207F114034FF4BD
:10112000A050C4F200001946FFF754F94FF4A05044
:10113000C4F200004FF00101FFF7FEFB4FF4A05096
:10114000C4F200004FF001014FF00102FFF7D0FBA5
:101150004FF4A050C4F200004FF00101FFF780FBF4
:101160004FF00A033B8345F6BF53BB824FF00003A9
:101170007B834FF00003FB8207F114034FF08040A4
:101180001946FFF727F94FF080404FF00101FFF7B4
:10119000D3FB4FF080404FF001014FF00102FFF709
:1011A000A7FB4FF080404FF00101FFF759FB07F11B
:1011B0002007BD4680BD00BF80B586B000AF4FF4AC
:1011C0001050C4F2010002F047FB4FF400704FF0E2
:1011D000010102F051FA4FF001037B724FF000035E
:1011E0003B614FF46023FB604FF000037B604FF0E6
:1011F0000C033B754FF001033B7207F104034FF4FE
:101200001050C4F20100194602F06AFB4FF410506E
:10121000C4F201004FF00A014FF001024FF0070342
:1012200002F02AFC4FF41050C4F201004FF00B0101
:101230004FF002024FF0070302F01EFC4FF4105073
:10124000C4F201004FF00C014FF003024FF007030E
:1012500002F012FC4FF41050C4F201004FF00001F4
:101260004FF004024FF0070302F006FC4FF4105059
:10127000C4F201004FF001014FF005024FF00703E7
:1012800002F0FAFB4FF41050C4F201004FF00201DB
:101290004FF006024FF0070302F0EEFB4FF4105040
:1012A000C4F201004FF003014FF007024FF00703B3
:1012B00002F0E2FB4FF41050C4F201004FF00401C1
:1012C0004FF008024FF0070302F0D6FB4FF4105026
:1012D000C4F201004FF005014FF009024FF007037F
:1012E00002F0CAFB4FF41050C4F201004FF00601A7
:1012F0004FF00A024FF0070302F0BEFB4FF410500C
:10130000C4F201004FF007014FF00B024FF007034A
:1013100002F0B2FB4FF41050C4F201004FF00D0187
:101320004FF00C024FF0070302F0A6FB4FF41050F1
:10133000C4F201004FF0010102F02AFB4FF41050FB
:10134000C4F201004FF0010102F03EFB4FF41050D7
:10135000C4F2010002F054FB4FF41050C4F201003B
:1013600002F05EFB4FF41050C4F201004FF0010197
:1013700002F066FB07F11807BD4680BD80B58CB052
:1013800000AF4FF001004FF0010102F04BF94FF0B8
:101390000C033B614FF00003FB604FF00003FB6266
:1013A00040F20403C2F20003BB604FF480633B626F
:1013B0004FF08003BB614FF020037B6242F24C434D
:1013C000C4F201037B604FF48073FB614FF00003B4
:1013D0007B614FF40053BB6207F104034FF0080038
:1013E000C4F20200194602F067FC4FF00800C4F294
:1013F00002004FF0010102F09FFC07F13007BD46EB
:1014000080BD00BF80B582B000AF4FF01D004FF02F
:10141000010102F031F94FF40070C0F230004FF0DA
:101420000101FFF7E9FC4FF44060C0F21A004FF0F1
:101430000101FFF7E1FC4FF4E063BB804FF00303D1
:10144000BB714FF01803FB7107F104034FF4006008
:10145000C4F201001946FFF7DFFB4FF00F03BB801A
:101460004FF00003FB714FF00303BB7107F104035E
:101470004FF48050C4F201001946FFF7CDFB4FF046
:10148000FF03BB804FF00003FB714FF00303BB7100
:1014900007F104034FF40060C4F201001946FFF79E
:1014A000BBFB4FF00303BB714FF01003FB714FF414
:1014B0004073BB8007F104034FF44060C4F20100A5
:1014C0001946FFF7A9FB4FF00303BB714FF0100360
:1014D000FB714FF0F003BB8007F104034FF4805021
:1014E000C4F201001946FFF797FB4FF02803BB80B9
:1014F0004FF04803FB7107F104034FF44060C4F25E
:1015000001001946FFF788FB4FF04003BB804FF006
:101510001003FB7107F104034FF44060C4F20100B3
:101520001946FFF779FB4FF44060C4F201004FF019
:1015300040014FF00102FFF747FC07F10807BD46E5
:1015400080BD00BF80B400AF40F2A803C2F2000328
:1015500040F6D8121A8040F2A803C2F2000340F607
:1015600026425A8040F2A803C2F2000340F63742F6
:101570009A8040F2A803C2F2000343F66622DA80A2
:1015800040F2A803C2F2000343F6AC221A8140F2F3
:10159000A803C2F200034FF000025A8140F2A803F0
:1015A000C2F200039B881A4640F2A803C2F200036D
:1015B0001A6140F2A803C2F200031A6940F2A803BC
:1015C000C2F20003DA6040F2A803C2F200034FF057
:1015D00000025A6140F2A803C2F200034FF0000279
:1015E0009A6140F2A803C2F200034FF00002DA61F0
:1015F00040F27003C2F2000340F6D5121A8040F2A6
:101600007003C2F2000340F626425A8040F2700393
:10161000C2F2000340F633429A8040F27003C2F2F5
:10162000000343F6A222DA8040F27003C2F2000304
:1016300041F656521A8140F27003C2F200034FF095
:1016400000025A8140F27003C2F200039B881A46DE
:1016500040F27003C2F200031A6140F27003C2F25A
:1016600000031A6940F27003C2F20003DA6040F22C
:101670007003C2F200034FF000025A6140F270039F
:10168000C2F200034FF000029A6140F27003C2F20E
:1016900000034FF00002DA6140F23C03C2F20003A3
:1016A00040F6D1121A8040F23C03C2F2000340F629
:1016B0001C425A8040F23C03C2F2000340F62E4224
:1016C0009A8040F23C03C2F2000343F68E22DA8095
:1016D00040F23C03C2F2000340F606621A8140F277
:1016E0003C03C2F200034FF000025A8140F23C0377
:1016F000C2F200039B881A4640F23C03C2F2000388
:101700001A6140F23C03C2F200031A6940F23C0342
:10171000C2F20003DA6040F23C03C2F200034FF071
:1017200000025A6140F23C03C2F200034FF0000293
:101730009A6140F23C03C2F200034FF00002DA610A
:1017400040F29803C2F2000343F6FC221A8040F2F2
:101750009803C2F2000340F606625A8040F29803F2
:10176000C2F200034FF000025A6040F29803C2F246
:1017700000034FF000029A6040F29803C2F20003A7
:101780004FF000021A7340F29803C2F200034FF0C8
:1017900000025A7340F22C03C2F2000343F698226F
:1017A0001A8040F22C03C2F2000343F698225A80BA
:1017B00040F22C03C2F200034FF000025A6040F2E4
:1017C0002C03C2F200034FF000029A6040F22C0397
:1017D000C2F200034FF000029A8140F22C03C2F2E1
:1017E00000034FF000029A7340F26403C2F2000358
:1017F00043F6FC221A8040F26403C2F2000341F671
:1018000056525A8040F26403C2F200034FF00002C5
:101810005A6040F26403C2F200034FF000029A6083
:1018200040F25C03C2F200034FF00002DA7040F2B3
:101830005C03C2F200034FF000025A7140F25C03F5
:10184000C2F200034FF000021A7140F25C03C2F2D0
:1018500000034FF0FA021A8040F25C03C2F2000368
:101860004FF000029A70BD4680BC704780B584B0CE
:1018700000AFF860B9607A6040F20003C2F2000382
:101880001B68FA6802FB03F34FF0640202FB03F2E9
:101890004AF22943C5F2F013A3FB02134FEA534364
:1018A000FB60BB684FF47A7202FB03F27B68B2FB09
:1018B000F3F303F57A72FB6802FB03F3FB60FA684B
:1018C00044F6D353C1F26203A3FB02134FEA93130E
:1018D000FB60F86800F07AF9F860FB689BB2184684
:1018E00007F11007BD4680BD80B584B000AFF86039
:1018F000B9607A603B6040F20003C2F200031B68EB
:10190000FA6802FB03F34FF0640202FB03F24AF2AF
:101910002943C5F2F013A3FB02034FEA5343FB60D4
:101920007B684FF47A7202FB03F23B68B2FBF3F37D
:1019300003F57A72FB6802FB03F3FB60FA6844F676
:10194000D353C1F26203A3FB02134FEA9313FB606C
:10195000F86800F03BF9F860FA6841F25973CDF28B
:10196000B713A3FB02034FEA5333DBB203F1300397
:10197000DAB2BB681A70BB681B781A464DF6F003E2
:10198000CFF6FF7303FB02F31A46FB68D31803F587
:10199000EA2303F54073FB60BB6803F10102F968B9
:1019A00044F6D353C1F26203A3FB01034FEA93133E
:1019B000DBB203F13003DBB21370BB6803F1010348
:1019C0001B781A464FF61843CFF6FF7303FB02F35A
:1019D0001A46FB68D31803F53B4303F18003FB6011
:1019E000BB6803F102034FF02E021A70BB6803F1CB
:1019F0000302F96848F21F53C5F2EB13A3FB01037E
:101A00004FEA5313DBB203F13003DBB21370BB6850
:101A100003F103031B786FF0630202FB03F31A4622
:101A2000FB68D31803F59653FB60BB6803F104020F
:101A3000F9684CF6CD43CCF6CC43A3FB01034FEA47
:101A4000D303DBB203F13003DBB21370BB6803F1E5
:101A500005034FF056021A70BB6803F106034FF0FE
:101A600000021A70BB68184607F11007BD4680BD1A
:101A700080B586B000AFF860B9607A6040F20003CC
:101A8000C2F200031B68FA6802FB03F240F2011382
:101A9000C0F21003A3FB0203D21A4FEA52029B18B2
:101AA0004FEAD3237B617B697A68D31A7B617A68BA
:101AB00040F6D1139A4214D17B69B3F5167F10DD3D
:101AC0007B69A3F5167246F26763C6F2666383FB11
:101AD00002134FEAA3014FEAE273CB1A7A69D318D3
:101AE0007B617B69184600F071F803467B617A6977
:101AF00044F6D353C1F2620383FB02034FEAA311FE
:101B00004FEAE273CB1ADBB203F13003DAB2BB68FF
:101B10001A70BB681B781A464FF61843CFF6FF734E
:101B200003FB02F303F53B4303F180037A69D31807
:101B30007B61BB6803F101017A6948F21F53C5F26A
:101B4000EB1383FB02034FEA63104FEAE273C31AFD
:101B5000DBB203F13003DBB20B70BB6803F10103AE
:101B60001B786FF0630202FB03F303F596537A6967
:101B7000D3187B61BB6803F102034FF02E021A7089
:101B8000BB6803F103017A6946F26763C6F26663D4
:101B900083FB02034FEAA3004FEAE273C31ADBB2EE
:101BA00003F13003DBB20B70BB6803F104034FF0A9
:101BB00041021A70BB6803F105034FF000021A706E
:101BC000BB68184607F11807BD4680BD80B48BB0CE
:101BD00000AF786042F210733B627B68FB614FF0AC
:101BE00000037B6227E07A683B6AB2FBF3F27B6A10
:101BF0004FEA830307F12801CB1843F8202C7B6AB6
:101C00004FEA830307F12802D31853F8203C3A6ABD
:101C100002FB03F37A68D31A7B603A6A4CF6CD4331
:101C2000CCF6CC43A3FB02134FEAD3033B627B6A9F
:101C300003F101037B627B6A042BD4D9BB69042BBB
:101C400003D9FB6903F10103FB61FB69184607F146
:101C50002C07BD4680BC704780B483B000AF78606D
:101C60007B68002B02DA4FF001030CE07B68002B4D
:101C700002D14FF0000306E07B68002B02DD4FF03D
:101C8000FF3300E0FFE7184607F10C07BD4680BCB4
:101C9000704700BF80B500AF40F2A803C2F2000356
:101CA0001A6940F2A803C2F200035B889A4247D245
:101CB00040F20403C2F200039B881A4640F2A803D4
:101CC000C2F200031B69D31A1846FFF7C5FF03468B
:101CD000002B30D0012B19D0B3F1FF3F30D140F2AF
:101CE000A803C2F200035A8940F6B7339A4224D0BF
:101CF00040F2A803C2F200035B8903F101039AB228
:101D000040F2A803C2F200035A8116E040F2A80391
:101D1000C2F200035B89002B11D040F2A803C2F28B
:101D200000035B8903F1FF339AB240F2A803C2F2C9
:101D300000035A8103E000BF02E000BF00E000BFE3
:101D400040F27003C2F200031A6940F27003C2F25B
:101D500000035B889A4247D240F20403C2F20003B8
:101D60005B881A4640F27003C2F200031B69D31A63
:101D70001846FFF771FF0346002B30D0012B19D016
:101D8000B3F1FF3F30D140F27003C2F200035A8931
:101D900040F6B7339A4224D040F27003C2F20003F7
:101DA0005B8903F101039AB240F27003C2F20003AF
:101DB0005A8116E040F27003C2F200035B89002BE7
:101DC00011D040F27003C2F200035B8903F1FF33CC
:101DD0009AB240F27003C2F200035A8103E000BFDE
:101DE00002E000BF00E000BF40F23C03C2F200038B
:101DF0001A6940F23C03C2F200035B889A4247D260
:101E000040F20403C2F200031B881A4640F23C036E
:101E1000C2F200031B69D31A1846FFF71DFF0346E1
:101E2000002B30D0012B19D0B3F1FF3F30D140F25D
:101E30003C03C2F200035A8940F6B7339A4224D0D9
:101E400040F23C03C2F200035B8903F101039AB242
:101E500040F23C03C2F200035A8116E040F23C0318
:101E6000C2F200035B89002B11D040F23C03C2F2A6
:101E700000035B8903F1FF339AB240F23C03C2F2E4
:101E800000035A8103E000BF02E000BF00E000BF92
:101E90004FF43053C4F2010340F2A802C2F2000230
:101EA00052899A864FF43053C4F2010340F2700213
:101EB000C2F2000252891A874FF43053C4F2010370
:101EC00040F23C02C2F2000252899A8780BD00BFF4
:101ED00080B483B000AF786003E07B6803F1FF3328
:101EE0007B607B68002BF8D107F10C07BD4680BCF6
:101EF000704700BF80B582B000AF78604FF440609B
:101F0000C4F201004FF480714FF00102FEF75CFF54
:101F10004FF48053C4F201034FF48052C4F2010223
:101F2000D1684FF60F720A40796801F0F00152183B
:101F3000DA604FF44060C4F201004FF400714FF0DA
:101F40000102FEF741FF4FF00A00FFF7C1FF4FF417
:101F50004060C4F201004FF400714FF00002FEF740
:101F600033FF4FF48053C4F201034FF48052C4F2A4
:101F70000102D1684FF60F720A4079684FEA0111E9
:101F8000C9B25218DA604FF44060C4F201004FF455
:101F900000714FF00102FEF717FF4FF00A00FFF744
:101FA00097FF4FF44060C4F201004FF400714FF00E
:101FB0000002FEF709FF4FF44060C4F201004FF445
:101FC00080714FF00002FEF7FFFE4FF49670FFF7AE
:101FD0007FFF07F10807BD4680BD00BF80B582B016
:101FE00000AF78604FF44060C4F201004FF480719C
:101FF0004FF00002FEF7E8FE4FF48053C4F20103F5
:102000004FF48052C4F20102D1684FF60F720A40B9
:10201000796801F0F0015218DA604FF44060C4F2C0
:1020200001004FF400714FF00102FEF7CDFE4FF0BA
:102030000A00FFF74DFF4FF44060C4F201004FF477
:1020400000714FF00002FEF7BFFE4FF48053C4F260
:1020500001034FF48052C4F20102D1684FF60F72AF
:102060000A4079684FEA0111C9B25218DA604FF498
:102070004060C4F201004FF400714FF00102FEF71E
:10208000A3FE4FF00A00FFF723FF4FF44060C4F2B5
:1020900001004FF400714FF00002FEF795FE4FF47F
:1020A0009670FFF715FF07F10807BD4680BD00BF1A
:1020B00080B584B000AF02460B46FA71BB71BB79A4
:1020C00003F1FF33DBB24FEA8313DAB2FB79D318A3
:1020D000DBB203F1FF33FB73FB7B03F18003184694
:1020E000FFF77CFF40F6B830FFF7F2FE07F110076C
:1020F000BD4680BD80B500AF49F2E030C0F20400BB
:10210000FFF7E6FE4FF44060C4F201004FF4807127
:102110004FF00002FEF758FE4FF44060C4F2010099
:102120004FF400714FF00102FEF74EFE4FF4805362
:10213000C4F201034FF48052C4F20102D1684FF699
:102140000F720A4002F12002DA604FF44060C4F2DC
:1021500001004FF400714FF00002FEF735FE4FF41E
:102160009670FFF7B5FE4FF02C00FFF737FF4FF0EA
:102170000C00FFF733FF4FF00600FFF72FFF4FF083
:102180000100FFF72BFF49F2E030C0F20400FFF737
:102190009FFE80BD80B582B000AF0346FB71FB7926
:1021A0001846FFF7A7FE07F10807BD4680BD00BF30
:1021B00080B582B000AF0B463A600246FA71BB713F
:1021C000FA79BB7910461946FFF772FF08E03B68C1
:1021D0001B783A6802F101023A601846FFF7DAFF0D
:1021E0003B681B78002BF2D14FF47A70FFF770FE3A
:1021F00007F10807BD4680BD80B500AF4FF0010074
:10220000FFF7ECFE48F2A060C0F20100FFF760FEAD
:1022100080BD00BF80B582B000AFFEF77DFEFFF746
:10222000F1F8FFF78FF9FFF765FFFEF7C5FFFFF73E
:10223000A5F8FEF7AFFE4FF001004FF0010143F6A5
:102240005862C0F60002FFF7B3FF44F64030C0F218
:102250004C00FFF73DFE40F20403C2F200039B8AEC
:10226000194640F29803C2F200031B881A4640F256
:102270009803C2F200035B88084611461A46FFF72E
:10228000F5FA03461A4643F2FF139A4200F2998088
:102290004FF001004FF0020143F67062C0F60002F9
:1022A000FFF786FF44F64030C0F24C00FFF710FE07
:1022B000FFF7A2FF4FF001004FF0010143F68462E7
:1022C000C0F60002FFF774FF40F20403C2F20003FD
:1022D0009B8A194640F29803C2F200031B881A46F3
:1022E00040F29803C2F200035B88084611461A4682
:1022F000FFF7BCFA03463B6044F64030C0F24C00A6
:10230000FFF7E6FD40F20403C2F200039B8A194680
:1023100040F29803C2F200031B881A4640F2980369
:10232000C2F200035B88084611461A46FFF79EFA80
:1023300003463A68D31A642B1BDC40F20403C2F252
:1023400000039B8A194640F29803C2F200031B88DF
:102350001A4640F29803C2F200035B880846114611
:102360001A46FFF783FA03461A4642F6BF339A42EB
:1023700015D84FF001004FF0020143F69462C0F609
:102380000002FFF715FF40F29803C2F200034FF07E
:1023900000021A7342F21070FFF79AFD94E74FF0B3
:1023A00001004FF0020143F6AC62C0F60002FFF7F5
:1023B000FFFE40F29803C2F200034FF001021A73CD
:1023C00009E04FF001004FF0020143F6C462C0F68D
:1023D0000002FFF7EDFE44F64030C0F24C00FFF77C
:1023E00077FDFFF709FF40F29803C2F200034FF0B8
:1023F00001025A734FF001004FF0010143F6D4621D
:10240000C0F60002FFF7D4FE44F64030C0F24C00A4
:10241000FFF75EFD4FF001004FF0020143F6EC6262
:10242000C0F60002FFF7C4FE44F64030C0F24C0094
:10243000FFF74EFDFFF7E0FE4FF001004FF0010106
:1024400043F6FC62C0F60002FFF7B2FE4FF0010057
:102450004FF0020143F61472C0F60002FFF7A8FE27
:1024600044F64030C0F24C00FFF732FDFFF7C4FEE7
:102470004FF001004FF0010143F62C72C0F600024C
:10248000FFF796FE4FF001004FF0020143F6447251
:10249000C0F60002FFF78CFE44F64030C0F24C005C
:1024A000FFF716FDFFF7A8FE75E040F21D03C2F22C
:1024B00000031B78012B1FD140F25C03C2F2000322
:1024C0001B8803F132039AB240F25C03C2F20003AC
:1024D0001A8040F25C03C2F200031B88B3F5FA7F56
:1024E00006D140F25C03C2F200034FF0FA021A80F8
:1024F00042F21070FFF7ECFC40F25C03C2F2000302
:102500001B88B3F5AF7F25D0B3F5AF7F05DCFA2B81
:102510000AD0B3F5967F12D03DE0B3F5C87F24D042
:10252000B3F5E17F2CD036E04FF001004FF0010110
:1025300043F65C72C0F60002FFF73AFE2BE04FF064
:1025400001004FF0010143F67472C0F60002FFF77C
:102550002FFE20E04FF001004FF0010143F68C7296
:10256000C0F60002FFF724FE15E04FF001004FF027
:10257000010143F6A472C0F60002FFF719FE0AE05B
:102580004FF001004FF0010143F6BC72C0F60002AB
:10259000FFF70EFE00BF40F21C03C2F200031B78DF
:1025A000012B82D1FFF728FE4AF66060C0F20A00D4
:1025B000FFF78EFC4FF001004FF0010143F6D4729B
:1025C000C0F60002FFF7F4FD45E040F21D03C2F241
:1025D00000031B78012B1ED140F25C03C2F2000302
:1025E0009B7803F10103DAB240F25C03C2F200030C
:1025F0009A7040F25C03C2F200039B78022B06D172
:1026000040F25C03C2F200034FF000029A7042F203
:102610001070FFF75DFC40F25C03C2F200039B7890
:10262000002B02D0012B0BD015E04FF001004FF032
:10263000020143F6EC72C0F60002FFF7B9FD0AE0B2
:102640004FF001004FF0020144F20402C0F6000214
:10265000FFF7AEFD00BF40F21C03C2F200031B787F
:10266000012BB2D1FFF7C8FD4AF66060C0F20A0044
:10267000FFF72EFC4FF001004FF0010144F21C0265
:10268000C0F60002FFF794FD4FF001004FF0020189
:1026900044F23402C0F60002FFF78AFD4AF220102D
:1026A000C0F20700FFF714FC4FF001004FF00201E9
:1026B00044F24C02C0F60002FFF77AFD4AF2201005
:1026C000C0F20700FFF704FC4FF001004FF00201D9
:1026D00044F26402C0F60002FFF76AFD44F640309F
:1026E000C0F24C00FFF7F4FBFFF786FD40F26403F5
:1026F000C2F20003596840F26403C2F200031B886F
:102700001A4640F26403C2F200035B880846114691
:102710001A46FFF7ABF803461A4641F28D239A4258
:1027200003D84FF0050000F0FFFC40F26403C2F252
:102730000003596840F26403C2F200031B881A4682
:1027400040F26403C2F200035B88084611461A4651
:10275000FFF78CF803461A4641F282439A4203D9A6
:102760004FF0060000F0E0FC4FF44060C4F20100BE
:102770004FF040014FF00002FEF726FB40F25C03F1
:10278000C2F200034FF001025A7112E040F22C0332
:10279000C2F200039B89B3F5167F0AD940F25C03AD
:1027A000C2F200034FF000025A714FF0010000F036
:1027B000BBFC40F20403C2F20003DB8A194640F27C
:1027C0002C03C2F200031B881A4640F22C03C2F20B
:1027D00000035B88084611461A46FFF747F8034690
:1027E0001A4640F65F139A42D0D940F25C03C2F217
:1027F00000034FF000025A7140F22C03C2F20003B2
:102800009B89B3F5167F03D94FF0020000F08CFCD2
:102810004FF001004FF0010144F27C02C0F60002CB
:10282000FFF7C6FC44F64030C0F24C00FFF750FB07
:1028300040F22C03C2F200034FF001029A7340F2FF
:102840005C03C2F200034FF00102DA7040F25C0355
:10285000C2F200039B78002B49D14FF001004FF0EA
:10286000010144F29002C0F60002FFF7A1FC4FF014
:1028700001004FF00201FFF71BFC4FF00103FB7159
:102880002DE04FF001004FF00201FFF711FC4CF278
:102890005030FFF71DFB4FF00103BB7107E04FF015
:1028A000FF00FFF777FCBB7903F10103BB71BA7935
:1028B000FB799A42F3D944F24020C0F20F00FFF7AF
:1028C00007FBFB7903F10103FB71FB79142B06D1A4
:1028D00040F25C03C2F200034FF001021A7140F2B1
:1028E0005C03C2F200031B79002BCAD04BE14FF00E
:1028F00002004FF0010144F2A402C0F60002FFF70B
:1029000057FC40F22C03C2F200039B89184640F2A8
:102910009001C2F2000100F085FB03464FF00E006B
:102920004FF001011A46FFF743FC4FF012004FF041
:10293000010144F2B402C0F60002FFF739FC4FF087
:1029400002004FF0020144F2B802C0F60002FFF7A5
:102950002FFC40F22C03C2F20003596840F22C0312
:10296000C2F200031B881A4640F22C03C2F2000395
:102970005B88084640F29001C2F20001FEF7B4FF06
:1029800003464FF00E004FF002011A46FFF710FC0D
:1029900000BF40F21C03C2F200031B78012BF8D1E8
:1029A0004AF66060C0F20A00FFF792FAFFF724FCD3
:1029B0004FF002004FF0010144F2C802C0F60002DD
:1029C000FFF7F6FB40F26403C2F20003596840F2DD
:1029D0006403C2F200031B881A4640F26403C2F289
:1029E00000035B88084640F29001C2F20001FEF746
:1029F0007BFF03464FF00E004FF001011A46FFF730
:102A0000D7FB00BF40F21C03C2F200031B78012B6E
:102A1000F8D1FFF7F1FBAEE040F2A803C2F20003E9
:102A2000DA6840F2A803C2F200031B88104640F2A5
:102A30009001C2F200011A46FFF71AF803464FF060
:102A400001004FF001011A46FFF7B2FB40F270039C
:102A5000C2F20003DA6840F27003C2F200031B887E
:102A6000104640F29001C2F200011A46FFF700F84A
:102A700003464FF008004FF001011A46FFF798FB9C
:102A800040F23C03C2F20003DA6840F23C03C2F2B7
:102A900000031B88104640F29001C2F200011A4662
:102AA000FEF7E6FF03464FF00F004FF001011A4614
:102AB000FFF77EFB40F2A803C2F20003996940F2DF
:102AC000A803C2F20003DB881A4640F2A803C2F250
:102AD00000031B89084640F29001C2F20001FEF794
:102AE00003FF03464FF001004FF002011A46FFF7C3
:102AF0005FFB40F27003C2F20003996940F2700379
:102B0000C2F20003DB881A4640F27003C2F20003EF
:102B10001B89084640F29001C2F20001FEF7E4FE74
:102B200003464FF008004FF002011A46FFF740FB42
:102B300040F23C03C2F20003996940F23C03C2F246
:102B40000003DB881A4640F23C03C2F200031B89F3
:102B5000084640F29001C2F20001FEF7C5FE0346AE
:102B60004FF00F004FF002011A46FFF721FB4CF225
:102B70005030FFF7ADF940F25C03C2F200031B795D
:102B8000002B3FF449AF4FF44060C4F201004FF016
:102B900040014FF00102FEF717F9FEF7D3FC4FF4A6
:102BA0003053C4F2010340F2A802C2F2000252897B
:102BB0009A864FF43053C4F2010340F27002C2F21D
:102BC000000252891A874FF43053C4F2010340F2D5
:102BD0003C02C2F2000252899A874FF001004FF086
:102BE000010144F2D402C0F60002FFF7E1FA4FF00F
:102BF00001004FF0020144F2E802C0F60002FFF7C4
:102C0000D7FA44F64030C0F24C00FFF761F9FEE716
:102C100080B500AF4FF48050C4F200004FF00101C6
:102C2000FDF79CFE40F25C03C2F200035B79012BCE
:102C30000CD140F22C03C2F200039B8903F1010383
:102C40009AB240F22C03C2F200039A8140F2980338
:102C5000C2F200035B7B012B13D140F20403C2F2EA
:102C600000039A8A40F659239A420AD840F2980300
:102C7000C2F200034FF000021A734FF0030000F09D
:102C800053FA40F22C03C2F200039B7B012B0CD1C0
:102C900040F20403C2F20003DA8A40F2C7539A42B8
:102CA00003D84FF0040000F03FFA40F25C03C2F298
:102CB0000003DB78012B01D1FEF7ECFF80BD00BFE4
:102CC00080B500AF4FF4A050C4F200004FF00101F6
:102CD000FDF744FE40F2A803C2F20003DA6940F2B5
:102CE0000403C2F200031B8AD21840F2A803C2F206
:102CF0000003DA6140F27003C2F20003DA6940F2C5
:102D00000403C2F20003DB89D21840F27003C2F25E
:102D10000003DA6140F23C03C2F20003DA6940F2D8
:102D20000403C2F200039B89D21840F23C03C2F2B2
:102D30000003DA6140F26403C2F200039A6840F2D1
:102D40000403C2F200035B8AD21840F26403C2F2A9
:102D500000039A6040F29803C2F200039A6840F2BE
:102D60000403C2F200039B8AD21840F29803C2F215
:102D700000039A6040F22C03C2F200039A6840F20A
:102D80000403C2F20003DB8AD21840F22C03C2F221
:102D900000039A6040F22803C2F200031B6803F1AB
:102DA000010240F22803C2F200031A6040F2280335
:102DB000C2F200031B68642B40F09D8040F22803A0
:102DC000C2F200034FF000021A6040F2A803C2F200
:102DD0000003DA6948F21F53C5F2EB13A3FB021399
:102DE0004FEA531240F2A803C2F200039A6140F284
:102DF000A803C2F200034FF00002DA6140F2700350
:102E0000C2F20003DA6948F21F53C5F2EB13A3FBC9
:102E100002134FEA531240F27003C2F200039A61A8
:102E200040F27003C2F200034FF00002DA6140F298
:102E30003C03C2F20003DA6948F21F53C5F2EB13F8
:102E4000A3FB02134FEA531240F23C03C2F2000309
:102E50009A6140F23C03C2F200034FF00002DA61D3
:102E600040F26403C2F200039A6848F21F53C5F2AD
:102E7000EB13A3FB02134FEA531240F26403C2F2B6
:102E800000035A6040F26403C2F200034FF00002F4
:102E90009A6040F29803C2F200039A6848F21F5306
:102EA000C5F2EB13A3FB02134FEA531240F298034F
:102EB000C2F200035A6040F29803C2F200034FF0DE
:102EC00000029A6040F22C03C2F200039A6848F2B2
:102ED0001F53C5F2EB13A3FB02134FEA531240F248
:102EE0002C03C2F200035A6040F22C03C2F200032A
:102EF0004FF000029A6040F2A803C2F200035A6940
:102F000040F20403C2F200039B88D21840F2A803E7
:102F1000C2F200035A6140F27003C2F200035A6920
:102F200040F20403C2F200035B88D21840F270033F
:102F3000C2F200035A6140F23C03C2F200035A6934
:102F400040F20403C2F200031B88D21840F23C0393
:102F5000C2F200035A6140F22403C2F200031B686C
:102F600003F1010240F22403C2F200031A6040F2AE
:102F70002403C2F200031B68642B51D140F22403E6
:102F8000C2F200034FF000021A6040F2A803C2F23E
:102F900000035A6948F21F53C5F2EB13A3FB021357
:102FA0004FEA531240F2A803C2F20003DA6040F283
:102FB000A803C2F200034FF000025A6140F270030E
:102FC000C2F200035A6948F21F53C5F2EB13A3FB88
:102FD00002134FEA531240F27003C2F20003DA60A8
:102FE00040F27003C2F200034FF000025A6140F257
:102FF0003C03C2F200035A6948F21F53C5F2EB13B7
:10300000A3FB02134FEA531240F23C03C2F2000347
:10301000DA6040F23C03C2F200034FF000025A6152
:1030200080BD00BF80B483B000AF786039607A683B
:1030300044F6D353C1F26203A3FB02034FEA931396
:10304000DBB203F13003DAB23B681A703B681B78DD
:103050001A464FF61843CFF6FF7303FB02F31A46E6
:103060007B68D31803F53B4303F180037B603B6827
:1030700003F10102796848F21F53C5F2EB13A3FB79
:1030800001034FEA5313DBB203F13003DBB21370D9
:103090003B6803F101031B786FF0630202FB03F34B
:1030A0001A467B68D31803F596537B603B6803F19F
:1030B000020279684CF6CD43CCF6CC43A3FB010366
:1030C0004FEAD303DBB203F13003DBB213703B688A
:1030D00003F102031B786FF0090202FB03F31A46A7
:1030E0007B68D31803F5F0737B603B6803F103033F
:1030F0007A68D2B202F13002D2B21A703B6803F1A0
:1031000003031B787A68D31A03F130037B603B68B2
:1031100003F104034FF000021A703B68184607F1F0
:103120000C07BD4680BC704780B582B000AF034637
:10313000FB714FF44060C4F201004FF040014FF0CA
:103140000102FDF741FEFEF7FDF94FF43053C4F2E2
:10315000010340F2A802C2F2000252899A864FF49B
:103160003053C4F2010340F27002C2F200025289ED
:103170001A874FF43053C4F2010340F23C02C2F20A
:10318000000252899A8749F2E030C0F20400FEF74B
:103190009FFEFFF731F849F2E030C0F20400FEF77D
:1031A00097FE4FF001004FF0010144F2FC02C0F61F
:1031B0000002FEF7FDFFFB79184640F29001C2F2D3
:1031C0000001FFF72FFF03464FF010004FF0010101
:1031D0001A46FEF7EDFFFEE780B500AF40F2200390
:1031E000C2F200031B78042B1AD940F22003C2F26A
:1031F00000031B7803F10103DAB240F22003C2F2AC
:1032000000031A7040F22003C2F200031B78322B35
:1032100006D140F22003C2F200034FF000021A7000
:103220004FF080404FF00101FDF798FB4FF44063F1
:10323000C4F201039B6803F00803002B26D140F27F
:103240001E03C2F200031B78002B1FD140F22003A3
:10325000C2F200031B78002B18D140F21C03C2F20B
:1032600000034FF001021A7040F21C03C2F2000387
:103270001A7840F21E03C2F200031A7040F22003D3
:10328000C2F200034FF005021A7016E040F21C0370
:10329000C2F200034FF000021A704FF44063C4F210
:1032A00001039B6803F00803002B06D040F21E03C5
:1032B000C2F200034FF000021A7040F22103C2F282
:1032C00000031B78042B1AD940F22103C2F2000339
:1032D0001B7803F10103DAB240F22103C2F20003CA
:1032E0001A7040F22103C2F200031B78322B06D180
:1032F00040F22103C2F200034FF000021A704FF4B3
:103300004063C4F201039B6803F02003002B26D125
:1033100040F21F03C2F200031B78002B1FD140F2C2
:103320002103C2F200031B78002B18D140F21D03C9
:10333000C2F200034FF001021A7040F21D03C2F204
:1033400000031A7840F21F03C2F200031A7040F221
:103350002103C2F200034FF005021A7016E040F29A
:103360001D03C2F200034FF000021A704FF44063D5
:10337000C4F201039B6803F02003002B06D040F247
:103380001F03C2F200034FF000021A7080BD00BF9D
:1033900080B400AF4FF48053C4F202034FF4805264
:1033A000C4F20202126842F001021A604FF4805225
:1033B000C4F202024FF48053C4F2020359684FF082
:1033C0000003CFF6FF030B4053604FF48053C4F269
:1033D00002034FF48052C4F20202126822F0847297
:1033E00022F480321A604FF48053C4F202034FF487
:1033F0008052C4F20202126822F480221A604FF452
:103400008053C4F202034FF48052C4F202025268A5
:1034100022F4FE025A604FF48053C4F202034FF4C8
:103420001F029A604FF48053C4F202034FF000026F
:10343000DA62BD4680BC704780B483B000AF0346FB
:10344000FB714FF00003C4F24223FA791A6007F1CE
:103450000C07BD4680BC704780B485B000AF786073
:1034600039604FF00003FB604FF48053C4F2020355
:103470005B68FB60FB6823F47413FB607A683B684D
:103480001343FA681343FB604FF48053C4F2020302
:10349000FA685A6007F11407BD4680BC704700BF48
:1034A00080B483B000AF0346FB714FF06003C4F2F9
:1034B0004223FA791A6007F10C07BD4680BC7047B9
:1034C00080B485B000AF78604FF00003FB604FF42C
:1034D0008053C4F202035B68FB60FB6823F00303C4
:1034E000FB60FA687B681343FB604FF48053C4F2BF
:1034F0000203FA685A6007F11407BD4680BC7047A2
:1035000080B400AF4FF48053C4F202035B68DBB2B7
:1035100003F00C03DBB21846BD4680BC704700BF09
:1035200080B485B000AF78604FF00003FB604FF4CB
:103530008053C4F202035B68FB60FB6823F0F00376
:10354000FB60FA687B681343FB604FF48053C4F25E
:103550000203FA685A6007F11407BD4680BC704741
:1035600080B485B000AF78604FF00003FB604FF48B
:103570008053C4F202035B68FB60FB6823F4E063E2
:10358000FB60FA687B681343FB604FF48053C4F21E
:103590000203FA685A6007F11407BD4680BC704701
:1035A00080B485B000AF78604FF00003FB604FF44B
:1035B0008053C4F202035B68FB60FB6823F4605332
:1035C000FB607B684FEAC303FA681343FB604FF468
:1035D0008053C4F20203FA685A6007F11407BD462B
:1035E00080BC704780B485B000AF78604FF00003B6
:1035F000FB604FF48053C4F202035B68FB60FB681E
:1036000023F44043FB60FA687B681343FB604FF48C
:103610008053C4F20203FA685A6007F11407BD46EA
:1036200080BC704780B483B000AF78600B46FB70FD
:10363000FB78002B0CD04FF48053C4F202034FF4FC
:103640008052C4F2020251697A680A435A610DE05D
:103650004FF48053C4F202034FF48052C4F20202CA
:1036600051697A686FEA02020A405A6107F10C0751
:10367000BD4680BC704700BF80B483B000AF7860A7
:103680000B46FB70FB78002B0CD04FF48053C4F238
:1036900002034FF48052C4F2020291697A680A432D
:1036A0009A610DE04FF48053C4F202034FF480524C
:1036B000C4F2020291697A686FEA02020A409A61D2
:1036C00007F10C07BD4680BC704700BF80B483B0D3
:1036D00000AF78600B46FB70FB78002B0CD04FF4EA
:1036E0008053C4F202034FF48052C4F20202D16943
:1036F0007A680A43DA610DE04FF48053C4F20203A2
:103700004FF48052C4F20202D1697A686FEA020271
:103710000A40DA6107F10C07BD4680BC704700BF64
:1037200080B483B000AF78600B46FB70FB78002B51
:103730000CD04FF48053C4F202034FF48052C4F211
:103740000202D1687A680A43DA600DE04FF48053D0
:10375000C4F202034FF48052C4F20202D1687A68C4
:103760006FEA02020A40DA6007F10C07BD4680BC2E
:10377000704700BF80B483B000AF78600B46FB7029
:10378000FB78002B0CD04FF48053C4F202034FF4AB
:103790008052C4F2020211697A680A431A610DE08C
:1037A0004FF48053C4F202034FF48052C4F2020279
:1037B00011697A686FEA02020A401A6107F10C0780
:1037C000BD4680BC704700BF80B487B000AF0346E1
:1037D000FB714FF00003FB604FF000037B614FF083
:1037E0000003FB74FB794FEA5313DBB2FB60FB6809
:1037F000012B06D14FF48053C4F202031B687B6196
:103800000FE0FB68022B06D14FF48053C4F2020391
:103810001B6A7B6105E04FF48053C4F202035B6ACC
:103820007B61FB7903F01F03FB60FB687A6922FA76
:1038300003F303F00103002B03D04FF00103FB74EB
:1038400002E04FF00003FB74FB7C184607F11C07F5
:10385000BD4680BC704700BF80B582B000AF7860C5
:103860007A684FF41053C4F201039A420CD14FF41A
:1038700000704FF00101FFF753FF4FF400704FF05D
:103880000001FFF74DFF26E07A684FF42053C4F2A1
:1038900001039A420CD14FF480604FF00101FFF711
:1038A0003FFF4FF480604FF00001FFF739FF12E057
:1038B0007A684FF47053C4F201039A420BD14FF46B
:1038C00000404FF00101FFF72BFF4FF400404FF095
:1038D0000001FFF725FF07F10807BD4680BD00BFC7
:1038E00080B485B000AF786039604FF00003FB60B2
:1038F0004FF00003FB727B685B68FB60FB6823F49E
:10390000702323F48073FB603B681A683B681B7963
:103910004FEA03231343FA681343FB607B68FA689A
:103920005A607B689B68FB60FA684FF2FD73CFF6C4
:10393000F1731340FB603B68DA683B689B681A438D
:103940003B685B794FEA43031343FA681343FB6018
:103950007B68FA689A607B68DB6AFB60FB6823F42B
:103960007003FB603B681B7C03F1FF33DAB2FB7A28
:103970001343FB72FB7A4FEA0353FA681343FB606D
:103980007B68FA68DA6207F11407BD4680BC7047AD
:1039900080B483B000AF78600B46FB70FB78002BDF
:1039A00006D07B689B6843F001027B689A6005E063
:1039B0007B689B6823F001027B689A6007F10C0723
:1039C000BD4680BC704700BF80B483B000AF786054
:1039D0000B46FB70FB78002B06D07B689B6843F49A
:1039E00080727B689A6005E07B689B6823F4807234
:1039F0007B689A6007F10C07BD4680BC704700BF2A
:103A000080B483B000AF78607B689B6843F00802A5
:103A10007B689A6007F10C07BD4680BC704700BF09
:103A200080B483B000AF78607B689B6843F0040289
:103A30007B689A6007F10C07BD4680BC704700BFE9
:103A400080B483B000AF78600B46FB70FB78002B2E
:103A500006D07B689B6843F4A0027B689A6005E00F
:103A60007B689B6823F4A0027B689A6007F10C07CF
:103A7000BD4680BC704700BF80B485B000AF7860A1
:103A8000F970BA707B704FF00003FB604FF00003D9
:103A9000BB60FB78092B27D97B68DB68FB60FA7871
:103AA00013464FEA43039B18A3F11E034FF007028E
:103AB00002FA03F3BB60BB686FEA0303FA681340C2
:103AC000FB607978FA7813464FEA43039B18A3F119
:103AD0001E0301FA03F3BB60FA68BB681343FB6083
:103AE0007B68FA68DA6022E07B681B69FB60FA7821
:103AF00013464FEA43039B184FF0070202FA03F301
:103B0000BB60BB686FEA0303FA681340FB60797817
:103B1000FA7813464FEA43039B1801FA03F3BB609C
:103B2000FA68BB681343FB607B68FA681A61BB786C
:103B3000062B27D87B685B6BFB60BB7803F1FF32F9
:103B400013464FEA83039B184FF01F0202FA03F358
:103B5000BB60BB686FEA0303FA681340FB60F97847
:103B6000BB7803F1FF3213464FEA83039B1801FA37
:103B700003F3BB60FA68BB681343FB607B68FA68B9
:103B80005A6351E0BB780C2B27D87B681B6BFB601A
:103B9000BA7813464FEA83039B18A3F123034FF02F
:103BA0001F0202FA03F3BB60BB686FEA0303FA6803
:103BB0001340FB60F978BA7813464FEA83039B18E9
:103BC000A3F1230301FA03F3BB60FA68BB68134354
:103BD000FB607B68FA681A6326E07B68DB6AFB603F
:103BE000BA7813464FEA83039B18A3F141034FF0C1
:103BF0001F0202FA03F3BB60BB686FEA0303FA68B3
:103C00001340FB60F978BA7813464FEA83039B1898
:103C1000A3F1410301FA03F3BB60FA68BB681343E5
:103C2000FB607B68FA68DA6207F11407BD4680BC66
:103C3000704700BF80B485B000AF78604FF00003DC
:103C4000FB604FF40053C4F202031B68FB60FB6887
:103C500003F03803FB60FA687B681343FB604FF4A2
:103C60000053C4F20203FA681A6007F11407BD4654
:103C700080BC704780B483B000AF78604FF40053CD
:103C8000C4F202034FF40052C4F20202126822F09E
:103C900010021A604FF40053C4F202034FF40052B2
:103CA000C4F2020211687A680A431A6007F10C072D
:103CB000BD4680BC704700BF80B485B000AF78605F
:103CC00039604FF00003FB607B681B68FB60FB689A
:103CD00023F4FF4323F07003FB603B689A683B6862
:103CE0001B6A1A433B681B691A433B685B691A43AA
:103CF0003B689B691A433B68DB691A433B685B6A14
:103D00001A433B689B6A1343FA681343FB607B6862
:103D1000FA681A603B68DA687B685A603B681A6820
:103D20007B689A603B685A687B68DA6007F1140721
:103D3000BD4680BC704700BF80B483B000AF7860E0
:103D40000B46FB70FB78002B06D07B681B6843F0AA
:103D500001027B681A6006E07B681A684FF6FE7302
:103D600013407A68136007F10C07BD4680BC7047AA
:103D700080B487B000AF78604FF000037B614FF0F4
:103D800000033B614FF00F03FB607B68DB78002B87
:103D900047D04FF46D43CEF20003DB686FEA0303B4
:103DA00003F4E0634FEA13237B617B69C3F10403EF
:103DB0003B617B69FA6822FA03F3FB607B685B78FE
:103DC0001A463B6902FA03F37B617B689B781A46CB
:103DD000FB6813407A6913437B617B694FEA0313E5
:103DE0007B614FF46143CEF200037A68127811468A
:103DF0007A69D2B25B1883F800234FF46143CEF2A4
:103E000000037A6812784FEA5212D2B279680978C0
:103E100001F01F014FF0010000FA01F143F82210F8
:103E200014E04FF46143CEF200037A6812784FEA4F
:103E30005212D2B27968097801F01F014FF00100E7
:103E400000FA01F102F1200243F8221007F11C07E9
:103E5000BD4680BC704700BF415458205053552088
:103E60005465737465722056312E303000000000A6
:103E70002054797065506F7765723A20426174748E
:103E80006572790054657374204261747465727947
:103E90002E2E2E004261742E6C6F772E5475726E2A
:103EA000206F6E205053552100000000202020205C
:103EB0002020506F776572204F4B2020202020203B
:103EC0000000000054797065506F7765723A205099
:103ED0005355000054657374206368616E6E656CA1
:103EE0007320726573697374000000005265736912
:103EF0007374616E6365204F4B0000002050726543
:103F0000737320726967687420627574746F6E20B1
:103F1000000000002020666F722063686F6F736579
:103F200020706F77657220200000000020507265BD
:103F30007373206C65667420627574746F6E2020D4
:103F4000000000002020666F722073656C6563744A
:103F500020706F7765722020000000002020205024
:103F60006F7765723A20205B323530575D20202014
:103F700000000000202020506F7765723A20205BFF
:103F8000333030575D2020200000000020202050DA
:103F90006F7765723A20205B333530575D202020E3
:103FA00000000000202020506F7765723A20205BCF
:103FB000343030575D2020200000000020202050A9
:103FC0006F7765723A20205B343530575D202020B2
:103FD00000000000202043686F6F736520747970C3
:103FE000652075736572202000000000205B4E6F15
:103FF000726D616C5D2020536B696C6C6564202070
:104000000000000020204E6F726D616C20205B5319
:104010006B696C6C65645D20000000002020204FFF
:104020004B2E20416C6C2072656164792E2020201B
:104030000000000020205374617274696E67207460
:104040006573742E2020202000000000202053746F
:10405000617274696E6720746573742E2E2020203F
:104060000000000020205374617274696E67207430
:104070006573742E2E2E20200000000020537461E2
:10408000622D696F6E20766F6C74732E2E2E000079
:1040900020202020204C6F6164696E672E2E2E2018
:1040A00020202000502E472E2074696D653A202074
:1040B000000000006D730000502E472E20766F6CBC
:1040C00074733A20000000003556534220566F6C3E
:1040D00074733A00204F4B2E205465737420666928
:1040E0006E69736865642000202020204E6F207068
:1040F000726F626C656D732E2020200020457272F5
:0C4100006F72206E756D6265723A2000CF
:04410C00E40C0000BF
:0400000508000000EF
:00000001FF
