:020000040800F2
:100000001405002081090008F1090008F109000821
:10001000F1090008F1090008F109000800000000DA
:10002000000000000000000000000000F1090008CE
:10003000F109000800000000F1090008F1090008BA
:10004000F1090008F1090008F1090008F1090008A8
:10005000F1090008F1090008F1090008F109000898
:10006000F1090008F1090008F1090008F109000888
:10007000F1090008F1090008F1090008F109000878
:10008000F1090008F1090008F1090008000000006A
:10009000000000000000000000000000F10900085E
:1000A000F1090008F1090008F1090008F109000848
:1000B0008D580008F1090008F1090008F10900084D
:1000C000F1090008F1090008F1090008F109000828
:1000D000F1090008F1090008F1090008F109000818
:1000E000F1090008F1090008F1090008000000000A
:1000F0000000000000000000000000000000000000
:1001000000000000000000000000000000000000EF
:10011000000000000000000021580008715800088D
:100120005FF808F180B582B000AF78607A684FF46C
:100130003053C4F201039A420CD14FF400604FF0E7
:10014000010105F0CBFD4FF400604FF0000105F018
:10015000C5FD3BE17B68B3F1804F0CD14FF001004E
:100160004FF0010105F0E4FD4FF001004FF00001F8
:1001700005F0DEFD2AE17A684FF48063C4F20003E3
:100180009A420CD14FF002004FF0010105F0D0FD72
:100190004FF002004FF0000105F0CAFD16E17A6849
:1001A0004FF40063C4F200039A420CD14FF00400F4
:1001B0004FF0010105F0BCFD4FF004004FF00001CD
:1001C00005F0B6FD02E17A684FF44063C4F2000323
:1001D0009A420CD14FF008004FF0010105F0A8FD44
:1001E0004FF008004FF0000105F0A2FDEEE07A6844
:1001F0004FF48053C4F200039A420CD14FF0100028
:100200004FF0010105F094FD4FF010004FF0000198
:1002100005F08EFDDAE07A684FF4A053C4F20003D3
:100220009A420CD14FF020004FF0010105F080FD03
:100230004FF020004FF0000105F07AFDC6E07A682B
:100240004FF45053C4F201039A420CD14FF40050C2
:100250004FF0010105F042FD4FF400504FF0000156
:1002600005F03CFDB2E07A684FF49843C4F2010314
:100270009A420CD14FF400204FF0010105F02EFD01
:100280004FF400204FF0000105F028FD9EE07A6851
:100290004FF4A043C4F201039A420CD14FF48010F2
:1002A0004FF0010105F01AFD4FF480104FF00001EE
:1002B00005F014FD8AE07A684FF4A843C4F2010304
:1002C0009A420CD14FF400104FF0010105F006FDE9
:1002D0004FF400104FF0000105F000FD76E07A6861
:1002E0004FF4C053C4F200039A420CD14FF04000C7
:1002F0004FF0010105F01CFD4FF040004FF00001F0
:1003000005F016FD62E07A684FF4E053C4F2000392
:100310009A420CD14FF080004FF0010105F008FD2A
:100320004FF080004FF0000105F002FD4EE07A68CA
:100330004FF40053C4F200039A420CD14FF4807082
:100340004FF0010105F0F4FC4FF480704FF0000114
:1003500005F0EEFC3AE07A684FF48043C4F2010302
:100360009A420CD14FF480304FF0010105F0B6FCF9
:100370004FF480304FF0000105F0B0FC26E07A68C1
:100380004FF48843C4F201039A420CD14FF4003079
:100390004FF0010105F0A2FC4FF400304FF00001D6
:1003A00005F09CFC12E07A684FF49043C4F201031C
:1003B0009A420BD14FF480204FF0010105F08EFCE2
:1003C0004FF480204FF0000105F088FC07F108078A
:1003D000BD4680BD80B485B000AF786039604FF015
:1003E0000003FB817B681B88FB817A684FF43053E4
:1003F000C4F201039A421FD07A684FF45053C4F2FA
:1004000001039A4218D07B68B3F1804F14D07A6808
:100410004FF48063C4F200039A420DD07A684FF41F
:100420000063C4F200039A4206D07A684FF4406336
:10043000C4F200039A4208D1FB8923F07003FB81C8
:100440003B685A88FB891343FB817A684FF48053D9
:10045000C4F200039A420FD07A684FF4A053C4F25A
:1004600000039A4208D0FB8923F44073FB813B6868
:10047000DA88FB891343FB817B68FA891A803B6821
:100480009A887B689A853B681A887B681A857A689F
:100490004FF43053C4F201039A421BD07A684FF4F0
:1004A0005053C4F201039A4214D07A684FF4804347
:1004B000C4F201039A420DD07A684FF48843C4F223
:1004C00001039A4206D07A684FF49043C4F20103C4
:1004D0009A4204D13B681B7A1A467B681A867B686D
:1004E0004FF001029A8207F11407BD4680BC7047A5
:1004F00080B485B000AF786039604FF000037B8135
:100500004FF00003FB814FF00003BB817B681B8C25
:100510009BB223F001039AB27B681A847B681B8C20
:10052000FB817B689B88BB817B681B8B7B817B8984
:1005300023F070037B817B8923F003037B813B687D
:100540001A887B8913437B81FB8923F00203FB819B
:100550003B681A89FB891343FB813B685A88FB89F6
:100560001343FB817A684FF43053C4F201039A427B
:100570001BD07A684FF45053C4F201039A4214D04E
:100580007A684FF48043C4F201039A420DD07A682E
:100590004FF48843C4F201039A4206D07A684FF4BC
:1005A0009043C4F201039A4223D1FB8923F008034C
:1005B000FB813B685A89FB891343FB81FB8923F04C
:1005C0000403FB813B689A88FB891343FB81BB8949
:1005D00023F48073BB81BB8923F40073BB813B6828
:1005E0009A89BB891343BB813B68DA89BB89134372
:1005F000BB817B68BA899A807B687A891A833B6859
:10060000DA887B689A867B68FA891A8407F114076E
:10061000BD4680BC704700BF80B485B000AF786035
:1006200039604FF000037B814FF00003FB814FF0F6
:100630000003BB817B681B8C9BB223F010039AB232
:100640007B681A847B681B8CFB817B689B88BB81E1
:100650007B681B8B7B817B8923F4E0437B817B89D7
:1006600023F440737B813B681B884FEA03239AB2D3
:100670007B8913437B81FB8923F02003FB813B684B
:100680001B894FEA03139AB2FB891343FB813B6832
:100690005B884FEA03139AB2FB891343FB817A68A4
:1006A0004FF43053C4F201039A4206D07A684FF4F3
:1006B0005053C4F201039A422FD1FB8923F08003E7
:1006C000FB813B685B894FEA03139AB2FB891343B2
:1006D000FB81FB8923F04003FB813B689B884FEA49
:1006E00003139AB2FB891343FB81BB8923F4806314
:1006F000BB81BB8923F40063BB813B689B894FEAC4
:1007000083039AB2BB891343BB813B68DB894FEA01
:1007100083039AB2BB891343BB817B68BA899A80F1
:100720007B687A891A833B68DA887B681A877B68DA
:10073000FA891A8407F11407BD4680BC704700BFD0
:1007400080B485B000AF786039604FF000037B81E2
:100750004FF00003FB814FF00003BB817B681B8CD3
:100760009BB223F480739AB27B681A847B681B8CDB
:10077000FB817B689B88BB817B689B8B7B817B89B2
:1007800023F070037B817B8923F003037B813B682B
:100790001A887B8913437B81FB8923F40073FB81D7
:1007A0003B681B894FEA03239AB2FB891343FB8101
:1007B0003B685B884FEA03239AB2FB891343FB81B2
:1007C0007A684FF43053C4F201039A4206D07A6833
:1007D0004FF45053C4F201039A422FD1FB8923F402
:1007E0000063FB813B685B894FEA03239AB2FB8974
:1007F0001343FB81FB8923F48063FB813B689B8867
:100800004FEA03239AB2FB891343FB81BB8923F48C
:100810008053BB81BB8923F40053BB813B689B8918
:100820004FEA03139AB2BB891343BB813B68DB8950
:100830004FEA03139AB2BB891343BB817B68BA8921
:100840009A807B687A899A833B68DA887B689A8782
:100850007B68FA891A8407F11407BD4680BC70478B
:1008600080B483B000AF78600B46FB70FB78002B40
:1008700008D07B681B889BB243F001039AB27B6867
:100880001A8007E07B681B889BB223F001039AB2B1
:100890007B681A8007F10C07BD4680BC704700BF1B
:1008A00080B483B000AF78600B46FB70FB78002B00
:1008B0000CD07B68B3F844309BB26FEA43436FEAD5
:1008C00053439AB27B68A3F844200BE07B68B3F8EB
:1008D00044309BB24FEA43434FEA53439AB27B689A
:1008E000A3F8442007F10C07BD4680BC704700BF49
:1008F00080B483B000AF786013460A467A807B707C
:100900007B78002B08D07B689B899AB27B88134345
:100910009AB27B689A810AE07B689B899AB27B884D
:100920006FEA03039BB213409AB27B689A8107F186
:100930000C07BD4680BC704780B483B000AF7860C0
:100940000B467B807B886FEA03039AB27B681A822E
:1009500007F10C07BD4680BC704700BF80B483B070
:1009600000AF78600B467B807B886FEA03039AB206
:100970007B681A8207F10C07BD4680BC704700BF38
:1009800080B582B000AF46F6FC03C0F600037B6082
:1009900040F20003C2F200033B600BE07B681A6880
:1009A0003B681A603B6803F104033B607B6803F11A
:1009B00004037B603A6840F20403C2F200039A42E7
:1009C000ECD3094809494FF000028842B8BF40F80B
:1009D000042BFFF6FAAF00F00FF802F055FB07F119
:1009E0000807BD4680BD000004000020180100205B
:1009F00080B400AFFEE700BF80B500AF4FF4805376
:100A0000C4F202034FF48052C4F20202126842F0B0
:100A100001021A604FF48052C4F202024FF4805374
:100A2000C4F2020359684FF00003CFF6FF030B40F6
:100A300053604FF48053C4F202034FF48052C4F267
:100A40000202126822F0847222F480321A604FF49B
:100A50008053C4F202034FF48052C4F202021268BF
:100A600022F480221A604FF48053C4F202034FF440
:100A70008052C4F20202526822F4FE025A604FF41D
:100A80008053C4F202034FF41F029A604FF4805364
:100A9000C4F202034FF00002DA6200F009F84FF4EA
:100AA0006D43CEF200034FF000629A6080BD00BF3C
:100AB00080B500AF00F002F880BD00BF80B483B005
:100AC00000AF4FF000037B604FF000033B604FF43A
:100AD0008053C4F202034FF48052C4F2020212683F
:100AE00042F480321A604FF48053C4F202031B6850
:100AF00003F400333B607B6803F101037B603B68D8
:100B0000002B03D17B68B3F5A06FECD14FF4805379
:100B1000C4F202031B6803F40033002B03D04FF030
:100B200001033B6002E04FF000033B603B68012B98
:100B30006DD14FF48053C4F202034FF48052C4F2DB
:100B4000020252685A604FF48053C4F202034FF419
:100B50008052C4F2020252685A604FF48053C4F2C9
:100B600002034FF48052C4F2020252685A604FF4FA
:100B70008053C4F202034FF48052C4F2020252685E
:100B800022F47C125A604FF48053C4F202034FF4F3
:100B90008052C4F20202526842F498125A604FF432
:100BA0008053C4F202034FF48052C4F2020212686E
:100BB00042F080721A6000BF4FF48053C4F2020307
:100BC0001B6803F00073002BF6D04FF48053C4F27F
:100BD00002034FF48052C4F20202526822F0030270
:100BE0005A604FF48053C4F202034FF48052C4F2AF
:100BF0000202526842F002025A6000BF4FF4805372
:100C0000C4F202035B6803F00C03082BF6D107F172
:100C10000C07BD4680BC704780B489B000AF7860D7
:100C200039604FF00003FB614FF000033B614FF070
:100C30000003BB614FF00003FB604FF000037B61DA
:100C40004FF00003BB603B68DB7803F00F03FB61F0
:100C50003B68DB7803F01003002B04D03B689B78E3
:100C6000FA691343FB613B681B88DBB2002B4ED053
:100C70007B681B687B614FF00003BB6141E0BB698F
:100C80004FF0010202FA03F3FB603B681B881A462F
:100C9000FB6813403B613A69FB689A422DD1BB69FE
:100CA0004FEA8303FB60FB684FF00F0202FA03F385
:100CB000BB60BB686FEA03037A6913407B61FB6822
:100CC000FA6902FA03F37A6913437B613B68DB78C4
:100CD000282B07D1BB694FF0010202FA03F27B68AF
:100CE0005A610AE03B68DB78482B06D1BB694FF0BC
:100CF000010202FA03F27B681A61BB6903F1010386
:100D0000BB61BB69072BBAD97B687A691A603B68FB
:100D10001B88FF2B53D97B685B687B614FF0000316
:100D2000BB6146E0BB6903F108034FF0010202FA20
:100D300003F3FB603B681B881A46FB6813403B616A
:100D40003A69FB689A4230D1BB694FEA8303FB6082
:100D5000FB684FF00F0202FA03F3BB60BB686FEA57
:100D600003037A6913407B61FB68FA6902FA03F3B3
:100D70007A6913437B613B68DB78282B08D1BB6918
:100D800003F108034FF0010202FA03F27B685A6193
:100D90003B68DB78482B08D1BB6903F108034FF0AF
:100DA000010202FA03F27B681A61BB6903F10103D5
:100DB000BB61BB69072BB5D97B687A695A6007F1BB
:100DC0002407BD4680BC704780B483B000AF786014
:100DD00013460A467A807B707B78002B03D07A8892
:100DE0007B681A6102E07A887B685A6107F10C0718
:100DF000BD4680BC704700BF80B487B000AF78604C
:100E00000B46FB704FF000033B614FF00003FB60AB
:100E10004FF000037B614FF00003BB607B68002B49
:100E200006DA4FF00003C4F20103DB697B6105E0E1
:100E30004FF00003C4F201035B687B617B6803F43D
:100E400070234FEA1343BB607B684FEA03434FEACA
:100E500013433B617B6803F44013B3F5401F10D18B
:100E60007B6923F070637B614FF00003C4F20103E0
:100E70004FF00002C4F20102526822F070625A6020
:100E800026E07B6803F48013002B10D0BB684FF082
:100E9000030202FA03F3FB60FB686FEA03037A695B
:100EA00013407B617B6943F070637B6110E07B687A
:100EB0004FEA53534FEA03133A6902FA03F36FEA16
:100EC00003037A6913407B617B6943F070637B6144
:100ED000FB78002B0AD07B684FEA53534FEA031389
:100EE0003A6902FA03F37A6913437B617B68002B4A
:100EF00006DA4FF00003C4F201037A69DA6105E013
:100F00004FF00003C4F201037A695A6007F11C072D
:100F1000BD4680BC704700BF80B500AF4FF00100F8
:100F200005F086F94FF0010005F062F904F00EFDBE
:100F30004FF0010004F05EFD4FF0000004F0CEFD24
:100F40004FF0000004F0EAFD4FF0000004F006FE50
:100F50004FF4004004F024FE4FF000004FF48011E5
:100F600004F058FD4FF0010004F078FD00BF4FF091
:100F7000390004F007FF0346002BF8D04FF00200C1
:100F800004F07CFD00BF04F099FD0346082BFAD164
:100F900080BD00BF80B588B000AF4FF031004FF08A
:100FA000010104F071FE4FF400604FF0010104F004
:100FB00041FE4FF036033B704FF00203BB704FF021
:100FC0000103FB703B46184605F0B0F94FF03703BC
:100FD0003B704FF00003BB704FF00103FB703B46CA
:100FE000184605F0A3F94FF01C033B704FF00003C7
:100FF000BB704FF00103FB703B46184605F096F9B5
:101000004FF43050C4F20100FFF78CF840F6B733CC
:101010003B834FF00703BB824FF000037B834FF00D
:101020000003FB8207F114034FF43050C4F20100B7
:101030001946FFF7CFF94FF06003BB804FF0010373
:10104000FB804FF000037B814FF00003BB8107F171
:1010500004034FF43050C4F201001946FFF748FA78
:1010600007F104034FF43050C4F201001946FFF7B2
:10107000D3FA07F104034FF43050C4F201001946CB
:10108000FFF75EFB4FF43050C4F201004FF0010156
:10109000FFF7E6FB4FF43050C4F201004FF00101BE
:1010A000FFF7FEFB4FF00A033B8340F65F13BB8262
:1010B0004FF000037B834FF00003FB8207F1140322
:1010C0004FF48050C4F200001946FFF783F94FF443
:1010D0008050C4F200004FF00101FFF72DFC4FF4E7
:1010E0008050C4F200004FF001014FF00102FFF701
:1010F000FFFB4FF48050C4F200004FF00101FFF7F6
:10110000AFFB4FF002033B8345F6BF53BB824FF06A
:1011100000037B834FF00003FB8207F114034FF4BD
:10112000A050C4F200001946FFF754F94FF4A05044
:10113000C4F200004FF00101FFF7FEFB4FF4A05096
:10114000C4F200004FF001014FF00102FFF7D0FBA5
:101150004FF4A050C4F200004FF00101FFF780FBF4
:101160004FF005033B8340F65F13BB824FF0000353
:101170007B834FF00003FB8207F114034FF08040A4
:101180001946FFF727F94FF080404FF00101FFF7B4
:10119000D3FB4FF080404FF001014FF00102FFF709
:1011A000A7FB4FF080404FF00101FFF759FB07F11B
:1011B0002007BD4680BD00BF80B586B000AF4FF4AC
:1011C0001050C4F2010004F025FE4FF400704FF0FF
:1011D000010104F02FFD4FF001037B724FF000037B
:1011E0003B614FF46023FB604FF000037B604FF0E6
:1011F0000C033B754FF001033B7207F104034FF4FE
:101200001050C4F20100194604F048FE4FF410508B
:10121000C4F201004FF00D014FF001024FF007033F
:1012200004F008FF4FF41050C4F201004FF00C011D
:101230004FF002024FF0070304F0FCFE4FF4105091
:10124000C4F201004FF00B014FF003024FF007030F
:1012500004F0F0FE4FF41050C4F201004FF006010C
:101260004FF004024FF0070304F0E4FE4FF4105077
:10127000C4F201004FF00E014FF005024FF00703DA
:1012800004F0D8FE4FF41050C4F201004FF00701F3
:101290004FF006024FF0070304F0CCFE4FF410505D
:1012A000C4F201004FF003014FF007024FF00703B3
:1012B00004F0C0FE4FF41050C4F201004FF00201E0
:1012C0004FF008024FF0070304F0B4FE4FF4105043
:1012D000C4F201004FF001014FF009024FF0070383
:1012E00004F0A8FE4FF41050C4F201004FF00401C6
:1012F0004FF00A024FF0070304F09CFE4FF4105029
:10130000C4F201004FF00A014FF00B024FF0070347
:1013100004F090FE4FF41050C4F201004FF00001B1
:101320004FF00C024FF0070304F084FE4FF410500E
:10133000C4F201004FF0010104F008FE4FF4105018
:10134000C4F201004FF0010104F01CFE4FF41050F4
:10135000C4F2010004F032FE4FF41050C4F2010058
:1013600004F03CFE4FF41050C4F201004FF00101B4
:1013700004F044FE07F11807BD4680BD80B58CB06F
:1013800000AF4FF001004FF0010104F029FC4FF0D5
:101390000C033B614FF00003FB604FF00003FB6266
:1013A00040F20403C2F20003BB604FF480633B626F
:1013B0004FF08003BB614FF020037B6242F24C434D
:1013C000C4F201037B604FF48073FB614FF00003B4
:1013D0007B614FF40053BB6207F104034FF0080038
:1013E000C4F20200194604F045FF4FF00800C4F2B1
:1013F00002004FF0010104F07DFF07F13007BD4608
:1014000080BD00BF80B582B000AF4FF01D004FF02F
:10141000010104F00FFC4FF40070C0F230004FF0F7
:101420000101FFF7E9FC4FF44060C0F21A004FF0F1
:101430000101FFF7E1FC4FF4E063BB804FF00303D1
:10144000BB714FF01803FB7107F104034FF4006008
:10145000C4F201001946FFF7DFFB4FF01F03BB800A
:101460004FF00003FB714FF00303BB7107F104035E
:101470004FF48050C4F201001946FFF7CDFB4FF046
:10148000DF03BB804FF00003FB714FF00303BB7120
:1014900007F104034FF40060C4F201001946FFF79E
:1014A000BBFB4FF00303BB714FF01003FB7148F21D
:1014B0004033BB8007F104034FF44060C4F20100E5
:1014C0001946FFF7A9FB4FF00303BB714FF0100360
:1014D000FB714FF0C003BB8007F104034FF4805051
:1014E000C4F201001946FFF797FB4FF02803BB80B9
:1014F0004FF04803FB7107F104034FF44060C4F25E
:1015000001001946FFF788FB4FF02003BB804FF026
:101510001003FB7107F104034FF40060C4F20100F3
:101520001946FFF779FB4FF40060C4F201004FF059
:1015300020014FF00102FFF747FC4FF02003BB8072
:101540004FF01003FB7107F104034FF48050C4F215
:1015500001001946FFF760FB4FF48050C4F2010010
:101560004FF020014FF00102FFF72EFC4FF0010376
:10157000BB804FF01003FB7107F104034FF4406090
:10158000C4F201001946FFF747FB07F10807BD4603
:1015900080BD00BF80B400AF40F2F803C2F2000388
:1015A00040F6D8121A8040F2F803C2F2000340F667
:1015B00026425A8040F2F803C2F2000340F6374256
:1015C0009A8040F2F803C2F2000343F68E22DA80DA
:1015D00040F2F803C2F2000343F68E221A8140F271
:1015E000F803C2F200034FF000025A8140F2F80300
:1015F000C2F200039B881A4640F2F803C2F20003CD
:101600001A6140F2F803C2F200031A6940F2F803CB
:10161000C2F20003DA6040F2F803C2F200034FF0B6
:1016200000025A6140F2F803C2F200034FF00002D8
:101630009A6140F2F803C2F200034FF00002DA614F
:1016400040F2C003C2F2000340F6D5121A8040F205
:10165000C003C2F2000340F626425A8040F2C003A3
:10166000C2F2000340F633429A8040F2C003C2F255
:10167000000343F66B22DA8040F2C003C2F200039B
:1016800041F624521A8140F2C003C2F200034FF027
:1016900000025A8140F2C003C2F200039B881A463E
:1016A00040F2C003C2F200031A6140F2C003C2F26A
:1016B00000031A6940F2C003C2F20003DA6040F28C
:1016C000C003C2F200034FF000025A6140F2C003AF
:1016D000C2F200034FF000029A6140F2C003C2F26E
:1016E00000034FF00002DA6140F24803C2F2000347
:1016F00040F6D1121A8040F24803C2F2000340F6CD
:101700001C425A8040F24803C2F2000340F62E42C7
:101710009A8040F24803C2F2000343F6AC22DA801A
:1017200040F24803C2F2000340F6F2521A8140F23E
:101730004803C2F200034FF000025A8140F248030E
:10174000C2F200039B881A4640F24803C2F200032B
:101750001A6140F24803C2F200031A6940F24803DA
:10176000C2F20003DA6040F24803C2F200034FF015
:1017700000025A6140F24803C2F200034FF0000237
:101780009A6140F24803C2F200034FF00002DA61AE
:1017900040F2E803C2F2000346F6DC121A8040F27F
:1017A000E803C2F2000340F606625A8040F2E80302
:1017B000C2F200034FF000025A6040F2E803C2F2A6
:1017C00000034FF000029A6040F2E803C2F2000307
:1017D0004FF000021A7340F23003C2F2000343F6E6
:1017E00098221A8040F23003C2F2000343F6982296
:1017F0005A8040F23003C2F200034FF000025A60F8
:1018000040F23003C2F200034FF000029A6040F24F
:101810003003C2F200034FF00002DA8140F23003DD
:10182000C2F200034FF000021A7440F23003C2F219
:1018300000034FF000029A8140F2B403C2F20003A9
:1018400043F6FC221A8040F2B403C2F2000341F6D0
:1018500056525A8040F2B403C2F200034FF0000225
:101860005A6040F2B403C2F200034FF000029A60E3
:1018700040F27403C2F200034FF0FA021A8040F201
:101880007403C2F200034FF000029A6040F2740346
:10189000C2F200034FF000025A6040F27403C2F239
:1018A00000034FF000021A7340F27403C2F2000307
:1018B0004FF00002DA8140F27403C2F200034FF0ED
:1018C00000021A7440F27403C2F200034FF00002E7
:1018D0005A7440F27403C2F200034FF000029A748B
:1018E00040F27403C2F200034FF00002DA7440F2D7
:1018F0007403C2F200034FF000021A7540F2740341
:10190000C2F200034FF00002DA8240F26803C2F232
:1019100000034FF000021A7040F26803C2F20003A5
:101920004FF000025A7040F26803C2F200034FF019
:1019300000029A7040F26803C2F200034FF0000206
:10194000DA7040F26803C2F200034FF000021A712D
:1019500040F26803C2F200034FF000025A714FF4E4
:101960003053C4F201034FF000029A864FF4305313
:10197000C4F201034FF000021A874FF43053C4F24F
:1019800001034FF000029A87BD4680BC704700BF3C
:1019900080B584B000AFF860B9607A6040F20003AF
:1019A000C2F200031B68FA6802FB03F34FF0640203
:1019B00002FB03F24AF22943C5F2F013A3FB021320
:1019C0004FEA5343FB60BB684FF47A7202FB03F2A9
:1019D0007B68B2FBF3F303F57A72FB6802FB03F357
:1019E000FB60FA6844F6D353C1F26203A3FB02130F
:1019F0004FEA9313FB60F86800F084FBF860FB6823
:101A00009BB2184607F11007BD4680BD80B584B073
:101A100000AFF860B9607A603B6040F20003C2F248
:101A200000031B68FA6802FB03F34FF0640202FB39
:101A300003F24AF22943C5F2F013A3FB02034FEA73
:101A40005343FB607B684FF47A7202FB03F23B68FE
:101A5000B2FBF3F303F57A72FB6802FB03F3FB605E
:101A6000FA6844F6D353C1F26203A3FB02134FEAB0
:101A70009313FB60F86800F045FBF860FA6841F2E8
:101A80005973CDF2B713A3FB02034FEA5333DBB212
:101A900003F13003DAB2BB681A70BB681B781A46D0
:101AA0004DF6F003CFF6FF7303FB02F31A46FB6813
:101AB000D31803F5EA2303F54073FB60BB6803F119
:101AC0000102F96844F6D353C1F26203A3FB010398
:101AD0004FEA9313DBB203F13003DBB21370BB6840
:101AE00003F101031B781A464FF61843CFF6FF7334
:101AF00003FB02F31A46FB68D31803F53B4303F1DB
:101B00008003FB60BB6803F102034FF02E021A70E2
:101B1000BB6803F10302F96848F21F53C5F2EB13E7
:101B2000A3FB01034FEA5313DBB203F13003DBB233
:101B30001370BB6803F103031B786FF0630202FBB1
:101B400003F31A46FB68D31803F59653FB60BB6892
:101B500003F10402F9684CF6CD43CCF6CC43A3FB69
:101B600001034FEAD303DBB203F13003DBB213709E
:101B7000BB6803F105034FF056021A70BB6803F10E
:101B800006034FF000021A70BB68184607F11007F1
:101B9000BD4680BD80B584B000AF7860396040F24A
:101BA0000003C2F200031B687A6802FB03F240F2F2
:101BB0000113C0F21003A3FB0213D21A4FEA520220
:101BC0009B184FEAD323FB60FB683A68D31AFB608B
:101BD0003A6840F6D1139A4214D1FB68B3F5167FE8
:101BE00010DDFB68A3F5167246F26763C6F2666302
:101BF00083FB02134FEAA3014FEAE273CB1AFA68A0
:101C0000D318FB60FB68184600F07CFA0346FB60C3
:101C1000FB689BB2184607F11007BD4680BD00BFA8
:101C200080B483B000AF786039603A6840F6D11371
:101C30009A4215D17B68B3F5167F11D97A6813469D
:101C40004FEA83039B184FEA430303F5167248F6E5
:101C5000A333CBF62E23A3FB02134FEAD3037B60FF
:101C60003A687B68D31A7B607A6813464FEA03337D
:101C70009A1A40F20003C2F200031B68B2FBF3F3AE
:101C80007B607B689BB2184607F10C07BD4680BCA1
:101C9000704700BF80B584B000AF7860396040F213
:101CA0000003C2F200031B684FF0640202FB03F35F
:101CB000A3F57A737A6802FB03F24AF22943C5F26C
:101CC000F013A3FB02034FEA53437B607B684FF0A2
:101CD000650202FB03F240F20003C2F2000319683E
:101CE0007B68CB1AA3F10A03B2FBF3F213464FEA67
:101CF00083039B184FEA4303FB60F86800F002FA85
:101D0000F860FA6842F20F739A4200F28F80FA6824
:101D100041F25973CDF2B713A3FB02134FEA5333C9
:101D2000DBB203F13003DAB23B681A703B681B7810
:101D30001A464DF6F003CFF6FF7303FB02F31A4683
:101D4000FB68D31803F5EA2303F54073FB603B6897
:101D500003F10102F96844F6D353C1F26203A3FB15
:101D600001034FEA9313DBB203F13003DBB21370CC
:101D70003B6803F101031B781A464FF61843CFF670
:101D8000FF7303FB02F31A46FB68D31803F53B43CA
:101D900003F18003FB603B6803F10202F96848F23B
:101DA0001F53C5F2EB13A3FB01034FEA5313DBB23E
:101DB00003F13003DBB213703B6803F102031B78BD
:101DC0006FF0630202FB03F31A46FB68D31803F5B6
:101DD0009653FB603B6803F10302F9684CF6CD4370
:101DE000CCF6CC43A3FB01034FEAD303DBB203F1F0
:101DF0003003DBB213703B6803F103031B786FF011
:101E0000090202FB03F31A46FB68D31803F5F073CB
:101E1000FB603B6803F104034FF052021A703B6809
:101E200003F105034FF000021A7021E03B684FF008
:101E300020021A703B6803F101034FF04F021A7041
:101E40003B6803F102034FF04C021A703B6803F148
:101E500003034FF020021A703B6803F104034FF0B4
:101E600052021A703B6803F105034FF000021A702A
:101E70003B68184607F11007BD4680BD80B584B0A9
:101E800000AF786040F20003C2F200031B684FF01D
:101E9000640202FB03F3A3F57A737A6802FB03F290
:101EA0004AF22943C5F2F013A3FB02134FEA53434E
:101EB0007B607B684FF0650202FB03F240F2000397
:101EC000C2F2000319687B68CB1AA3F10A03B2FBC4
:101ED000F3F213464FEA83039B184FEA4303FB6078
:101EE000FA6844F620639A4202D94FF00003FB607F
:101EF000F86800F007F9F860FA684CF6CD43CCF6C4
:101F0000CC43A3FB02134FEAD303FB60FB681846E4
:101F100007F11007BD4680BD80B483B000AF034613
:101F20003960FB80FA8848F21F53C5F2EB13A3FB1C
:101F300002034FEA53139BB2DBB203F13003DAB270
:101F40003B681A703B681B781A464FEA4222D21A45
:101F50004FEA8202D2184FEAC202D31A4FEA830331
:101F60009AB2FB88D3189BB203F59653FB803B686B
:101F700003F10102F9884CF6CD43CCF6CC43A3FB28
:101F800001034FEAD3039BB2DBB203F13003DBB2B0
:101F900013703B6803F101031B781A464FEA423283
:101FA000D21A4FEA8202D31A4FEA43039AB2FB884D
:101FB000D3189BB203F5F073FB803B6803F1020377
:101FC000FA88D2B202F13002D2B21A703B6803F141
:101FD00003034FF06D021A703B6803F104034FF0E6
:101FE00053021A703B6803F105034FF000021A70A8
:101FF0003B68184607F10C07BD4680BC704700BF20
:1020000080B483B000AF786039607B684FEA5312C8
:1020100045F6C523C0F67C23A3FB02034FEAD31386
:10202000DBB203F13003DAB23B681A703B681B780D
:102030001A4647F66013CFF6FE7303FB02F31A4607
:102040007B68D31803F5920303F578537B603B68F4
:1020500003F10102796841F25973CDF2B713A3FB82
:1020600001034FEA5333DBB203F13003DBB21370E9
:102070003B6803F101031B781A464DF6F003CFF6D7
:10208000FF7303FB02F31A467B68D31803F5EA23B8
:1020900003F540737B603B6803F10202796844F604
:1020A000D353C1F26203A3FB01034FEA9313DBB2E4
:1020B00003F13003DBB213703B6803F102031B78BA
:1020C0001A464FF61843CFF6FF7303FB02F31A4686
:1020D0007B68D31803F53B4303F180037B603B68C7
:1020E00003F103034FF057021A703B6803F1040336
:1020F0004FF000021A703B68184607F10C07BD4606
:1021000080BC704780B48BB000AF786042F210732F
:102110003B627B68FB61FA694CF6CD43CCF6CC435D
:10212000A3FB02134FEAD303FB614FF000037B6272
:1021300027E07A683B6AB2FBF3F27B6A4FEA8303DB
:1021400007F12801CB1843F8202C7B6A4FEA830360
:1021500007F12802D31853F8203C3A6A02FB03F334
:102160007A68D31A7B603A6A4CF6CD43CCF6CC43FE
:10217000A3FB02134FEAD3033B627B6A03F1010323
:102180007B627B6A042BD4D9BB69042B03D9FB691E
:1021900003F10103FB61FA6913464FEA83039B18BD
:1021A0004FEA4303184607F12C07BD4680BC704731
:1021B00080B483B000AF78607B68002B02DA4FF008
:1021C000FF330CE07B68002B02D14FF0000306E0E8
:1021D0007B68002B02DD4FF0010300E0FFE71846AB
:1021E00007F10C07BD4680BC704700BF80B500AF4B
:1021F00040F2F803C2F200031A6940F2F803C2F297
:1022000000035B889A4243D240F20403C2F2000307
:102210009B881A4640F2F803C2F200031B69D31AE6
:102220001846FFF7C5FF0346002B39D0012B03D01A
:10223000B3F1FF3F17D038E040F2F803C2F20003D9
:102240005A8940F6B7339A422CD040F2F803C2F2D2
:1022500000035B8903F101039AB240F2F803C2F272
:1022600000035A811EE040F2F803C2F200035B89CA
:10227000002B19D040F2F803C2F200035B8903F18E
:10228000FF339AB240F2F803C2F200035A810BE026
:1022900040F2F803C2F200034FF000025A8104E05A
:1022A00000BF02E000BF00E000BF40F2C003C2F286
:1022B00000031A6940F2C003C2F200035B889A422D
:1022C00043D240F20403C2F200035B881A4640F294
:1022D000C003C2F200031B69D31A1846FFF768FF58
:1022E0000346002B39D0012B03D0B3F1FF3F17D0A9
:1022F00038E040F2C003C2F200035A8940F6B73317
:102300009A422CD040F2C003C2F200035B8903F171
:1023100001039AB240F2C003C2F200035A811EE0E8
:1023200040F2C003C2F200035B89002B19D040F2D7
:10233000C003C2F200035B8903F1FF339AB240F29B
:10234000C003C2F200035A810BE040F2C003C2F2A4
:1023500000034FF000025A8104E000BF02E000BF1A
:1023600000E000BF40F24803C2F200031A6940F2E5
:102370004803C2F200035B889A4243D240F204034E
:10238000C2F200031B881A4640F24803C2F200035F
:102390001B69D31A1846FFF70BFF0346002B39D0F1
:1023A000012B03D0B3F1FF3F17D038E040F24803D0
:1023B000C2F200035A8940F6B7339A422CD040F259
:1023C0004803C2F200035B8903F101039AB240F2B1
:1023D0004803C2F200035A811EE040F24803C2F2F1
:1023E00000035B89002B19D040F24803C2F20003BE
:1023F0005B8903F1FF339AB240F24803C2F2000353
:102400005A810BE040F24803C2F200034FF0000291
:102410005A8104E000BF02E000BF00E000BF4FF4BB
:102420003053C4F2010340F2F802C2F200025289B2
:102430009A864FF43053C4F2010340F2C002C2F254
:10244000000252891A874FF43053C4F2010340F25C
:102450004802C2F2000252899A8780BD80B483B0DC
:1024600000AF786039603B68B3F5AF7F31D0B3F52A
:10247000AF7F05DCFA2B0AD0B3F5967F18D05BE06E
:10248000B3F5C87F36D0B3F5E17F44D054E07B6824
:10249000022B06D0032B07D0012B08D140F2C62314
:1024A0004BE04FF4437348E04FF0B40345E043E0A2
:1024B0007B68022B06D0032B07D0012B08D140F2FA
:1024C0003E333AE04FF4E17337E04FF42A7334E0DF
:1024D00032E07B68022B06D0032B07D0012B08D1FA
:1024E0004FF47A7329E04FF4F07326E040F216338C
:1024F00023E021E07B68022B06D0032B07D0012BC1
:1025000008D14FF4916318E04FF40C7315E04FF4C9
:10251000487312E010E07B68022B06D0032B07D033
:10252000012B08D140F23C5307E040F24E2304E077
:1025300040F2663301E000BFFFE7184607F10C07E1
:10254000BD4680BC704700BF80B400AF40F2F803C6
:10255000C2F20003DA6940F20403C2F200031B8AEC
:10256000D21840F2F803C2F20003DA6140F2C0036D
:10257000C2F20003DA6940F20403C2F20003DB890D
:10258000D21840F2C003C2F20003DA6140F24803FD
:10259000C2F20003DA6940F20403C2F200039B892D
:1025A000D21840F24803C2F20003DA6140F2B403E9
:1025B000C2F200039A6840F20403C2F200035B8A8D
:1025C000D21840F2B403C2F200039A6040F2E8036A
:1025D000C2F200039A6840F20403C2F200039B8A2D
:1025E000D21840F2E803C2F200039A6040F23003CE
:1025F000C2F200039A6840F20403C2F20003DB8ACD
:10260000D21840F23003C2F200039A6040F2740321
:10261000C2F200035B6803F1010240F27403C2F2EC
:1026200000035A6040F27403C2F200035B68642B3B
:1026300040F09D8040F27403C2F200034FF00002AC
:102640005A6040F2F803C2F20003DA6948F21F53FD
:10265000C5F2EB13A3FB02134FEA531240F2F80347
:10266000C2F200039A6140F2F803C2F200034FF095
:102670000002DA6140F2C003C2F20003DA6948F2F4
:102680001F53C5F2EB13A3FB02134FEA531240F2A0
:10269000C003C2F200039A6140F2C003C2F2000319
:1026A0004FF00002DA6140F24803C2F20003DA6937
:1026B00048F21F53C5F2EB13A3FB02134FEA531268
:1026C00040F24803C2F200039A6140F24803C2F2AA
:1026D00000034FF00002DA6140F2B403C2F20003DB
:1026E0009A6848F21F53C5F2EB13A3FB02134FEA9B
:1026F000531240F2B403C2F200035A6040F2B40332
:10270000C2F200034FF000029A6040F2E803C2F206
:1027100000039A6848F21F53C5F2EB13A3FB0213A0
:102720004FEA531240F2E803C2F200035A6040F24B
:10273000E803C2F200034FF000029A6040F2300357
:10274000C2F200039A6848F21F53C5F2EB13A3FBD1
:1027500002134FEA531240F23003C2F200035A60F0
:1027600040F23003C2F200034FF000029A6040F2E0
:10277000F803C2F200035A6940F20403C2F20003F4
:102780009B88D21840F2F803C2F200035A6140F26B
:10279000C003C2F200035A6940F20403C2F200030C
:1027A0005B88D21840F2C003C2F200035A6140F2C3
:1027B0004803C2F200035A6940F20403C2F2000364
:1027C0001B88D21840F24803C2F200035A6140F25B
:1027D0007403C2F200039B6803F1010240F2740328
:1027E000C2F200039A6040F27403C2F200039B68D5
:1027F000642B51D140F27403C2F200034FF0000287
:102800009A6040F2F803C2F200035A6948F21F537B
:10281000C5F2EB13A3FB02134FEA531240F2F80385
:10282000C2F20003DA6040F2F803C2F200034FF094
:1028300000025A6140F2C003C2F200035A6948F232
:102840001F53C5F2EB13A3FB02134FEA531240F2DE
:10285000C003C2F20003DA6040F2C003C2F2000318
:102860004FF000025A6140F24803C2F200035A6975
:1028700048F21F53C5F2EB13A3FB02134FEA5312A6
:1028800040F24803C2F20003DA6040F24803C2F2A9
:1028900000034FF000025A61BD4680BC704700BF84
:1028A00080B400AF40F26803C2F200031B79042B2E
:1028B0001AD940F26803C2F200031B7903F1010345
:1028C000DAB240F26803C2F200031A7140F2680300
:1028D000C2F200031B79232B06D140F26803C2F237
:1028E00000034FF000021A714FF44063C4F2010379
:1028F0009B6803F00803002B2DD140F26803C2F25D
:1029000000039B78002B26D140F26803C2F200033B
:102910001B79002B1FD140F27003C2F200034FF06D
:1029200001021A7040F26803C2F200034FF0010284
:102930001A7040F26803C2F200031A7840F268038A
:10294000C2F200039A7040F26803C2F200034FF033
:1029500005021A711DE040F26803C2F200034FF055
:1029600000021A704FF44063C4F201039B6803F045
:102970000803002B06D040F26803C2F200034FF0B8
:1029800000029A7040F27003C2F200034FF000029E
:102990001A7040F26803C2F200035B79042B1AD963
:1029A00040F26803C2F200035B7903F10103DAB27B
:1029B00040F26803C2F200035A7140F26803C2F2A7
:1029C00000035B79232B06D140F26803C2F20003B7
:1029D0004FF000025A714FF44063C4F201039B6848
:1029E00003F02003002B2DD140F26803C2F2000354
:1029F000DB78002B26D140F26803C2F200035B793A
:102A0000002B1FD140F27003C2F200034FF001020D
:102A10005A7040F26803C2F200034FF001025A708C
:102A200040F26803C2F200035A7840F26803C2F22F
:102A30000003DA7040F26803C2F200034FF00502AF
:102A40005A711DE040F26803C2F200034FF0000229
:102A50005A704FF44063C4F201039B6803F02003F3
:102A6000002B06D040F26803C2F200034FF00002D0
:102A7000DA7040F27003C2F200034FF000025A70A5
:102A8000BD4680BC704700BF90B585B000AF03461F
:102A9000FB7140F2F803C2F200039C8840F2740319
:102AA000C2F200031B884FF003001946FFF7D6FC63
:102AB00003461A4640F2F803C2F200031B88104690
:102AC0001946FFF7ADF80346E31AFB8140F2F8031D
:102AD000C2F200039B884FF0640202FB03F2FB8901
:102AE000F97901FB03F3D21A48F21F53C5F2EB1335
:102AF00083FB02134FEA63114FEAE273CB1A1A46C3
:102B000040F2F803C2F200031A6140F2C003C2F2BD
:102B100000039C8840F27403C2F200031B884FF04C
:102B200002001946FFF79AFC03461A4640F2C0031A
:102B3000C2F200031B8810461946FFF771F80346DE
:102B4000E31AFB8140F2C003C2F200039B884FF0FE
:102B5000640202FB03F2FB89F97901FB03F3D21A49
:102B600048F21F53C5F2EB1383FB02134FEA6311C4
:102B70004FEAE273CB1A1A4640F2C003C2F20003D6
:102B80001A6140F24803C2F200039C8840F27403C9
:102B9000C2F200031B884FF001001946FFF75EFCEC
:102BA00003461A4640F24803C2F200031B8810464F
:102BB0001946FFF735F80346E31AFB8140F2480354
:102BC000C2F200039B884FF0640202FB03F2FB8910
:102BD000F97901FB03F3D21A48F21F53C5F2EB1344
:102BE00083FB02134FEA63114FEAE273CB1A1A46D2
:102BF00040F24803C2F200031A6107F11407BD4610
:102C000090BD00BF80B483B000AF78604FF48053B4
:102C1000C4F201034FF48052C4F20102D1684FF6AE
:102C20007F720A40796801F008014FEA01115218D9
:102C3000DA604FF48053C4F201034FF48052C4F2BF
:102C40000102D1684FF6BF720A40796801F00401B1
:102C50004FEA01115218DA604FF44063C4F20103E5
:102C60004FF44062C4F20102D2684FEA42424FEA96
:102C70005242796801F002014FEA81315218DA605C
:102C80004FF44063C4F201034FF44062C4F2010206
:102C9000D1684FF6BF720A40796801F001014FEA2E
:102CA00081115218DA6007F10C07BD4680BC7047ED
:102CB00080B483B000AF786003E07B6803F1FF333A
:102CC0007B607B68002BF8D107F10C07BD4680BC08
:102CD000704700BF80B582B000AF78604FF44060AD
:102CE000C4F201004FF400714FF00102FEF76CF8DE
:102CF0007B684FEA13131846FFF784FF4FF44060D8
:102D0000C4F201004FF480714FF00102FEF75CF84D
:102D10004FF00A00FFF7CCFF4FF44060C4F201000F
:102D20004FF480714FF00002FEF74EF87B6803F01D
:102D30000F031846FFF766FF4FF44060C4F201002E
:102D40004FF480714FF00102FEF73EF84FF00A0099
:102D5000FFF7AEFF4FF44060C4F201004FF4807102
:102D60004FF00002FEF730F84FF44060C4F201006B
:102D70004FF400714FF00002FEF726F84FF4967002
:102D8000FFF796FF07F10807BD4680BD80B582B00A
:102D900000AF78604FF44060C4F201004FF400715E
:102DA0004FF00002FEF710F87B684FEA1313184645
:102DB000FFF728FF4FF44060C4F201004FF4807128
:102DC0004FF00102FEF700F84FF00A00FFF770FF26
:102DD0004FF44060C4F201004FF480714FF00002E4
:102DE000FDF7F2FF7B6803F00F031846FFF70AFFB9
:102DF0004FF44060C4F201004FF480714FF00102C3
:102E0000FDF7E2FF4FF00A00FFF752FF4FF440607A
:102E1000C4F201004FF480714FF00002FDF7D4FFBF
:102E20004FF49670FFF744FF07F10807BD4680BDD9
:102E300080B500AF49F2E030C0F20400FFF738FF80
:102E40004FF44060C4F201004FF400714FF00002F3
:102E5000FDF7BAFF4FF44060C4F201004FF48071F7
:102E60004FF00102FDF7B0FF4FF00200FFF7CAFE7E
:102E70004FF44060C4F201004FF480714FF0000243
:102E8000FDF7A2FF4FF49670FFF712FF4FF02C00F2
:102E9000FFF77CFF4FF00C00FFF778FF4FF00600C4
:102EA000FFF774FF4FF00100FFF770FF49F2E030C9
:102EB000C0F20400FFF7FCFE80BD00BF80B483B009
:102EC00000AF13460246FA710A46BA717B7197F950
:102ED0000730002B21D097F90630002B1DD040F28F
:102EE0007403C2F200034FF001021A7397F906301F
:102EF00003F1FF3197F9073003F1FF3040F28C0204
:102F0000C2F200020B464FEA83035B184FEA8303C9
:102F10001B18D3187A791A7000E000BF07F10C076C
:102F2000BD4680BC704700BF90B482B000AF0B4676
:102F30003A600246FA71BB7140F27403C2F20003B8
:102F40004FF001021A731FE097F9063003F1FF31C9
:102F500097F9073003F1FF343B68187840F28C0290
:102F6000C2F200020B464FEA83035B184FEA830369
:102F70001B19D31802461A703B6803F101033B602A
:102F8000FB7903F10103FB713B681B78002BDBD15C
:102F900007F10807BD4690BC704700BF80B483B0FE
:102FA00000AF40F27403C2F200034FF001021A7343
:102FB0004FF00003FB710BE0FA7940F28C03C2F290
:102FC00000034FF020019954FB7903F10103FB71D9
:102FD000FB79132BF0D94FF00003FB710CE0FA7969
:102FE00040F28C03C2F200039B184FF020021A75C6
:102FF000FB7903F10103FB71FB79132BEFD907F187
:103000000C07BD4680BC704780B582B000AF40F26F
:103010007403C2F200034FF000021A734FF08000F5
:10302000FFF7B4FE4FF00003FB710CE0FA7940F2B9
:103030008C03C2F200039B5C1846FFF74BFEFB7942
:1030400003F10103FB71FB79132BEFD94FF0C000A3
:10305000FFF79CFE4FF00003FB710DE0FA7940F2A0
:103060008C03C2F200039B181B7D1846FFF732FE4B
:10307000FB7903F10103FB71FB79132BEED907F107
:103080000807BD4680BD00BF80B582B000AFFDF728
:1030900043FFFEF7B7F944F24023C0F20F037B6011
:1030A00003E07B6803F1FF337B607B68002BF8D182
:1030B000FFF7BEFEFEF780F8FEF760F9FDF76AFF46
:1030C00040F22C03C2F200034FF000021A7040F2EB
:1030D0007003C2F200034FF001029A7000E000BFDB
:1030E00040F27403C2F200035B7C012BF7D140F283
:1030F000E803C2F200031B7B012B21D140F2E8035D
:10310000C2F20003596840F2E803C2F200031B88D0
:103110001A4640F2E803C2F200035B8808461146F3
:103120001A46FEF735FC03461A4642F6BF339A426A
:1031300006D840F22C03C2F200034FF009021A70C5
:1031400040F23003C2F200031B7C012B21D140F27C
:103150003003C2F20003596840F23003C2F20003A8
:103160001B881A4640F23003C2F200035B8808460F
:1031700011461A46FEF70CFC03461A4640F65F134A
:103180009A4206D840F22C03C2F200034FF0170215
:103190001A7040F27403C2F20003DB8A012B0DD1D6
:1031A00040F26803C2F200035B78012B06D140F2C3
:1031B0002C03C2F200034FF024021A7040F22C03D9
:1031C000C2F200031B78262B00F2C78001A252F83E
:1031D00023F000BF71320008773200088332000804
:1031E0007D320008A1320008893200088F320008C1
:1031F000953200089B320008A7320008AD32000863
:10320000B3320008B9320008BF320008C5320008E6
:10321000CB320008D1320008D7320008DD32000876
:10322000E3320008E9320008EF320008F532000806
:10323000FB32000801330008073300080D33000893
:1032400013330008193300081F3300082533000822
:103250002B33000831330008373300083D330008B2
:1032600043330008493300084F3300085533000842
:1032700000F086F871E000F0B9F86EE000F0EAF8CE
:103280006BE000F087F968E000F010F965E000F00D
:1032900005FA62E000F090FA5FE000F0C1FA5CE04D
:1032A00002F09AFA59E002F04FFA56E002F0ECF917
:1032B00053E002F0A9F950E000F0EEFA4DE000F022
:1032C0003BFB4AE000F0AAFB47E000F0E5FB44E0EE
:1032D00000F064FC41E000F019FD3EE000F080FEEB
:1032E0003BE000F0ABFE38E000F0D6FE35E001F048
:1032F000C7F832E001F034F92FE001F0A9FE2CE02C
:1033000000F0A2FF29E000F0C3FF26E001F056F92B
:1033100023E001F087FB20E001F0FAFB1DE001F063
:1033200031FC1AE001F0CEFE17E001F055FF14E089
:1033300001F094FF11E002F02DF80EE002F04EF8DB
:103340000BE001F0E7FF08E002F004F905E002F00D
:1033500073F802E002F0ACF800BFFFF7A1FA40F208
:103360007403C2F200031B7B002B01D0FFF74CFE5D
:1033700040F27403C2F200034FF000025A74AEE64A
:1033800080B500AFFEF706F94FF001004FF00101E4
:1033900046F21442C0F60002FFF7C6FD4FF00100EE
:1033A0004FF0020146F22C42C0F60002FFF7BCFDCE
:1033B00040F27403C2F200034FF49672DA8140F2D5
:1033C0002C03C2F200034FF004021A7040F24403CF
:1033D000C2F200034FF001021A7040F27003C2F211
:1033E00000034FF000029A7080BD00BF80B500AFAF
:1033F00040F20403C2F200039B8A194640F2E8033C
:10340000C2F200031B881A4640F2E803C2F200032E
:103410005B88084611461A46FEF7BAFA0346B3F52A
:103420007A5F0ED940F22C03C2F200034FF0030280
:103430001A7040F2E803C2F200034FF001021A735F
:1034400006E040F22C03C2F200034FF002021A70B1
:1034500080BD00BF80B500AF4FF001004FF001010B
:1034600046F24442C0F60002FFF75EFD4FF0010055
:103470004FF0020146F25C42C0F60002FFF754FD35
:1034800040F27403C2F200034FF49672DA8140F204
:103490002C03C2F200034FF004021A7040F24403FE
:1034A000C2F200034FF005021A7080BD80B500AF74
:1034B0004FF001004FF0010146F27442C0F60002E5
:1034C000FFF732FD40F27403C2F200031B7C03F1EC
:1034D0000103DAB240F27403C2F200031A7440F23C
:1034E0007403C2F200031B7C4FEA9313DBB2032B7D
:1034F00036D801A252F823F0093500081F3500081C
:10350000353500084B3500084FF012004FF001012F
:1035100046F28842C0F60002FFF706FD20E04FF0B9
:1035200012004FF0010146F28C42C0F60002FFF794
:10353000FBFC15E04FF012004FF0010146F2904203
:10354000C0F60002FFF7F0FC0AE04FF012004FF067
:10355000010146F29442C0F60002FFF7E5FC00BF0D
:103560004FF001004FF0020146F29842C0F600020F
:10357000FFF7DAFC40F26803C2F200031B78012B6C
:1035800006D140F22C03C2F200034FF006021A707B
:1035900080BD00BF80B582B000AF40F2E803C2F248
:1035A0000003596840F2E803C2F200031B881A4680
:1035B00040F2E803C2F200035B88084611461A464F
:1035C000FEF7E6F90346FB80FA8842F6BF339A42DB
:1035D0002DD9FA8843F697239A4228D840F2E80377
:1035E000C2F200034FF001021A734FF001004FF0D6
:1035F000010146F2B042C0F60002FFF795FC4FF021
:1036000001004FF0020146F29842C0F60002FFF7B7
:103610008BFC40F26803C2F200031B78012B06D139
:1036200040F22C03C2F200034FF006021A70FA882F
:1036300042F6BF339A421AD84FF001004FF0010111
:1036400046F2C842C0F60002FFF76EFC4FF00100E0
:103650004FF0020146F2E042C0F60002FFF764FCC0
:1036600040F22C03C2F200034FF00A021A70FA88EB
:1036700043F697239A420DD940F2E803C2F20003C1
:103680004FF001021A7340F22C03C2F200034FF014
:1036900003021A7007F10807BD4680BD80B500AF70
:1036A0004FF001004FF0010146F2F842C0F600026F
:1036B000FFF73AFC40F26803C2F200035B78012B8B
:1036C0001BD140F27403C2F200031B8803F13203E2
:1036D0009AB240F27403C2F200031A8040F27403FB
:1036E000C2F200031B88B3F5FA7F06D140F27403DF
:1036F000C2F200034FF0FA021A8040F27403C2F2E1
:1037000000031B88B3F5AF7F25D0B3F5AF7F05DC91
:10371000FA2B0AD0B3F5967F12D03DE0B3F5C87FFF
:1037200024D0B3F5E17F2CD036E04FF001004FF00C
:10373000020146F21052C0F60002FFF7F5FB2BE043
:103740004FF001004FF0020146F22852C0F600028D
:10375000FFF7EAFB20E04FF001004FF0020146F2D4
:103760004052C0F60002FFF7DFFB15E04FF001000A
:103770004FF0020146F25852C0F60002FFF7D4FBA8
:103780000AE04FF001004FF0020146F27052C0F61D
:103790000002FFF7C9FB00BF40F26803C2F200035A
:1037A0001B78012B06D140F22C03C2F200034FF02C
:1037B00007021A7080BD00BF80B500AF4FF0010056
:1037C0004FF0010146F28852C0F60002FFF7ACFB51
:1037D0004FF001004FF0020146F2A052C0F6000285
:1037E000FFF7A2FB40F26803C2F200031B78012B33
:1037F00006D140F22C03C2F200034FF008021A7007
:1038000040F26803C2F200035B78012B06D140F25C
:103810002C03C2F200034FF006021A7080BD00BFF5
:1038200080B500AFFFF7BAFB4FF001004FF0010188
:1038300046F2B852C0F60002FFF776FB4FF00100E7
:103840004FF0020146F2D052C0F60002FFF76CFBC7
:1038500040F27003C2F200034FF001029A7040F28E
:103860007403C2F200034FF01E02DA8140F22C030F
:10387000C2F200034FF004021A7040F24403C2F295
:1038800000034FF00C021A7040F27403C2F20003FE
:103890004FF00102DA8280BD80B500AF40F27003C4
:1038A000C2F200039B78012B1CD140F27003C2F2DC
:1038B00000034FF000029A7040F27403C2F200035A
:1038C0004FF48772DA8140F22C03C2F200034FF00A
:1038D00004021A7040F24403C2F200034FF00C02DB
:1038E0001A7027E0FFF75AFB40F27003C2F20003A0
:1038F0004FF000029A704FF001004FF0010146F2C4
:10390000E852C0F60002FFF70FFB40F27403C2F268
:1039100000034FF09602DA8140F22C03C2F200035A
:103920004FF004021A7040F24403C2F200034FF059
:103930000D021A7080BD00BF80B500AF40F2B40325
:10394000C2F20003596840F2B403C2F200031B88BC
:103950001A4640F2B403C2F200035B8808461146DF
:103960001A46FEF715F803461A4641F28E239A428C
:1039700033D940F2B403C2F20003596840F2B403F1
:10398000C2F200031B881A4640F2B403C2F20003DD
:103990005B88084611461A46FDF7FAFF03461A46A9
:1039A00041F281439A4218D84FF001004FF00201D2
:1039B00046F20062C0F60002FFF7B6FA40F2440396
:1039C000C2F200034FF00F021A7040F22C03C2F251
:1039D00000034FF025021A7017E04FF001004FF07E
:1039E000020146F21862C0F60002FFF79DFA40F2AB
:1039F0004403C2F200034FF00E021A7040F22C038F
:103A0000C2F200034FF026021A7040F27403C2F2B1
:103A100000034FF0C802DA8180BD00BF80B500AF5F
:103A20004FF001004FF0010146F23062C0F6000293
:103A3000FFF77AFA40F2B403C2F20003596840F289
:103A4000B403C2F200031B881A4640F2B403C2F268
:103A500000035B88084640F2E001C2F20001FDF776
:103A6000D5FF03464FF00A004FF001011A46FFF759
:103A70005BFA4FF001004FF0020146F24862C0F6D7
:103A80000002FFF751FA40F22C03C2F200034FF09C
:103A90000B021A7080BD00BF80B500AFFFF77EFA41
:103AA0004FF001004FF0010146F26062C0F60002E3
:103AB000FFF73AFA40F27403C2F200034FF09602A5
:103AC000DA8140F22C03C2F200034FF004021A70B4
:103AD00040F24403C2F200034FF010021A7040F2A9
:103AE000F803C2F20003996940F2F803C2F200033E
:103AF000DB881A4640F2F803C2F200031B8908462D
:103B000011461A46FDF744FF0346632B3AD840F2AC
:103B1000C003C2F20003996940F2C003C2F200037D
:103B2000DB881A4640F2C003C2F200031B89084634
:103B300011461A46FDF72CFF0346632B22D840F2AC
:103B40004803C2F20003996940F24803C2F200033D
:103B5000DB881A4640F24803C2F200031B8908467C
:103B600011461A46FDF714FF0346632B0AD84FF49B
:103B70008050C4F201004FF020014FF00002FDF729
:103B800023F909E04FF48050C4F201004FF0200106
:103B90004FF00102FDF718F980BD00BF80B500AFFE
:103BA00040F20403C2F200035B891846FEF766F98F
:103BB0000346052B68D940F20403C2F200035B8977
:103BC0001846FEF75BF9024640F2E7339A425BD8AB
:103BD00040F20403C2F200031B891846FEF74EF9B7
:103BE0000346052B50D940F20403C2F200031B899F
:103BF0001846FEF743F9024640F2E7339A4243D8AB
:103C000040F20403C2F20003DB881846FEF736F9DF
:103C10000346052B38D940F20403C2F20003DB88C7
:103C20001846FEF72BF9024640F2E7339A422BD8AA
:103C30004FF48053C4F20103DB6803F01003002B40
:103C400022D14FF001004FF0020146F20062C0F6AF
:103C50000002FFF769F94FF48050C4F201004FF001
:103C600020014FF00102FDF7AFF840F22C03C2F241
:103C700000034FF025021A7040F24403C2F2000321
:103C80004FF013021A7039E04FF48053C4F201036D
:103C9000DB6803F02003002B18D04FF001004FF039
:103CA000020146F27862C0F60002FFF73DF940F2E9
:103CB0002C03C2F200034FF026021A7040F24403B4
:103CC000C2F200034FF021021A7017E04FF001001A
:103CD0004FF0020146F21862C0F60002FFF724F925
:103CE00040F22C03C2F200034FF026021A7040F299
:103CF0004403C2F200034FF011021A7040F2740341
:103D0000C2F200034FF0C802DA8180BD80B582B0F4
:103D100000AF4FF00003FB71FFF740F940F20403DE
:103D2000C2F20003DB881846FEF7A8F80346042B0E
:103D30000BD940F20403C2F20003DB881846FEF7F9
:103D40009DF80346B3F57A7F21D94FF006004FF076
:103D5000010146F29062C0F60002FFF7E5F840F27A
:103D60000403C2F20003DB88184640F2E001C2F20D
:103D70000001FDF78FFF03464FF00A004FF00101ED
:103D80001A46FFF7D1F8FB7903F10103FB7140F20A
:103D90000403C2F200031B891846FEF76FF80346BE
:103DA000042B0BD940F20403C2F200031B8918460E
:103DB000FEF764F80346B3F57A7F7DD9FB79002BD3
:103DC00002D0012B1FD073E04FF007004FF001012C
:103DD00046F29862C0F60002FFF7A6F840F204032C
:103DE000C2F200031B89184640F2E001C2F2000152
:103DF000FDF750FF03464FF00A004FF001011A464D
:103E0000FFF792F854E040F20403C2F200035B892A
:103E10001846FEF733F80346042B0BD940F204038F
:103E2000C2F200035B891846FEF728F80346B3F593
:103E30007A7F1ED94FF002004FF0020146F29862DD
:103E4000C0F60002FFF770F840F20403C2F200036C
:103E50001B89184640F2E001C2F20001FDF71AFF8B
:103E600003464FF005004FF002011A46FFF75CF8D9
:103E70001DE04FF007004FF0020146F29862C0F6D5
:103E80000002FFF751F840F20403C2F200031B895D
:103E9000184640F2E001C2F20001FDF7FBFE0346C6
:103EA0004FF00A004FF002011A46FFF73DF800BF3D
:103EB000FB7903F10103FB7140F20403C2F200033A
:103EC0005B891846FDF7DAFF0346042B0BD940F255
:103ED0000403C2F200035B891846FDF7CFFF0346D7
:103EE000B3F57A7F63D9FB79012B22D0022B3FD027
:103EF000002B5CD14FF006004FF0010146F29C62AE
:103F0000C0F60002FFF710F840F20403C2F200030B
:103F10005B89184640F2E001C2F20001FDF7BAFEEB
:103F200003464FF00A004FF001011A46FEF7FCFF6E
:103F30003DE04FF006004FF0020146F29C62C0F6F1
:103F40000002FEF7F1FF40F20403C2F200035B89B6
:103F5000184640F2E001C2F20001FDF79BFE034665
:103F60004FF00A004FF002011A46FEF7DDFF1EE097
:103F70004FF00B004FF0020146F29C62C0F60002C7
:103F8000FEF7D2FF40F20403C2F200035B89184639
:103F900040F2E001C2F20001FDF77CFE03464FF063
:103FA0000F004FF002011A46FEF7BEFF00BF4FF0B0
:103FB0000003FB7140F22C03C2F200034FF0120227
:103FC0001A704FF48050C4F201004FF020014FF0FE
:103FD0000102FCF7F9FE07F10807BD4680BD00BFEE
:103FE00080B500AF40F26803C2F200031B78012BDA
:103FF00006D040F26803C2F200035B78012B1CD1AB
:10400000FEF7CCFF4FF001004FF0010146F2A46231
:10401000C0F60002FEF788FF4FF001004FF00201EA
:1040200046F2BC62C0F60002FEF77EFF40F22C03AF
:10403000C2F200034FF00B021A7080BD80B500AFD2
:1040400040F23003C2F200034FF00002DA81FEF7C3
:10405000A5FF4FF001004FF0010146F2D462C0F617
:104060000002FEF761FF4FF40060C4F201004FF060
:1040700020014FF00002FCF7A7FE40F23003C2F22D
:1040800000034FF001029A8140F22C03C2F20003B8
:104090004FF014021A7080BD80B500AF40F23003BB
:1040A000C2F200039B89002B41D140F23003C2F2DF
:1040B0000003DB89642B1AD940F23003C2F20003FB
:1040C000DA8940F2F3139A4211D84FF001004FF011
:1040D000020146F20062C0F60002FEF725FF40F240
:1040E0002C03C2F200034FF025021A7010E04FF0CB
:1040F00001004FF0020146F21862C0F60002FEF71E
:1041000013FF40F22C03C2F200034FF026021A7094
:1041100040F27403C2F200034FF0C802DA8140F2A9
:104120004403C2F200034FF018021A708AE040F212
:104130003003C2F20003DB89642B3ED940F2300326
:10414000C2F20003DA8940F2F3139A4235D840F202
:104150000403C2F20003DB8A194640F23003C2F2C4
:1041600000031B881A4640F23003C2F200035B884A
:10417000084611461A46FDF70BFC0346B3F5166FC9
:104180001BD940F23003C2F200034FF000029A81C3
:1041900040F27403C2F200034FF0C802DA8140F229
:1041A0002C03C2F200034FF004021A7040F24403E1
:1041B000C2F200034FF014021A7040F23003C2F250
:1041C0000003DB89B3F57A7F20D840F23003C2F2D6
:1041D0000003DB89632B35D840F20403C2F20003ED
:1041E000DB8A194640F23003C2F200031B881A46EC
:1041F00040F23003C2F200035B88084611461A46BB
:10420000FDF7C6FB0346B3F5166F1BD940F230032A
:10421000C2F200034FF000029A8140F27403C2F22E
:1042200000034FF0C802DA8140F22C03C2F200030F
:104230004FF004021A7040F24403C2F200034FF040
:1042400014021A7080BD00BF80B500AFFEF7A6FE55
:104250004FF001004FF0010146F2EC62C0F600029F
:10426000FEF762FE40F27403C2F200034FF09602C2
:10427000DA8140F22C03C2F200034FF004021A70FC
:1042800040F24403C2F200034FF019021A7080BDDD
:1042900080B500AF40F2F803C2F20003996940F222
:1042A000F803C2F20003DB881A4640F2F803C2F2B8
:1042B00000031B89084611461A46FDF769FB0346B1
:1042C0001A4640F61C439A4240F2B98040F2F80385
:1042D000C2F20003996940F2F803C2F20003DB88DE
:1042E0001A4640F2F803C2F200031B890846114641
:1042F0001A46FDF74DFB03461A4640F6AB539A4269
:1043000000F29D8040F2C003C2F20003996940F2BE
:10431000C003C2F20003DB881A4640F2C003C2F2B7
:1043200000031B89084611461A46FDF731FB034678
:104330001A4641F25C239A4240F2818040F2C00367
:10434000C2F20003996940F2C003C2F20003DB88A5
:104350001A4640F2C003C2F200031B890846114608
:104360001A46FDF715FB03461A4641F27B539A4263
:1043700065D840F24803C2F20003996940F248034D
:10438000C2F20003DB881A4640F24803C2F200037F
:104390001B89084611461A46FDF7FAFA03461A46E3
:1043A00042F6F8239A424AD940F24803C2F2000387
:1043B000996940F24803C2F20003DB881A4640F2D2
:1043C0004803C2F200031B89084611461A46FDF74E
:1043D000DFFA03461A4643F22B339A422FD84FF0A6
:1043E00001004FF0020146F20062C0F60002FEF743
:1043F0009BFD40F22C03C2F200034FF025021A701D
:1044000040F23003C2F20003DB89B3F5FA7F06D82D
:1044100040F23003C2F20003DB89632B07D840F27D
:104420004403C2F200034FF015021A701FE040F27D
:104430004403C2F200034FF01C021A7017E04FF061
:1044400001004FF0020146F21862C0F60002FEF7CA
:104450006BFD40F22C03C2F200034FF026021A70EB
:1044600040F24403C2F200034FF01A021A7040F205
:104470007403C2F200034FF0C802DA8180BD00BFAE
:1044800080B500AFFEF78AFD40F23003C2F20003B0
:10449000DB89B3F57A7F0AD94FF001004FF00101B3
:1044A00046F20472C0F60002FEF73EFD1DE04FF03A
:1044B00001004FF0010146F21C72C0F60002FEF747
:1044C00033FD40F23003C2F20003DB89184640F2AC
:1044D000E001C2F20001FDF71FFD03464FF010009E
:1044E0004FF001011A46FEF71FFD4FF001004FF09B
:1044F000020146F22C72C0F60002FEF715FD40F2F2
:104500003003C2F20003596840F23003C2F20003E4
:104510001B881A4640F23003C2F200035B8808464B
:1045200040F2E001C2F20001FDF770FA03464FF0DD
:104530000E004FF002011A46FEF7F6FC4FF4006041
:10454000C4F201004FF020014FF00102FCF73CFCE7
:1045500040F22C03C2F200034FF016021A7080BD25
:1045600080B500AF40F26803C2F200031B78012B54
:1045700006D040F26803C2F200035B78012B1CD125
:10458000FEF70CFD4FF001004FF0010146F23C72C6
:10459000C0F60002FEF7C8FC4FF001004FF0020128
:1045A00046F25472C0F60002FEF7BEFC40F22C0345
:1045B000C2F200034FF00B021A7080BD80B582B0CA
:1045C00000AF4FF00003FB71FEF7E8FC40F2F80388
:1045D000C2F20003996940F2F803C2F20003DB88DB
:1045E0001A4640F2F803C2F200031B89084611463E
:1045F0001A46FDF7CDF903461A4640F61B439A4288
:104600001AD940F2F803C2F20003996940F2F803A4
:10461000C2F20003DB881A4640F2F803C2F200033C
:104620001B89084611461A46FDF7B2F903461A4699
:1046300040F6AC539A422CD94FF006004FF00101DE
:1046400046F29062C0F60002FEF76EFC40F2F803FC
:10465000C2F20003996940F2F803C2F20003DB885A
:104660001A4640F2F803C2F200031B89084640F2E2
:10467000E001C2F20001FDF7C9F903464FF00A005C
:104680004FF001011A46FEF74FFCFB7903F10103DD
:10469000FB7140F2C003C2F20003996940F2C0030B
:1046A000C2F20003DB881A4640F2C003C2F20003E4
:1046B0001B89084611461A46FDF76AF903461A4651
:1046C00041F25B239A421BD940F2C003C2F20003BD
:1046D000996940F2C003C2F20003DB881A4640F237
:1046E000C003C2F200031B89084611461A46FDF7B3
:1046F0004FF903461A4641F27C539A4240F2BE807B
:10470000FB79002B02D0012B2AD0B3E04FF0070039
:104710004FF0010146F29862C0F60002FEF704FC79
:1047200040F2C003C2F20003996940F2C003C2F232
:104730000003DB881A4640F2C003C2F200031B8963
:10474000084640F2E001C2F20001FDF75FF90346BE
:104750004FF00A004FF001011A46FEF7E5FB89E031
:1047600040F24803C2F20003996940F24803C2F2E2
:104770000003DB881A4640F24803C2F200031B899B
:10478000084611461A46FDF703F903461A4642F653
:10479000F7239A421AD940F24803C2F200039969FA
:1047A00040F24803C2F20003DB881A4640F2480395
:1047B000C2F200031B89084611461A46FDF7E8F8C5
:1047C00003461A4643F22C339A4229D94FF001008E
:1047D0004FF0020146F29862C0F60002FEF7A4FB19
:1047E00040F2C003C2F20003996940F2C003C2F272
:1047F0000003DB881A4640F2C003C2F200031B89A3
:10480000084640F2E001C2F20001FDF7FFF803465E
:104810004FF004004FF002011A46FEF785FB28E036
:104820004FF007004FF0020146F29862C0F6000216
:10483000FEF77AFB40F2C003C2F20003996940F22E
:10484000C003C2F20003DB881A4640F2C003C2F282
:1048500000031B89084640F2E001C2F20001FDF7A7
:10486000D5F803464FF00A004FF002011A46FEF752
:104870005BFB00BFFB7903F10103FB7140F24803CE
:10488000C2F20003996940F24803C2F20003DB88D8
:104890001A4640F24803C2F200031B89084611463B
:1048A0001A46FDF775F803461A4642F6F7239A4270
:1048B0001BD940F24803C2F20003996940F2480351
:1048C000C2F20003DB881A4640F24803C2F200033A
:1048D0001B89084611461A46FDF75AF803461A4640
:1048E00043F22C339A4240F28580FB79012B2DD084
:1048F000022B55D0002B7DD14FF006004FF0010167
:1049000046F29C62C0F60002FEF70EFB40F248033E
:10491000C2F20003996940F24803C2F20003DB8847
:104920001A4640F24803C2F200031B89084640F2CF
:10493000E001C2F20001FDF769F803464FF00A00FA
:104940004FF001011A46FEF7EFFA53E04FF0060070
:104950004FF0020146F29C62C0F60002FEF7E4FA54
:1049600040F24803C2F20003996940F24803C2F2E0
:104970000003DB881A4640F24803C2F200031B8999
:10498000084640F2E001C2F20001FDF73FF803469D
:104990004FF00A004FF002011A46FEF7C5FA29E06F
:1049A0004FF00B004FF0020146F29C62C0F600028D
:1049B000FEF7BAFA40F24803C2F20003996940F2E6
:1049C0004803C2F20003DB881A4640F24803C2F2F1
:1049D00000031B89084640F2E001C2F20001FDF726
:1049E00015F803464FF00F004FF002011A46FEF78C
:1049F0009BFA00BF4FF00003FB714FF40060C4F25C
:104A000001004FF020014FF00102FCF7DDF940F208
:104A10002C03C2F200034FF01B021A7007F10807C3
:104A2000BD4680BD80B500AF40F26803C2F200030E
:104A30001B78012B06D040F26803C2F200035B78BA
:104A4000012B2AD140F21C03C2F200031B78002B79
:104A500023D1FEF7A3FA40F21C03C2F200031B7835
:104A600003F10103DAB240F21C03C2F200031A7030
:104A70004FF001004FF0010146F26C72C0F60002E7
:104A8000FEF752FA4FF001004FF0020146F2847235
:104A9000C0F60002FEF748FA38E040F26803C2F2BE
:104AA00000031B78012B06D040F26803C2F200031A
:104AB0005B78012B2AD140F21C03C2F200031B7861
:104AC000012B23D140F21C03C2F200034FF000027D
:104AD0001A70FEF763FA4FF001004FF0010146F241
:104AE0009C72C0F60002FEF71FFA4FF001004FF073
:104AF000010146F2B472C0F60002FEF715FA40F268
:104B00002C03C2F200034FF00B021A7080BD00BFED
:104B100080B500AFFEF742FA4FF001004FF00101FF
:104B200046F2CC72C0F60002FEF7FEF940F27403C2
:104B3000C2F200034FF09602DA8140F22C03C2F277
:104B400000034FF004021A7040F24403C2F2000363
:104B50004FF01D021A7040F23003C2F200034FF012
:104B600001021A7440F27403C2F200034FF0010212
:104B7000DA7440F27403C2F200034FF000021A75B7
:104B800080BD00BF98B500AF40F27403C2F20003CD
:104B90004FF03202DA8140F22C03C2F200034FF0F0
:104BA00004021A7040F24403C2F200034FF01D02E7
:104BB0001A7040F27403C2F200031B7D1846FDF721
:104BC00063FF40F27403C2F200031B7D03F1010393
:104BD000DAB240F27403C2F200031A7540F2F8032D
:104BE000C2F20003996940F2F803C2F20003DB88C5
:104BF0001A4640F2F803C2F200031B890846114628
:104C00001A46FCF7C5FE03461C4640F2F803C2F202
:104C10000003DA6840F2F803C2F200031B88104672
:104C20001946FCF7B7FF03461A4613464FEA8303BB
:104C30009B184FEA430303FB04F244F6D353C1F23B
:104C4000620383FB02134FEAA3114FEAE273CB1A0C
:104C50001A4640F22003C2F200031A6040F2C00379
:104C6000C2F20003996940F2C003C2F20003DB887C
:104C70001A4640F2C003C2F200031B8908461146DF
:104C80001A46FCF785FE03461C4640F2C003C2F2FA
:104C90000003DA6840F2C003C2F200031B8810462A
:104CA0001946FCF777FF03461A4613464FEA83037B
:104CB0009B184FEA430303FB04F244F6D353C1F2BB
:104CC000620383FB02134FEAA3114FEAE273CB1A8C
:104CD0001A4640F22003C2F200031B68D21840F2C9
:104CE0002003C2F200031A6040F24803C2F200033C
:104CF000996940F24803C2F20003DB881A4640F289
:104D00004803C2F200031B89084611461A46FCF705
:104D10003FFE03461C4640F24803C2F20003DA6835
:104D200040F24803C2F200031B8810461946FCF704
:104D300031FF03461A4613464FEA83039B184FEA96
:104D4000430303FB04F244F6D353C1F2620383FB33
:104D500002134FEAA3114FEAE273CB1A1A4640F24C
:104D60002003C2F200031B68D21840F22003C2F2F3
:104D700000031A6040F22003C2F200031B681846C9
:104D800040F2E001C2F20001FDF73AF903464FF0AC
:104D900010004FF001011A46FEF7C6F840F2740306
:104DA000C2F200031A7D4CF6CD43CCF6CC43A3FBF4
:104DB00002134FEA9303DBB2DBB25BB218464FF04B
:104DC00002014FF03E02FEF779F840F27403C2F29E
:104DD00000031B7D642B06D140F27403C2F2000372
:104DE0004FF47A72DA8140F27403C2F200031B7D41
:104DF000142B40F22B8140F2F803C2F200039969B0
:104E000040F2F803C2F20003DB881A4640F2F803CE
:104E1000C2F200031B89084611461A46FCF7B8FD8A
:104E200003461A4640F644439A4240F2BA8040F2A2
:104E30000403C2F200031B8A194640F2F803C2F2CF
:104E40000003DB881A4640F2F803C2F200031B8914
:104E5000084611461A46FCF79BFD03461A4640F6E3
:104E60008D539A4200F29D8040F2C003C2F20003CB
:104E7000996940F2C003C2F20003DB881A4640F28F
:104E8000C003C2F200031B89084611461A46FCF70C
:104E90007FFD03461A4641F28E239A4240F28180FA
:104EA00040F20403C2F20003DB89194640F2C0035A
:104EB000C2F20003DB881A4640F2C003C2F20003CC
:104EC0001B89084611461A46FCF762FD03461A463E
:104ED00041F281439A4264D840F24803C2F200038F
:104EE000996940F24803C2F20003DB881A4640F297
:104EF0004803C2F200031B89084611461A46FCF714
:104F000047FD03461A4642F688439A4249D940F281
:104F10000403C2F200039B89194640F24803C2F21F
:104F20000003DB881A4640F24803C2F200031B89E3
:104F3000084611461A46FCF72BFD03461A4643F273
:104F400069139A422DD840F27403C2F200031B7D0C
:104F5000652B7BD14FF001004FF0020146F2006259
:104F6000C0F60002FDF7E0FF40F27403C2F2000356
:104F70004FF09602DA8140F22C03C2F200034FF0A8
:104F800025021A7040F23003C2F200034FF0000213
:104F90001A7440F24403C2F200034FF020021A7068
:104FA00054E040F23003C2F200034FF000021A74E2
:104FB00040F2F803C2F200039B699AB240F2240364
:104FC000C2F200031A8040F2C003C2F200039B69E0
:104FD0009AB240F22603C2F200031A8040F248035C
:104FE000C2F200039B699AB240F22803C2F20003A6
:104FF0001A804FF00000FDF747FD4FF40060C4F247
:1050000001004FF020014FF00102FBF7DDFE4FF0F1
:1050100001004FF0020146F21862C0F60002FDF7EF
:1050200083FF40F27403C2F200034FF06402DA819E
:1050300040F22C03C2F200034FF026021A7040F235
:105040004403C2F200034FF01E021A7098BD00BF65
:1050500080B500AF4FF40060C4F201004FF02001B2
:105060004FF00102FBF7B0FE4FF00000FDF70CFD22
:1050700040F23003C2F200034FF000021A74FDF751
:105080008DFF4FF001004FF0010146F2E472C0F6CF
:105090000002FDF749FF40F24403C2F200034FF063
:1050A00016021A7040F27403C2F200034FF0960227
:1050B000DA8140F22C03C2F200034FF004021A70AE
:1050C00080BD00BF80B500AFFDF768FF4FF0010065
:1050D0004FF0010146F2FC72C0F60002FDF724FF1A
:1050E00040F22003C2F200031B68184640F2E001C0
:1050F000C2F20001FCF784FF03464FF00D004FF0B1
:1051000001011A46FDF710FF40F22403C2F200032A
:105110001B88194640F2F803C2F20003DB881A46E6
:1051200040F2F803C2F200031B89084640F2E00196
:10513000C2F20001FCF76AFC03464FF001004FF099
:1051400002011A46FDF7F0FE40F22603C2F2000308
:105150001B88194640F2C003C2F20003DB881A46DE
:1051600040F2C003C2F200031B89084640F2E0018E
:10517000C2F20001FCF74AFC03464FF008004FF072
:1051800002011A46FDF7D0FE40F22803C2F20003E6
:105190001B88194640F24803C2F20003DB881A4616
:1051A00040F24803C2F200031B89084640F2E001C6
:1051B000C2F20001FCF72AFC03464FF00F004FF04B
:1051C00002011A46FDF7B0FE40F22C03C2F20003C2
:1051D0004FF01F021A7080BD80B500AF40F2680327
:1051E000C2F200031B78012B06D040F26803C2F222
:1051F00000035B78012B30D1FDF7D0FE4FF00100AA
:105200004FF0010146F60C02C0F60002FDF78CFEDD
:105210004FF001004FF0020146F62402C0F60002F2
:10522000FDF782FE40F22003C2F200031B6818461D
:1052300040F2E001C2F20001FCF7E2FE03464FF04B
:105240000A004FF002011A46FDF76EFE40F22C03F1
:10525000C2F200034FF00B021A7080BD80B500AFA0
:1052600040F27403C2F200034FF00002DA82FDF74D
:1052700095FE40F27403C2F200031B7D002B0CD09C
:1052800040F27403C2F200031B7D03F1FF33DAB274
:1052900040F27403C2F200031A7540F27403C2F2C2
:1052A00000031B7D1846FDF7EFFB4FF001004FF0A8
:1052B000010146F63C02C0F60002FDF735FE4FF054
:1052C00001004FF0020146F65402C0F60002FDF75D
:1052D0002BFE40F27403C2F200031B7D002B17D19A
:1052E00040F24403C2F200034FF023021A7040F26E
:1052F0007403C2F200031A8840F27403C2F200037E
:10530000DA8140F22C03C2F200034FF004021A705B
:1053100080BD00BF80B500AF40F27403C2F200034D
:105320004FF00002DA74FDF739FE4FF40060C4F26A
:1053300001004FF020014FF00102FBF745FD4FF057
:1053400001004FF0010146F66C02C0F60002FDF7C5
:10535000EBFD4FF001004FF0020146F68402C0F66B
:105360000002FDF7E1FD40F26803C2F200031B7882
:10537000012B06D040F26803C2F200035B78012BD8
:1053800006D140F22C03C2F200034FF006021A705D
:1053900080BD00BF80B500AFFDF700FE4FF00100FB
:1053A0004FF0010146F69C02C0F60002FDF7BCFD7D
:1053B00040F27403C2F200034FF0C802DA8140F2F7
:1053C0002C03C2F200034FF004021A7040F24403AF
:1053D000C2F200034FF022021A7080BD80B500AF08
:1053E00040F26803C2F200031B78012B06D040F2A2
:1053F0006803C2F200035B78012B1CD1FDF7CEFDE0
:105400004FF001004FF0010146F6B402C0F6000271
:10541000FDF78AFD4FF001004FF0020146F6B4029D
:10542000C0F60002FDF780FD40F22C03C2F200033B
:105430004FF00B021A7080BD80B400AF40F22A0317
:10544000C2F200031B7803F10103DAB240F22A032F
:10545000C2F200031A7040F22A03C2F200031B7862
:10546000012B06D140F27003C2F200034FF001029B
:105470009A7040F22A03C2F200031B78052B14D164
:1054800040F27003C2F200034FF000029A7040F243
:105490002A03C2F200034FF000021A7040F22C03FC
:1054A000C2F200034FF004021A70BD4680BC704780
:1054B00080B400AF40F22A03C2F200031B7803F16C
:1054C0000103DAB240F22A03C2F200031A7040F27A
:1054D0002A03C2F200031A784CF6CD43CCF6CC4333
:1054E000A3FB02134FEAD3010B464FEA83035B1879
:1054F0004FEA4303D31ADBB2002B28D140F27003EA
:10550000C2F200039B7883F00103DAB240F2700329
:10551000C2F200039A7040F22A03C2F200031B7821
:105520003C2B14D140F27003C2F200034FF0000292
:105530009A7040F22A03C2F200034FF000021A7080
:1055400040F22C03C2F200034FF004021A70BD4671
:1055500080BC704780B500AF40F27403C2F2000314
:105560004FF00002DA824FF48050C4F201004FF095
:1055700020014FF00102FBF727FC4FF40060C4F25A
:1055800001004FF020014FF00102FBF71DFC4FF02E
:105590000000FDF779FAFCF729FE40F2E803C2F2B9
:1055A00000034FF000021A7340F23003C2F200030E
:1055B0004FF000021A7440F27403C2F200034FF07D
:1055C0000002DA74FDF7EAFC4FF001004FF0010130
:1055D00046F6CC02C0F60002FDF7A6FC40F27403CA
:1055E000C2F200034FF09602DA8140F22C03C2F2BD
:1055F00000034FF026021A7040F24403C2F2000387
:105600004FF006021A7080BD80B500AF40F27403FF
:10561000C2F200034FF00002DA8240F27403C2F2D9
:1056200000034FF00002DA7440F26803C2F2000394
:105630001B78012B06D040F26803C2F200035B78AE
:10564000012B20D1FDF7AAFC4FF001004FF0010122
:1056500046F6E402C0F60002FDF766FC40F2740371
:10566000C2F200034FF0C802DA8140F22C03C2F20A
:1056700000034FF004021A7040F24403C2F2000328
:105680004FF006021A7080BD80B500AF40F2700383
:10569000C2F20003DB7803F10103DAB240F27003D7
:1056A000C2F20003DA7040F27003C2F20003DB784A
:1056B000082B13D140F27003C2F200034FF0000236
:1056C000DA7040F27003C2F200039B7883F00103AA
:1056D000DAB240F27003C2F200039A7040F2E803BB
:1056E000C2F20003596840F2E803C2F200031B88CB
:1056F0001A4640F2E803C2F200035B8808461146EE
:105700001A46FCF745F90346B3F52F5F1BD940F263
:105710007403C2F200034FF03202DA8140F22C032C
:10572000C2F200034FF004021A7040F24403C2F2C6
:1057300000034FF002021A7040F27003C2F200033D
:105740004FF000029A7080BD80B500AF4FF48050DA
:10575000C4F201004FF020014FF00102FBF734FBCF
:105760004FF40060C4F201004FF020014FF001023D
:10577000FBF72AFB4FF00000FDF786F9FCF736FD3A
:1057800040F2E803C2F200034FF000021A7340F245
:105790003003C2F200034FF000021A7440F27403A7
:1057A000C2F200034FF00002DA7440F27403C2F256
:1057B00000034FF03202DA8140F22C03C2F2000300
:1057C0004FF004021A7040F24403C2F200034FF09B
:1057D00002021A7080BD00BF80B400AF40F27403B3
:1057E000C2F20003DB89012B8CBF00220122D2B25E
:1057F00003F1FF3399B240F27403C2F20003D9817E
:10580000002A09D040F24403C2F200031A7840F2A1
:105810002C03C2F200031A70BD4680BC704700BF63
:1058200080B500AF4FF48050C4F200004FF001018A
:10583000FBF794F840F27403C2F20003DB7C012B07
:1058400001D1FCF7D3FC40F23003C2F200039B8984
:10585000012B0CD140F23003C2F20003DB8903F1CB
:1058600001039AB240F23003C2F20003DA8180BD34
:1058700080B500AF4FF4A050C4F200004FF001011A
:10588000FBF76CF8FCF760FE80BD00BF80B500AF91
:105890004FF080404FF00101FBF760F840F27003D9
:1058A000C2F200031B781A4640F27003C2F20003F2
:1058B0005B78D21840F27003C2F200039B78D318D1
:1058C000002B0CDD4FF44063C4F201034FF440623F
:1058D000C4F20102D26882F00102DA600CE04FF4F7
:1058E0004063C4F201034FF44062C4F20102D16884
:1058F0004FF6FE720A40DA6040F27403C2F200030F
:105900009B7C03F10103DAB240F27403C2F200039C
:105910009A7440F27403C2F200039B7C132B14D1DF
:1059200040F27403C2F200035B7C002B06D140F20C
:105930007403C2F200034FF001025A7440F2740380
:10594000C2F200034FF000029A7480BD80B400AF31
:105950004FF48053C4F202034FF48052C4F20202A7
:10596000126842F001021A604FF48052C4F202023F
:105970004FF48053C4F2020359684FF00003CFF68E
:10598000FF030B4053604FF48053C4F202034FF403
:105990008052C4F20202126822F0847222F4803231
:1059A0001A604FF48053C4F202034FF48052C4F2E1
:1059B0000202126822F480221A604FF48053C4F26B
:1059C00002034FF48052C4F20202526822F4FE0233
:1059D0005A604FF48053C4F202034FF41F029A60DE
:1059E0004FF48053C4F202034FF00002DA62BD4666
:1059F00080BC704780B483B000AF0346FB714FF0AA
:105A00000003C4F24223FA791A6007F10C07BD467D
:105A100080BC704780B485B000AF786039604FF0CB
:105A20000003FB604FF48053C4F202035B68FB6029
:105A3000FB6823F47413FB607A683B681343FA68CD
:105A40001343FB604FF48053C4F20203FA685A60B8
:105A500007F11407BD4680BC704700BF80B483B017
:105A600000AF0346FB714FF06003C4F24223FA79A2
:105A70001A6007F10C07BD4680BC704780B485B042
:105A800000AF78604FF00003FB604FF48053C4F226
:105A900002035B68FB60FB6823F00303FB60FA68AA
:105AA0007B681343FB604FF48053C4F20203FA682F
:105AB0005A6007F11407BD4680BC704780B400AF40
:105AC0004FF48053C4F202035B68DBB203F00C03B3
:105AD000DBB21846BD4680BC704700BF80B485B0BD
