:020000040800F2
:10000000FC04002081090008F1090008F10900083A
:10001000F1090008F1090008F109000800000000DA
:10002000000000000000000000000000F1090008CE
:10003000F109000800000000F1090008F1090008BA
:10004000F1090008F1090008F1090008F1090008A8
:10005000F1090008F1090008F1090008F109000898
:10006000F1090008F1090008F1090008F109000888
:10007000F1090008F1090008F1090008F109000878
:10008000F1090008F1090008F1090008000000006A
:10009000000000000000000000000000F10900085E
:1000A000F1090008F1090008F1090008F109000848
:1000B000792B0008F1090008F1090008F10900088E
:1000C000F1090008F1090008F1090008F109000828
:1000D000F1090008F1090008F1090008F109000818
:1000E000F1090008F1090008F1090008000000000A
:1000F0000000000000000000000000000000000000
:1001000000000000000000000000000000000000EF
:100110000000000000000000452B00085D2B0008D7
:100120005FF808F180B582B000AF78607A684FF46C
:100130003053C4F201039A420CD14FF400604FF0E7
:10014000010102F061FF4FF400604FF0000102F086
:100150005BFF3BE17B68B3F1804F0CD14FF00100B6
:100160004FF0010102F07AFF4FF001004FF0000163
:1001700002F074FF2AE17A684FF48063C4F200034E
:100180009A420CD14FF002004FF0010102F066FFDD
:100190004FF002004FF0000102F060FF16E17A68B4
:1001A0004FF40063C4F200039A420CD14FF00400F4
:1001B0004FF0010102F052FF4FF004004FF0000138
:1001C00002F04CFF02E17A684FF44063C4F200038E
:1001D0009A420CD14FF008004FF0010102F03EFFAF
:1001E0004FF008004FF0000102F038FFEEE07A68AF
:1001F0004FF48053C4F200039A420CD14FF0100028
:100200004FF0010102F02AFF4FF010004FF0000103
:1002100002F024FFDAE07A684FF4A053C4F200033E
:100220009A420CD14FF020004FF0010102F016FF6E
:100230004FF020004FF0000102F010FFC6E07A6896
:100240004FF45053C4F201039A420CD14FF40050C2
:100250004FF0010102F0D8FE4FF400504FF00001C2
:1002600002F0D2FEB2E07A684FF49843C4F2010380
:100270009A420CD14FF400204FF0010102F0C4FE6D
:100280004FF400204FF0000102F0BEFE9EE07A68BD
:100290004FF4A043C4F201039A420CD14FF48010F2
:1002A0004FF0010102F0B0FE4FF480104FF000015A
:1002B00002F0AAFE8AE07A684FF4A843C4F2010370
:1002C0009A420CD14FF400104FF0010102F09CFE55
:1002D0004FF400104FF0000102F096FE76E07A68CD
:1002E0004FF4C053C4F200039A420CD14FF04000C7
:1002F0004FF0010102F0B2FE4FF040004FF000015C
:1003000002F0ACFE62E07A684FF4E053C4F20003FE
:100310009A420CD14FF080004FF0010102F09EFE96
:100320004FF080004FF0000102F098FE4EE07A6836
:100330004FF40053C4F200039A420CD14FF4807082
:100340004FF0010102F08AFE4FF480704FF000017F
:1003500002F084FE3AE07A684FF48043C4F201036D
:100360009A420CD14FF480304FF0010102F04CFE64
:100370004FF480304FF0000102F046FE26E07A682C
:100380004FF48843C4F201039A420CD14FF4003079
:100390004FF0010102F038FE4FF400304FF0000141
:1003A00002F032FE12E07A684FF49043C4F2010387
:1003B0009A420BD14FF480204FF0010102F024FE4D
:1003C0004FF480204FF0000102F01EFE07F10807F5
:1003D000BD4680BD80B485B000AF786039604FF015
:1003E0000003FB817B681B88FB817A684FF43053E4
:1003F000C4F201039A421FD07A684FF45053C4F2FA
:1004000001039A4218D07B68B3F1804F14D07A6808
:100410004FF48063C4F200039A420DD07A684FF41F
:100420000063C4F200039A4206D07A684FF4406336
:10043000C4F200039A4208D1FB8923F07003FB81C8
:100440003B685A88FB891343FB817A684FF48053D9
:10045000C4F200039A420FD07A684FF4A053C4F25A
:1004600000039A4208D0FB8923F44073FB813B6868
:10047000DA88FB891343FB817B68FA891A803B6821
:100480009A887B689A853B681A887B681A857A689F
:100490004FF43053C4F201039A421BD07A684FF4F0
:1004A0005053C4F201039A4214D07A684FF4804347
:1004B000C4F201039A420DD07A684FF48843C4F223
:1004C00001039A4206D07A684FF49043C4F20103C4
:1004D0009A4204D13B681B7A1A467B681A867B686D
:1004E0004FF001029A8207F11407BD4680BC7047A5
:1004F00080B485B000AF786039604FF000037B8135
:100500004FF00003FB814FF00003BB817B681B8C25
:100510009BB223F001039AB27B681A847B681B8C20
:10052000FB817B689B88BB817B681B8B7B817B8984
:1005300023F070037B817B8923F003037B813B687D
:100540001A887B8913437B81FB8923F00203FB819B
:100550003B681A89FB891343FB813B685A88FB89F6
:100560001343FB817A684FF43053C4F201039A427B
:100570001BD07A684FF45053C4F201039A4214D04E
:100580007A684FF48043C4F201039A420DD07A682E
:100590004FF48843C4F201039A4206D07A684FF4BC
:1005A0009043C4F201039A4223D1FB8923F008034C
:1005B000FB813B685A89FB891343FB81FB8923F04C
:1005C0000403FB813B689A88FB891343FB81BB8949
:1005D00023F48073BB81BB8923F40073BB813B6828
:1005E0009A89BB891343BB813B68DA89BB89134372
:1005F000BB817B68BA899A807B687A891A833B6859
:10060000DA887B689A867B68FA891A8407F114076E
:10061000BD4680BC704700BF80B485B000AF786035
:1006200039604FF000037B814FF00003FB814FF0F6
:100630000003BB817B681B8C9BB223F010039AB232
:100640007B681A847B681B8CFB817B689B88BB81E1
:100650007B681B8B7B817B8923F4E0437B817B89D7
:1006600023F440737B813B681B884FEA03239AB2D3
:100670007B8913437B81FB8923F02003FB813B684B
:100680001B894FEA03139AB2FB891343FB813B6832
:100690005B884FEA03139AB2FB891343FB817A68A4
:1006A0004FF43053C4F201039A4206D07A684FF4F3
:1006B0005053C4F201039A422FD1FB8923F08003E7
:1006C000FB813B685B894FEA03139AB2FB891343B2
:1006D000FB81FB8923F04003FB813B689B884FEA49
:1006E00003139AB2FB891343FB81BB8923F4806314
:1006F000BB81BB8923F40063BB813B689B894FEAC4
:1007000083039AB2BB891343BB813B68DB894FEA01
:1007100083039AB2BB891343BB817B68BA899A80F1
:100720007B687A891A833B68DA887B681A877B68DA
:10073000FA891A8407F11407BD4680BC704700BFD0
:1007400080B485B000AF786039604FF000037B81E2
:100750004FF00003FB814FF00003BB817B681B8CD3
:100760009BB223F480739AB27B681A847B681B8CDB
:10077000FB817B689B88BB817B689B8B7B817B89B2
:1007800023F070037B817B8923F003037B813B682B
:100790001A887B8913437B81FB8923F40073FB81D7
:1007A0003B681B894FEA03239AB2FB891343FB8101
:1007B0003B685B884FEA03239AB2FB891343FB81B2
:1007C0007A684FF43053C4F201039A4206D07A6833
:1007D0004FF45053C4F201039A422FD1FB8923F402
:1007E0000063FB813B685B894FEA03239AB2FB8974
:1007F0001343FB81FB8923F48063FB813B689B8867
:100800004FEA03239AB2FB891343FB81BB8923F48C
:100810008053BB81BB8923F40053BB813B689B8918
:100820004FEA03139AB2BB891343BB813B68DB8950
:100830004FEA03139AB2BB891343BB817B68BA8921
:100840009A807B687A899A833B68DA887B689A8782
:100850007B68FA891A8407F11407BD4680BC70478B
:1008600080B483B000AF78600B46FB70FB78002B40
:1008700008D07B681B889BB243F001039AB27B6867
:100880001A8007E07B681B889BB223F001039AB2B1
:100890007B681A8007F10C07BD4680BC704700BF1B
:1008A00080B483B000AF78600B46FB70FB78002B00
:1008B0000CD07B68B3F844309BB26FEA43436FEAD5
:1008C00053439AB27B68A3F844200BE07B68B3F8EB
:1008D00044309BB24FEA43434FEA53439AB27B689A
:1008E000A3F8442007F10C07BD4680BC704700BF49
:1008F00080B483B000AF786013460A467A807B707C
:100900007B78002B08D07B689B899AB27B88134345
:100910009AB27B689A810AE07B689B899AB27B884D
:100920006FEA03039BB213409AB27B689A8107F186
:100930000C07BD4680BC704780B483B000AF7860C0
:100940000B467B807B886FEA03039AB27B681A822E
:1009500007F10C07BD4680BC704700BF80B483B070
:1009600000AF78600B467B807B886FEA03039AB206
:100970007B681A8207F10C07BD4680BC704700BF38
:1009800080B582B000AF43F60C13C0F600037B6065
:1009900040F20003C2F200033B600BE07B681A6880
:1009A0003B681A603B6803F104033B607B6803F11A
:1009B00004037B603A6840F20403C2F200039A42E7
:1009C000ECD3094809494FF000028842B8BF40F80B
:1009D000042BFFF6FAAF00F00FF801F067FD07F106
:1009E0000807BD4680BD0000040000200001002073
:1009F00080B400AFFEE700BF80B500AF4FF4805376
:100A0000C4F202034FF48052C4F20202126842F0B0
:100A100001021A604FF48052C4F202024FF4805374
:100A2000C4F2020359684FF00003CFF6FF030B40F6
:100A300053604FF48053C4F202034FF48052C4F267
:100A40000202126822F0847222F480321A604FF49B
:100A50008053C4F202034FF48052C4F202021268BF
:100A600022F480221A604FF48053C4F202034FF440
:100A70008052C4F20202526822F4FE025A604FF41D
:100A80008053C4F202034FF41F029A604FF4805364
:100A9000C4F202034FF00002DA6200F009F84FF4EA
:100AA0006D43CEF200034FF000629A6080BD00BF3C
:100AB00080B500AF00F002F880BD00BF80B483B005
:100AC00000AF4FF000037B604FF000033B604FF43A
:100AD0008053C4F202034FF48052C4F2020212683F
:100AE00042F480321A604FF48053C4F202031B6850
:100AF00003F400333B607B6803F101037B603B68D8
:100B0000002B03D17B68B3F5A06FECD14FF4805379
:100B1000C4F202031B6803F40033002B03D04FF030
:100B200001033B6002E04FF000033B603B68012B98
:100B30006DD14FF48053C4F202034FF48052C4F2DB
:100B4000020252685A604FF48053C4F202034FF419
:100B50008052C4F2020252685A604FF48053C4F2C9
:100B600002034FF48052C4F2020252685A604FF4FA
:100B70008053C4F202034FF48052C4F2020252685E
:100B800022F47C125A604FF48053C4F202034FF4F3
:100B90008052C4F20202526842F498125A604FF432
:100BA0008053C4F202034FF48052C4F2020212686E
:100BB00042F080721A6000BF4FF48053C4F2020307
:100BC0001B6803F00073002BF6D04FF48053C4F27F
:100BD00002034FF48052C4F20202526822F0030270
:100BE0005A604FF48053C4F202034FF48052C4F2AF
:100BF0000202526842F002025A6000BF4FF4805372
:100C0000C4F202035B6803F00C03082BF6D107F172
:100C10000C07BD4680BC704780B489B000AF7860D7
:100C200039604FF00003FB614FF000033B614FF070
:100C30000003BB614FF00003FB604FF000037B61DA
:100C40004FF00003BB603B68DB7803F00F03FB61F0
:100C50003B68DB7803F01003002B04D03B689B78E3
:100C6000FA691343FB613B681B88DBB2002B4ED053
:100C70007B681B687B614FF00003BB6141E0BB698F
:100C80004FF0010202FA03F3FB603B681B881A462F
:100C9000FB6813403B613A69FB689A422DD1BB69FE
:100CA0004FEA8303FB60FB684FF00F0202FA03F385
:100CB000BB60BB686FEA03037A6913407B61FB6822
:100CC000FA6902FA03F37A6913437B613B68DB78C4
:100CD000282B07D1BB694FF0010202FA03F27B68AF
:100CE0005A610AE03B68DB78482B06D1BB694FF0BC
:100CF000010202FA03F27B681A61BB6903F1010386
:100D0000BB61BB69072BBAD97B687A691A603B68FB
:100D10001B88FF2B53D97B685B687B614FF0000316
:100D2000BB6146E0BB6903F108034FF0010202FA20
:100D300003F3FB603B681B881A46FB6813403B616A
:100D40003A69FB689A4230D1BB694FEA8303FB6082
:100D5000FB684FF00F0202FA03F3BB60BB686FEA57
:100D600003037A6913407B61FB68FA6902FA03F3B3
:100D70007A6913437B613B68DB78282B08D1BB6918
:100D800003F108034FF0010202FA03F27B685A6193
:100D90003B68DB78482B08D1BB6903F108034FF0AF
:100DA000010202FA03F27B681A61BB6903F10103D5
:100DB000BB61BB69072BB5D97B687A695A6007F1BB
:100DC0002407BD4680BC704780B483B000AF786014
:100DD00013460A467A807B707B78002B03D07A8892
:100DE0007B681A6102E07A887B685A6107F10C0718
:100DF000BD4680BC704700BF80B487B000AF78604C
:100E00000B46FB704FF000033B614FF00003FB60AB
:100E10004FF000037B614FF00003BB607B68002B49
:100E200006DA4FF00003C4F20103DB697B6105E0E1
:100E30004FF00003C4F201035B687B617B6803F43D
:100E400070234FEA1343BB607B684FEA03434FEACA
:100E500013433B617B6803F44013B3F5401F10D18B
:100E60007B6923F070637B614FF00003C4F20103E0
:100E70004FF00002C4F20102526822F070625A6020
:100E800026E07B6803F48013002B10D0BB684FF082
:100E9000030202FA03F3FB60FB686FEA03037A695B
:100EA00013407B617B6943F070637B6110E07B687A
:100EB0004FEA53534FEA03133A6902FA03F36FEA16
:100EC00003037A6913407B617B6943F070637B6144
:100ED000FB78002B0AD07B684FEA53534FEA031389
:100EE0003A6902FA03F37A6913437B617B68002B4A
:100EF00006DA4FF00003C4F201037A69DA6105E013
:100F00004FF00003C4F201037A695A6007F11C072D
:100F1000BD4680BC704700BF80B500AF4FF00100F8
:100F200002F01CFB4FF0010002F0F8FA01F0A4FE01
:100F30004FF0010001F0F4FE4FF0000001F064FFFB
:100F40004FF0000001F080FF4FF0000001F09CFF27
:100F50004FF4004001F0BAFF4FF000004FF4801151
:100F600001F0EEFE4FF0010001F00EFF00BF4FF068
:100F7000390002F09DF80346002BF8D04FF0020034
:100F800001F012FF00BF01F02FFF0346082BFAD13A
:100F900080BD00BF80B588B000AF4FF031004FF08A
:100FA000010102F007F84FF400604FF0010101F079
:100FB000D7FF4FF036033B704FF00203BB704FF08A
:100FC0000103FB703B46184602F046FB4FF0370327
:100FD0003B704FF00103BB704FF00103FB703B46C9
:100FE000184602F039FB4FF01C033B704FF0000332
:100FF000BB704FF00103FB703B46184602F02CFB20
:101000004FF43050C4F20100FFF78CF840F6B733CC
:101010003B834FF00703BB824FF000037B834FF00D
:101020000003FB8207F114034FF43050C4F20100B7
:101030001946FFF7CFF94FF06003BB804FF0010373
:10104000FB804FF000037B814FF00003BB8107F171
:1010500004034FF43050C4F201001946FFF748FA78
:1010600007F104034FF43050C4F201001946FFF7B2
:10107000D3FA07F104034FF43050C4F201001946CB
:10108000FFF75EFB4FF43050C4F201004FF0010156
:10109000FFF7E6FB4FF43050C4F201004FF00101BE
:1010A000FFF7FEFB4FF00A033B8340F65F13BB8262
:1010B0004FF000037B834FF00003FB8207F1140322
:1010C0004FF48050C4F200001946FFF783F94FF443
:1010D0008050C4F200004FF00101FFF72DFC4FF4E7
:1010E0008050C4F200004FF001014FF00102FFF701
:1010F000FFFB4FF48050C4F200004FF00101FFF7F6
:10110000AFFB4FF002033B8345F6BF53BB824FF06A
:1011100000037B834FF00003FB8207F114034FF4BD
:10112000A050C4F200001946FFF754F94FF4A05044
:10113000C4F200004FF00101FFF7FEFB4FF4A05096
:10114000C4F200004FF001014FF00102FFF7D0FBA5
:101150004FF4A050C4F200004FF00101FFF780FBF4
:101160004FF00A033B8345F6BF53BB824FF00003A9
:101170007B834FF00003FB8207F114034FF08040A4
:101180001946FFF727F94FF080404FF00101FFF7B4
:10119000D3FB4FF080404FF001014FF00102FFF709
:1011A000A7FB4FF080404FF00101FFF759FB07F11B
:1011B0002007BD4680BD00BF80B586B000AF4FF4AC
:1011C0001050C4F2010001F0BBFF4FF400704FF06B
:1011D000010101F0C5FE4FF001037B724FF00003E7
:1011E0003B614FF46023FB604FF000037B604FF0E6
:1011F0000C033B754FF001033B7207F104034FF4FE
:101200001050C4F20100194601F0DEFF4FF41050F7
:10121000C4F201004FF00A014FF001024FF0070342
:1012200002F09EF84FF41050C4F201004FF00B0191
:101230004FF002024FF0070302F092F84FF4105003
:10124000C4F201004FF00C014FF003024FF007030E
:1012500002F086F84FF41050C4F201004FF0000184
:101260004FF004024FF0070302F07AF84FF41050E9
:10127000C4F201004FF001014FF005024FF00703E7
:1012800002F06EF84FF41050C4F201004FF002016A
:101290004FF006024FF0070302F062F84FF41050CF
:1012A000C4F201004FF003014FF007024FF00703B3
:1012B00002F056F84FF41050C4F201004FF0040150
:1012C0004FF008024FF0070302F04AF84FF41050B5
:1012D000C4F201004FF005014FF009024FF007037F
:1012E00002F03EF84FF41050C4F201004FF0060136
:1012F0004FF00A024FF0070302F032F84FF410509B
:10130000C4F201004FF007014FF00B024FF007034A
:1013100002F026F84FF41050C4F201004FF00D0116
:101320004FF00C024FF0070302F01AF84FF4105080
:10133000C4F201004FF0010101F09EFF4FF4105084
:10134000C4F201004FF0010101F0B2FF4FF4105060
:10135000C4F2010001F0C8FF4FF41050C4F20100C4
:1013600001F0D2FF4FF41050C4F201004FF0010120
:1013700001F0DAFF07F11807BD4680BD80B58CB0DB
:1013800000AF4FF001004FF0010101F0BFFD4FF041
:101390000C033B614FF00003FB604FF00003FB6266
:1013A00040F20403C2F20003BB604FF480633B626F
:1013B0004FF08003BB614FF020037B6242F24C434D
:1013C000C4F201037B604FF48073FB614FF00003B4
:1013D0007B614FF40053BB6207F104034FF0080038
:1013E000C4F20200194602F0DBF84FF00800C4F224
:1013F00002004FF0010102F013F907F13007BD467A
:1014000080BD00BF80B582B000AF4FF01D004FF02F
:10141000010101F0A5FD4FF40070C0F230004FF063
:101420000101FFF7E9FC4FF44060C0F21A004FF0F1
:101430000101FFF7E1FC4FF4E063BB804FF00303D1
:10144000BB714FF01803FB7107F104034FF4006008
:10145000C4F201001946FFF7DFFB4FF00F03BB801A
:101460004FF00003FB714FF00303BB7107F104035E
:101470004FF48050C4F201001946FFF7CDFB4FF046
:10148000FF03BB804FF00003FB714FF00303BB7100
:1014900007F104034FF40060C4F201001946FFF79E
:1014A000BBFB4FF00303BB714FF01003FB714FF414
:1014B0004073BB8007F104034FF44060C4F20100A5
:1014C0001946FFF7A9FB4FF00303BB714FF0100360
:1014D000FB714FF0F003BB8007F104034FF4805021
:1014E000C4F201001946FFF797FB4FF02803BB80B9
:1014F0004FF04803FB7107F104034FF44060C4F25E
:1015000001001946FFF788FB4FF04003BB804FF006
:101510001003FB7107F104034FF44060C4F20100B3
:101520001946FFF779FB4FF44060C4F201004FF019
:1015300040014FF00102FFF747FC07F10807BD46E5
:1015400080BD00BF80B400AF40F2E003C2F20003F0
:1015500040F6D8121A8040F2E003C2F2000340F6CF
:1015600026425A8040F2E003C2F2000340F63742BE
:101570009A8040F2E003C2F2000343F66622DA806A
:1015800040F2E003C2F2000343F6AC221A8140F2BB
:10159000E003C2F200034FF000025A8140F2E00380
:1015A000C2F200039B881A4640F2E003C2F2000335
:1015B0001A6140F2E003C2F200031A6940F2E0034C
:1015C000C2F20003DA6040F2E003C2F200034FF01F
:1015D00000025A6140F2E003C2F200034FF0000241
:1015E0009A6140F2E003C2F200034FF00002DA61B8
:1015F00040F2A803C2F2000340F6D5121A8040F26E
:10160000A803C2F2000340F626425A8040F2A80323
:10161000C2F2000340F633429A8040F2A803C2F2BD
:10162000000343F6A222DA8040F2A803C2F20003CC
:1016300041F656521A8140F2A803C2F200034FF05D
:1016400000025A8140F2A803C2F200039B881A46A6
:1016500040F2A803C2F200031A6140F2A803C2F2EA
:1016600000031A6940F2A803C2F20003DA6040F2F4
:10167000A803C2F200034FF000025A6140F2A8032F
:10168000C2F200034FF000029A6140F2A803C2F2D6
:1016900000034FF00002DA6140F23403C2F20003AB
:1016A00040F6D1121A8040F23403C2F2000340F631
:1016B0001C425A8040F23403C2F2000340F62E422C
:1016C0009A8040F23403C2F2000343F68E22DA809D
:1016D00040F23403C2F2000340F606621A8140F27F
:1016E0003403C2F200034FF000025A8140F2340387
:1016F000C2F200039B881A4640F23403C2F2000390
:101700001A6140F23403C2F200031A6940F2340352
:10171000C2F20003DA6040F23403C2F200034FF079
:1017200000025A6140F23403C2F200034FF000029B
:101730009A6140F23403C2F200034FF00002DA6112
:1017400040F2D003C2F2000343F6FC221A8040F2BA
:10175000D003C2F2000340F606625A8040F2D00382
:10176000C2F200034FF000025A6040F2D003C2F20E
:1017700000034FF000029A6040F2D003C2F200036F
:101780004FF000021A7340F2D003C2F200034FF090
:1017900000025A7340F22003C2F2000343F698227B
:1017A0001A8040F22003C2F2000343F698225A80C6
:1017B00040F22003C2F200034FF000025A6040F2F0
:1017C0002003C2F200034FF000029A6040F22003AF
:1017D000C2F200034FF000029A8140F22003C2F2ED
:1017E00000034FF000029A7340F29C03C2F2000320
:1017F00043F6FC221A8040F29C03C2F2000341F639
:1018000056525A8040F29C03C2F200034FF000028D
:101810005A6040F29C03C2F200034FF000029A604B
:1018200040F25C03C2F200034FF00002DA7040F2B3
:101830005C03C2F200034FF000025A7140F25C03F5
:10184000C2F200034FF000021A7140F25C03C2F2D0
:1018500000034FF0FA021A8040F25C03C2F2000368
:101860004FF000029A7040F25C03C2F200034FF0A6
:101870000002DA6040F25C03C2F200034FF00002A3
:101880009A6040F25C03C2F200034FF000021A7447
:1018900040F25C03C2F200034FF000025A8240F2B1
:1018A0005C03C2F200034FF000021A7540F25403C9
:1018B000C2F200034FF000021A7040F25403C2F269
:1018C00000034FF000025A7040F25403C2F20003CA
:1018D0004FF000029A7040F25403C2F200034FF03E
:1018E0000002DA7040F25403C2F200034FF000022B
:1018F0001A7140F25403C2F200034FF000025A7111
:101900004FF43053C4F201034FF000029A864FF4B3
:101910003053C4F201034FF000021A874FF43053E2
:10192000C4F201034FF000029A87BD4680BC7047A5
:1019300080B584B000AFF860B9607A6040F200030F
:10194000C2F200031B68FA6802FB03F34FF0640263
:1019500002FB03F24AF22943C5F2F013A3FB021380
:101960004FEA5343FB60BB684FF47A7202FB03F209
:101970007B68B2FBF3F303F57A72FB6802FB03F3B7
:10198000FB60FA6844F6D353C1F26203A3FB02136F
:101990004FEA9313FB60F86800F008F8F860FB6802
:1019A0009BB2184607F11007BD4680BD80B48BB0CE
:1019B00000AF786042F210733B627B68FB614FF0CE
:1019C00000037B6227E07A683B6AB2FBF3F27B6A32
:1019D0004FEA830307F12801CB1843F8202C7B6AD8
:1019E0004FEA830307F12802D31853F8203C3A6AE0
:1019F00002FB03F37A68D31A7B603A6A4CF6CD4354
:101A0000CCF6CC43A3FB02134FEAD3033B627B6AC1
:101A100003F101037B627B6A042BD4D9BB69042BDD
:101A200003D9FB6903F10103FB61FB69184607F168
:101A30002C07BD4680BC704780B400AF40F2E00385
:101A4000C2F20003DA6940F20403C2F200031B8A07
:101A5000D21840F2E003C2F20003DA6140F2A803B8
:101A6000C2F20003DA6940F20403C2F20003DB8928
:101A7000D21840F2A803C2F20003DA6140F2340344
:101A8000C2F20003DA6940F20403C2F200039B8948
:101A9000D21840F23403C2F20003DA6140F29C0330
:101AA000C2F200039A6840F20403C2F200035B8AA8
:101AB000D21840F29C03C2F200039A6040F2D003B5
:101AC000C2F200039A6840F20403C2F200039B8A48
:101AD000D21840F2D003C2F200039A6040F2200311
:101AE000C2F200039A6840F20403C2F20003DB8AE8
:101AF000D21840F22003C2F200039A6040F25C0365
:101B0000C2F200039B6803F1010240F25C03C2F2DF
:101B100000039A6040F25C03C2F200039B68642BEE
:101B200040F09D8040F25C03C2F200034FF00002DF
:101B30009A6040F2E003C2F20003DA6948F21F53F0
:101B4000C5F2EB13A3FB02134FEA531240F2E0037A
:101B5000C2F200039A6140F2E003C2F200034FF0C8
:101B60000002DA6140F2A803C2F20003DA6948F227
:101B70001F53C5F2EB13A3FB02134FEA531240F2BB
:101B8000A803C2F200039A6140F2A803C2F2000364
:101B90004FF00002DA6140F23403C2F20003DA6966
:101BA00048F21F53C5F2EB13A3FB02134FEA531283
:101BB00040F23403C2F200039A6140F23403C2F2ED
:101BC00000034FF00002DA6140F29C03C2F200030E
:101BD0009A6848F21F53C5F2EB13A3FB02134FEAB6
:101BE000531240F29C03C2F200035A6040F29C037D
:101BF000C2F200034FF000029A6040F2D003C2F23A
:101C000000039A6848F21F53C5F2EB13A3FB0213BB
:101C10004FEA531240F2D003C2F200035A6040F27E
:101C2000D003C2F200034FF000029A6040F220039A
:101C3000C2F200039A6848F21F53C5F2EB13A3FBEC
:101C400002134FEA531240F22003C2F200035A601B
:101C500040F22003C2F200034FF000029A6040F20B
:101C6000E003C2F200035A6940F20403C2F2000327
:101C70009B88D21840F2E003C2F200035A6140F29E
:101C8000A803C2F200035A6940F20403C2F200033F
:101C90005B88D21840F2A803C2F200035A6140F2F6
:101CA0003403C2F200035A6940F20403C2F2000393
:101CB0001B88D21840F23403C2F200035A6140F28A
:101CC0005C03C2F20003DB6803F1010240F25C0333
:101CD000C2F20003DA6040F25C03C2F20003DB6888
:101CE000642B51D140F25C03C2F200034FF00002BA
:101CF000DA6040F2E003C2F200035A6948F21F536F
:101D0000C5F2EB13A3FB02134FEA531240F2E003B8
:101D1000C2F20003DA6040F2E003C2F200034FF0C7
:101D200000025A6140F2A803C2F200035A6948F265
:101D30001F53C5F2EB13A3FB02134FEA531240F2F9
:101D4000A803C2F20003DA6040F2A803C2F2000363
:101D50004FF000025A6140F23403C2F200035A69A4
:101D600048F21F53C5F2EB13A3FB02134FEA5312C1
:101D700040F23403C2F20003DA6040F23403C2F2EC
:101D800000034FF000025A61BD4680BC704700BF9F
:101D900080B400AF40F25403C2F200031B79042B5D
:101DA0001AD940F25403C2F200031B7903F1010374
:101DB000DAB240F25403C2F200031A7140F2540343
:101DC000C2F200031B79232B06D140F25403C2F266
:101DD00000034FF000021A714FF44063C4F2010394
:101DE0009B6803F00803002B26D140F25403C2F293
:101DF00000039B78002B1FD140F25403C2F2000372
:101E00001B79002B18D140F25403C2F200034FF0AB
:101E100001021A7040F25403C2F200031A7840F231
:101E20005403C2F200039A7040F25403C2F200035A
:101E30004FF005021A7116E040F25403C2F200039B
:101E40004FF000021A704FF44063C4F201039B6824
:101E500003F00803002B06D040F25403C2F2000343
:101E60004FF000029A7040F25403C2F200035B7913
:101E7000042B1AD940F25403C2F200035B7903F138
:101E80000103DAB240F25403C2F200035A7140F285
:101E90005403C2F200035B79232B06D140F25403B2
:101EA000C2F200034FF000025A714FF44063C4F2D3
:101EB00001039B6803F02003002B26D140F254035A
:101EC000C2F20003DB78002B1FD140F25403C2F2B0
:101ED00000035B79002B18D140F25403C2F20003D7
:101EE0004FF001025A7040F25403C2F200035A78D4
:101EF00040F25403C2F20003DA7040F25403C2F21B
:101F000000034FF005025A7116E040F25403C2F28A
:101F100000034FF000025A704FF44063C4F2010313
:101F20009B6803F02003002B06D040F25403C2F25A
:101F300000034FF00002DA70BD4680BC704700BF5E
:101F400080B483B000AF786003E07B6803F1FF33B7
:101F50007B607B68002BF8D107F10C07BD4680BC85
:101F6000704700BF80B582B000AF78604FF440602A
:101F7000C4F201004FF480714FF00102FEF724FF1C
:101F80004FF48053C4F201034FF48052C4F20102B3
:101F9000D1684FF60F720A40796801F0F0015218CB
:101FA000DA604FF44060C4F201004FF400714FF06A
:101FB0000102FEF709FF4FF00A00FFF7C1FF4FF4DF
:101FC0004060C4F201004FF400714FF00002FEF7D0
:101FD000FBFE4FF48053C4F201034FF48052C4F26D
:101FE0000102D1684FF60F720A4079684FEA011179
:101FF000C9B25218DA604FF44060C4F201004FF4E5
:1020000000714FF00102FEF7DFFE4FF00A00FFF70C
:1020100097FF4FF44060C4F201004FF400714FF09D
:102020000002FEF7D1FE4FF44060C4F201004FF40D
:1020300080714FF00002FEF7C7FE4FF49670FFF775
:102040007FFF07F10807BD4680BD00BF80B582B0A5
:1020500000AF78604FF44060C4F201004FF480712B
:102060004FF00002FEF7B0FE4FF48053C4F20103BC
:102070004FF48052C4F20102D1684FF60F720A4049
:10208000796801F0F0015218DA604FF44060C4F250
:1020900001004FF400714FF00102FEF795FE4FF082
:1020A0000A00FFF74DFF4FF44060C4F201004FF407
:1020B00000714FF00002FEF787FE4FF48053C4F228
:1020C00001034FF48052C4F20102D1684FF60F723F
:1020D0000A4079684FEA0111C9B25218DA604FF428
:1020E0004060C4F201004FF400714FF00102FEF7AE
:1020F0006BFE4FF00A00FFF723FF4FF44060C4F27D
:1021000001004FF400714FF00002FEF75DFE4FF446
:102110009670FFF715FF07F10807BD4680BD00BFA9
:1021200080B500AF49F2E030C0F20400FFF708FFCD
:102130004FF44060C4F201004FF480714FF0000290
:10214000FEF742FE4FF44060C4F201004FF400710C
:102150004FF00102FEF738FE4FF48053C4F2010342
:102160004FF48052C4F20102D1684FF60F720A4058
:1021700002F12002DA604FF44060C4F201004FF433
:1021800000714FF00002FEF71FFE4FF49670FFF74C
:10219000D7FE4FF02C00FFF759FF4FF00C00FFF770
:1021A00055FF4FF00600FFF751FF4FF00100FFF71A
:1021B0004DFF49F2E030C0F20400FFF7C1FE80BDE0
:1021C00080B483B000AF13460246FA710A46BA7172
:1021D0007B7140F25C03C2F200034FF001021A74FB
:1021E00097F9063003F1FF3197F9073003F1FF301B
:1021F00040F27402C2F200020B464FEA83035B18FE
:102200004FEA83031B18D3187A791A7007F10C0769
:10221000BD4680BC704700BF90B482B000AF0B4693
:102220003A600246FA71BB7140F25C03C2F20003ED
:102230004FF001021A741FE097F9063003F1FF31E5
:1022400097F9073003F1FF343B68187840F27402C5
:10225000C2F200020B464FEA83035B184FEA830386
:102260001B19D31802461A703B6803F101033B6047
:10227000FB7903F10103FB713B681B78002BDBD179
:1022800007F10807BD4690BC704700BF80B483B01B
:1022900000AF40F25C03C2F200034FF001021A7477
:1022A0004FF00003FB710BE0FA7940F27403C2F2C5
:1022B00000034FF020019954FB7903F10103FB71F6
:1022C000FB79132BF0D94FF00003FB710CE0FA7986
:1022D00040F27403C2F200039B184FF020021A75FB
:1022E000FB7903F10103FB71FB79132BEFD907F1A4
:1022F0000C07BD4680BC704780B582B000AF40F28D
:102300005C03C2F200034FF000021A744FF0800029
:10231000FFF79CFE4FF00003FB710CE0FA7940F2EE
:102320007403C2F200039B5C1846FFF71BFEFB79A7
:1023300003F10103FB71FB79132BEFD94FF0C000C0
:10234000FFF784FE4FF00003FB710DE0FA7940F2D5
:102350007403C2F200039B181B7D1846FFF702FEB0
:10236000FB7903F10103FB71FB79132BEED907F124
:102370000807BD4680BD00BF80B485B000AF78605F
:1023800039604FF00003FB737A6844F6D353C1F20F
:102390006203A3FB02034FEA9313DBB203F13003A2
:1023A000DAB23B681A703B681B781A464FF618433E
:1023B000CFF6FF7303FB02F31A467B68D31803F5CD
:1023C0003B4303F180037B603B6803F101027968C2
:1023D00048F21F53C5F2EB13A3FB01034FEA53135B
:1023E000DBB203F13003DBB213703B6803F101038E
:1023F0001B786FF0630202FB03F31A467B68D31865
:1024000003F596537B603B6803F1020279684CF652
:10241000CD43CCF6CC43A3FB01034FEAD303DBB29D
:1024200003F13003DBB213703B6803F102031B7846
:102430006FF0090202FB03F31A467B68D31803F519
:10244000F0737B603B6803F103037A68D2B202F158
:102450003002D2B21A703B6803F103031B787A682A
:10246000D31A03F130037B603B6803F104034FF0A0
:1024700000021A7009E0FB7B3A68D3184FF0200283
:102480001A70FB7B03F10103FB73FB7B3A68D318E3
:102490001B78302B02D1FB7B032BECD13B68184619
:1024A00007F11407BD4680BC704700BF80B500AF80
:1024B000FEF732FDFEF7A6FFFFF732FEFEF77CFEC9
:1024C000FEF75CFFFEF766FD40F21C03C2F200035C
:1024D0004FF00C021A7040F23003C2F200034FF0CA
:1024E00000021A7000E000BF40F25C03C2F2000379
:1024F0001B7C002BF7D0FFF7FFFEF4E780B500AFA1
:10250000FFF720F840F23003C2F200031A7840F2DD
:102510001C03C2F200031A7080BD00BF80B500AF7B
:102520004FF001004FF0010143F24072C0F600028B
:10253000FFF772FE4FF001004FF0020143F25872B4
:10254000C0F60002FFF768FE40F25C03C2F200032F
:102550004FF496725A8240F21C03C2F200034FF00D
:1025600004021A7040F23003C2F200034FF001027D
:102570001A7080BD80B500AF40F20403C2F20003C0
:102580009B8A194640F2D003C2F200031B881A4608
:1025900040F2D003C2F200035B88084611461A4697
:1025A000FFF7C6F903461A4643F2B0639A4207D9C9
:1025B00040F21C03C2F200034FF003021A7006E05F
:1025C00040F21C03C2F200034FF002021A7080BDF9
:1025D00080B500AF40F2D003C2F200034FF0010219
:1025E0005A734FF001004FF0010143F27072C0F6D0
:1025F0000002FFF711FE4FF001004FF0020143F21D
:102600008872C0F60002FFF707FE40F25C03C2F2D8
:1026100000034FF496725A8240F21C03C2F2000388
:102620004FF004021A7040F23003C2F200034FF080
:1026300005021A7080BD00BF80B500AF4FF00100E9
:102640004FF0010143F2A072C0F60002FFF7E4FD73
:1026500040F25C03C2F200031B7D03F10103DAB216
:1026600040F25C03C2F200031A7540F25C03C2F24E
:1026700000031B7D4FEA9313DBB2032B36D801A274
:1026800052F823F095260008AB260008C126000862
:10269000D72600084FF012004FF0010143F2B47248
:1026A000C0F60002FFF7B8FD20E04FF012004FF037
:1026B000010143F2B872C0F60002FFF7ADFD15E06C
:1026C0004FF012004FF0010143F2BC72C0F600025D
:1026D000FFF7A2FD0AE04FF012004FF0010143F2B4
:1026E000C072C0F60002FFF797FD00BF4FF0010077
:1026F0004FF0020143F2C472C0F60002FFF78CFDF6
:1027000040F25403C2F200031B78012B06D140F2C1
:102710001C03C2F200034FF006021A7080BD00BF16
:1027200080B582B000AF40F20403C2F200039B8A7E
:10273000194640F2D003C2F200031B881A4640F249
:10274000D003C2F200035B88084611461A46FFF721
:10275000EFF80346C3F5575303F128034EF64F42F3
:10276000C4F6C46282FB03124FEAE2024FEAE3734B
:10277000D31A7B607B68002B03DA4FF064037B6025
:1027800003E07B68C3F164037B607B68002B02DAA3
:102790004FF000037B604FF001004FF0010143F266
:1027A000DC72C0F60002FFF737FD7B68184640F286
:1027B000C801C2F20001FFF7DFFD03464FF0100031
:1027C0004FF001011A46FFF727FD4FF014004FF0BC
:1027D00001014FF02502FFF7F3FC7B680A2B18DD9F
:1027E0004FF001004FF0020143F2C472C0F6000244
:1027F000FFF712FD40F25403C2F200031B78012BD5
:1028000018D140F21C03C2F200034FF006021A7006
:1028100010E04FF001004FF0020143F2EC72C0F6FD
:102820000002FFF7F9FC40F21C03C2F200034FF074
:102830000B021A7007F10807BD4680BD80B500AFD6
:102840004FF001004FF0010143F60402C0F6000210
:10285000FFF7E2FC40F25403C2F200035B78012B65
:102860001BD140F25C03C2F200031B8803F1320368
:102870009AB240F25C03C2F200031A8040F25C0399
:10288000C2F200031B88B3F5FA7F06D140F25C0365
:10289000C2F200034FF0FA021A8040F25C03C2F267
:1028A00000031B88B3F5AF7F25D0B3F5AF7F05DC00
:1028B000FA2B0AD0B3F5967F12D03DE0B3F5C87F6E
:1028C00024D0B3F5E17F2CD036E04FF001004FF07B
:1028D000020143F61C02C0F60002FFF79DFC2BE04C
:1028E0004FF001004FF0020143F63402C0F600023F
:1028F000FFF792FC20E04FF001004FF0020143F699
:102900004C02C0F60002FFF787FC15E04FF0010013
:102910004FF0020143F66402C0F60002FFF77CFCB0
:102920000AE04FF001004FF0020143F67C02C0F6CE
:102930000002FFF771FC00BF40F25403C2F2000333
:102940001B78012B06D140F21C03C2F200034FF0AA
:1029500007021A7080BD00BF80B500AF4FF00100C4
:102960004FF0010143F69402C0F60002FFF754FC59
:1029700040F25403C2F200035B78012B1AD140F2FB
:102980005C03C2F200039B7803F10103DAB240F268
:102990005C03C2F200039A7040F25C03C2F20003CF
:1029A0009B78022B06D140F25C03C2F200034FF089
:1029B00000029A7040F25C03C2F200039B78002B85
:1029C00002D0012B0BD015E04FF001004FF00201B7
:1029D00043F6AC02C0F60002FFF71EFC0AE04FF01F
:1029E00001004FF0020143F6C402C0F60002FFF7F7
:1029F00013FC00BF40F25403C2F200031B78012B0A
:102A000006D140F21C03C2F200034FF008021A7014
:102A100080BD00BF80B500AF4FF001004FF0010155
:102A200043F6DC02C0F60002FFF7F6FB4FF00100B0
:102A30004FF0020143F6F402C0F60002FFF7ECFB90
:102A400040F25403C2F200031B78012B06D140F27E
:102A50001C03C2F200034FF009021A7040F2540343
:102A6000C2F200035B78012B06D140F21C03C2F2D4
:102A700000034FF006021A7080BD00BF80B500AFA2
:102A8000FFF704FC80BD00BF80B500AF40F2D0036B
:102A9000C2F200034FF000025A73FEF753FD40F2FA
:102AA0001C03C2F200034FF002021A7080BD00BF87
:102AB00080B500AF40F20403C2F200039B8A1946BE
:102AC00040F2D003C2F200031B881A4640F2D00342
:102AD000C2F200035B88084611461A46FEF728FF3B
:102AE00003461A4643F2B0639A4206D940F21C03E9
:102AF000C2F200034FF003021A7080BD80B400AF31
:102B000040F25C03C2F200035B8A012B8CBF0022FF
:102B10000122D2B203F1FF3399B240F25C03C2F258
:102B200000035982002A09D040F23003C2F20003A8
:102B30001A7840F21C03C2F200031A70BD4680BC32
:102B4000704700BF80B500AF4FF48050C4F2000062
:102B50004FF00101FDF702FF80BD00BF80B500AF5F
:102B60004FF4A050C4F200004FF00101FDF7F6FE53
:102B7000FEF762FF80BD00BF80B500AF4FF0804020
:102B80004FF00101FDF7EAFE40F2D003C2F200036C
:102B90005B7B012B22D140F20403C2F200039B8A2B
:102BA000194640F2D003C2F200031B881A4640F2D5
:102BB000D003C2F200035B88084611461A46FEF7AE
:102BC000B7FE03461A4642F6BF339A4206D840F291
:102BD0001C03C2F200034FF00A021A7040F21C03F9
:102BE000C2F200031B780C2B43D801A252F823F049
:102BF0002B2C0008312C00083D2C0008372C000835
:102C0000612C0008432C0008492C00084F2C0008B8
:102C1000552C00085B2C0008672C00086D2C000860
:102C2000252C0008FFF76AFC23E0FFF777FC20E083
:102C3000FFF7A0FC1DE0FFF7CBFC1AE0FFF770FDEB
:102C400017E0FFF7F9FC14E0FFF7F8FD11E0FFF7DC
:102C500083FE0EE0FFF7DEFE0BE0FFF70FFF08E05C
:102C6000FFF74CFF05E0FFF70FFF02E0FFF720FF43
:102C700000BFFFF78DF880BD80B400AF4FF48053E4
:102C8000C4F202034FF48052C4F20202126842F00E
:102C900001021A604FF48052C4F202024FF48053D2
:102CA000C4F2020359684FF00003CFF6FF030B4054
:102CB00053604FF48053C4F202034FF48052C4F2C5
:102CC0000202126822F0847222F480321A604FF4F9
:102CD0008053C4F202034FF48052C4F2020212681D
:102CE00022F480221A604FF48053C4F202034FF49E
:102CF0008052C4F20202526822F4FE025A604FF47B
:102D00008053C4F202034FF41F029A604FF48053C1
:102D1000C4F202034FF00002DA62BD4680BC704785
:102D200080B483B000AF0346FB714FF00003C4F2E0
:102D30004223FA791A6007F10C07BD4680BC704740
:102D400080B485B000AF786039604FF00003FB605D
:102D50004FF48053C4F202035B68FB60FB6823F40A
:102D60007413FB607A683B681343FA681343FB6093
:102D70004FF48053C4F20203FA685A6007F1140753
:102D8000BD4680BC704700BF80B483B000AF03462F
:102D9000FB714FF06003C4F24223FA791A6007F125
:102DA0000C07BD4680BC704780B485B000AF78602A
:102DB0004FF00003FB604FF48053C4F202035B68E2
:102DC000FB60FB6823F00303FB60FA687B68134336
:102DD000FB604FF48053C4F20203FA685A6007F1B3
:102DE0001407BD4680BC704780B400AF4FF48053D9
:102DF000C4F202035B68DBB203F00C03DBB21846DB
:102E0000BD4680BC704700BF80B485B000AF78601D
:102E10004FF00003FB604FF48053C4F202035B6881
:102E2000FB60FB6823F0F003FB60FA687B681343E8
:102E3000FB604FF48053C4F20203FA685A6007F152
:102E40001407BD4680BC704780B485B000AF786081
:102E50004FF00003FB604FF48053C4F202035B6841
:102E6000FB60FB6823F4E063FB60FA687B68134354
:102E7000FB604FF48053C4F20203FA685A6007F112
:102E80001407BD4680BC704780B485B000AF786041
:102E90004FF00003FB604FF48053C4F202035B6801
:102EA000FB60FB6823F46053FB607B684FEAC3035D
:102EB000FA681343FB604FF48053C4F20203FA68CC
:102EC0005A6007F11407BD4680BC704780B485B0D6
:102ED00000AF78604FF00003FB604FF48053C4F202
:102EE00002035B68FB60FB6823F44043FB60FA6805
:102EF0007B681343FB604FF48053C4F20203FA680B
:102F00005A6007F11407BD4680BC704780B483B097
:102F100000AF78600B46FB70FB78002B0CD04FF4B1
:102F20008053C4F202034FF48052C4F2020251698A
:102F30007A680A435A610DE04FF48053C4F20203E9
:102F40004FF48052C4F2020251697A686FEA0202B9
:102F50000A405A6107F10C07BD4680BC704700BFAC
:102F600080B483B000AF78600B46FB70FB78002B19
:102F70000CD04FF48053C4F202034FF48052C4F2D9
:102F8000020291697A680A439A610DE04FF4805316
:102F9000C4F202034FF48052C4F2020291697A68CB
:102FA0006FEA02020A409A6107F10C07BD4680BC35
:102FB000704700BF80B483B000AF78600B46FB70F1
:102FC000FB78002B0CD04FF48053C4F202034FF473
:102FD0008052C4F20202D1697A680A43DA610DE0D4
:102FE0004FF48053C4F202034FF48052C4F2020241
:102FF000D1697A686FEA02020A40DA6107F10C07C8
:10300000BD4680BC704700BF80B483B000AF78601D
:103010000B46FB70FB78002B0CD04FF48053C4F2AE
:1030200002034FF48052C4F20202D1687A680A4364
:10303000DA600DE04FF48053C4F202034FF4805283
:10304000C4F20202D1687A686FEA02020A40DA60CA
:1030500007F10C07BD4680BC704700BF80B483B049
:1030600000AF78600B46FB70FB78002B0CD04FF460
:103070008053C4F202034FF48052C4F20202116979
:103080007A680A431A610DE04FF48053C4F20203D8
:103090004FF48052C4F2020211697A686FEA0202A8
:1030A0000A401A6107F10C07BD4680BC704700BF9B
:1030B00080B487B000AF0346FB714FF00003FB60A4
:1030C0004FF000037B614FF00003FB74FB794FEA84
:1030D0005313DBB2FB60FB68012B06D14FF4805326
:1030E000C4F202031B687B610FE0FB68022B06D170
:1030F0004FF48053C4F202031B6A7B6105E04FF476
:103100008053C4F202035B6A7B61FB7903F01F0307
:10311000FB60FB687A6922FA03F303F00103002BDA
:1031200003D04FF00103FB7402E04FF00003FB7487
:10313000FB7C184607F11C07BD4680BC704700BFEA
:1031400080B582B000AF78607A684FF41053C4F253
:1031500001039A420CD14FF400704FF00101FFF7C8
:1031600053FF4FF400704FF00001FFF74DFF26E0D2
:103170007A684FF42053C4F201039A420CD14FF401
:1031800080604FF00101FFF73FFF4FF480604FF088
:103190000001FFF739FF12E07A684FF47053C4F270
:1031A00001039A420BD14FF400404FF00101FFF7A9
:1031B0002BFF4FF400404FF00001FFF725FF07F110
:1031C0000807BD4680BD00BF80B485B000AF786001
:1031D00039604FF00003FB604FF00003FB727B6827
:1031E0005B68FB60FB6823F4702323F48073FB604F
:1031F0003B681A683B681B794FEA03231343FA685C
:103200001343FB607B68FA685A607B689B68FB60CD
:10321000FA684FF2FD73CFF6F1731340FB603B6821
:10322000DA683B689B681A433B685B794FEA430363
:103230001343FA681343FB607B68FA689A607B6803
:10324000DB6AFB60FB6823F47003FB603B681B7C5C
:1032500003F1FF33DAB2FB7A1343FB72FB7A4FEAD6
:103260000353FA681343FB607B68FA68DA6207F17C
:103270001407BD4680BC704780B483B000AF78604F
:103280000B46FB70FB78002B06D07B689B6843F0F5
:1032900001027B689A6005E07B689B6823F001026D
:1032A0007B689A6007F10C07BD4680BC704700BF81
:1032B00080B483B000AF78600B46FB70FB78002BC6
:1032C00006D07B689B6843F480727B689A6005E057
:1032D0007B689B6823F480727B689A6007F10C0717
:1032E000BD4680BC704700BF80B483B000AF78603B
:1032F0007B689B6843F008027B689A6007F10C07C3
:10330000BD4680BC704700BF80B483B000AF78601A
:103310007B689B6843F004027B689A6007F10C07A6
:10332000BD4680BC704700BF80B483B000AF7860FA
:103330000B46FB70FB78002B06D07B689B6843F440
:10334000A0027B689A6005E07B689B6823F4A0027A
:103350007B689A6007F10C07BD4680BC704700BFD0
:1033600080B485B000AF7860F970BA707B704FF0B0
:103370000003FB604FF00003BB60FB78092B27D9EB
:103380007B68DB68FB60FA7813464FEA43039B18BF
:10339000A3F11E034FF0070202FA03F3BB60BB6800
:1033A0006FEA0303FA681340FB607978FA781346F2
:1033B0004FEA43039B18A3F11E0301FA03F3BB601A
:1033C000FA68BB681343FB607B68FA68DA6022E046
:1033D0007B681B69FB60FA7813464FEA43039B182E
:1033E0004FF0070202FA03F3BB60BB686FEA030306
:1033F000FA681340FB607978FA7813464FEA430382
:103400009B1801FA03F3BB60FA68BB681343FB60C7
:103410007B68FA681A61BB78062B27D87B685B6BE0
:10342000FB60BB7803F1FF3213464FEA83039B181E
:103430004FF01F0202FA03F3BB60BB686FEA03039D
:10344000FA681340FB60F978BB7803F1FF3213464A
:103450004FEA83039B1801FA03F3BB60FA68BB6869
:103460001343FB607B68FA685A6351E0BB780C2B0E
:1034700027D87B681B6BFB60BA7813464FEA83033F
:103480009B18A3F123034FF01F0202FA03F3BB6062
:10349000BB686FEA0303FA681340FB60F978BA78F7
:1034A00013464FEA83039B18A3F1230301FA03F3A6
:1034B000BB60FA68BB681343FB607B68FA681A63F9
:1034C00026E07B68DB6AFB60BA7813464FEA830329
:1034D0009B18A3F141034FF01F0202FA03F3BB60F4
:1034E000BB686FEA0303FA681340FB60F978BA78A7
:1034F00013464FEA83039B18A3F1410301FA03F338
:10350000BB60FA68BB681343FB607B68FA68DA62E9
:1035100007F11407BD4680BC704700BF80B485B07A
:1035200000AF78604FF00003FB604FF40053C4F22B
:1035300002031B68FB60FB6803F03803FB60FA685A
:103540007B681343FB604FF40053C4F20203FA6834
:103550001A6007F11407BD4680BC704780B483B081
:1035600000AF78604FF40053C4F202034FF40052EE
:10357000C4F20202126822F010021A604FF40053E3
:10358000C4F202034FF40052C4F2020211687A68D6
:103590000A431A6007F10C07BD4680BC704700BFA4
:1035A00080B485B000AF786039604FF00003FB60F5
:1035B0007B681B68FB60FB6823F4FF4323F0700308
:1035C000FB603B689A683B681B6A1A433B681B694F
:1035D0001A433B685B691A433B689B691A433B6823
:1035E000DB691A433B685B6A1A433B689B6A134377
:1035F000FA681343FB607B68FA681A603B68DA6814
:103600007B685A603B681A687B689A603B685A68B6
:103610007B68DA6007F11407BD4680BC704700BFC5
:1036200080B483B000AF78600B46FB70FB78002B52
:1036300006D07B681B6843F001027B681A6006E0D5
:103640007B681A684FF6FE7313407A68136007F1BF
:103650000C07BD4680BC704780B487B000AF78606F
:103660004FF000037B614FF000033B614FF00F030D
:10367000FB607B68DB78002B47D04FF46D43CEF2C4
:103680000003DB686FEA030303F4E0634FEA1323EC
:103690007B617B69C3F104033B617B69FA6822FAB1
:1036A00003F3FB607B685B781A463B6902FA03F31D
:1036B0007B617B689B781A46FB6813407A691343E9
:1036C0007B617B694FEA03137B614FF46143CEF268
:1036D00000037A68127811467A69D2B25B1883F8CF
:1036E00000234FF46143CEF200037A6812784FEA68
:1036F0005212D2B27968097801F01F014FF001002F
:1037000000FA01F143F8221014E04FF46143CEF2C5
:1037100000037A6812784FEA5212D2B279680978B7
:1037200001F01F014FF0010000FA01F102F1200247
:1037300043F8221007F11C07BD4680BC704700BF4C
:1037400020202041545820505355205465737465EF
:103750007220202000000000202020205665727377
:10376000696F6E20322E30302020202000000000B3
:103770002020202020202020204143202020202005
:103780002020202000000000202020202020207366
:103790007570706C7920202020202020000000000F
:1037A00042617474657279206368617267696E67DB
:1037B000000000003E2020003E3E20003E3E3E0035
:1037C0002020200020202020205072657373203C90
:1037D0004F4B3E20202020200000000042617474E6
:1037E000657279206368617267653A0020506C6584
:1037F00061736520636F6E6E6563742041432120A1
:1038000000000000202053656C656374204154580B
:1038100020506F77657220200000000020202020BB
:103820002020205B323530575D20202020202020B2
:1038300000000000202020202020205B3330305763
:103840005D202020202020200000000020202020BB
:103850002020205B333530575D2020202020202081
:1038600000000000202020202020205B3430305732
:103870005D2020202020202000000000202020208B
:103880002020205B343530575D2020202020202050
:1038900000000000202053656C656374207465731C
:1038A00074206D6F6465202000000000202020201F
:1038B00020205B4E6F726D616C5D202020202020E7
:1038C000000000002020202020205B4578706572D9
:1038D000745D2020202020200000000020203C4F8C
:1038E0004B3E202D205374617274205465737420F4
:1038F000000000003C53656C6563743E202D20532E
:0C390000657474696E677320000000009D
:04390C00E40C0000C7
:0400000508000000EF
:00000001FF
